:020000040800F2
:10000000880400204901000851010008530100083C
:1000100055010008570100085901000800000000C0
:100020000000000000000000000000005B0100086C
:100030005D010008000000005F0100085D07000886
:100040006301000863010008630100086301000800
:1000500063010008630100086301000863010008F0
:1000600063010008630100086301000863010008E0
:100070006301000863010008630100080902000829
:1000800063010008630100086301000863010008C0
:10009000630100086301000863010008050400080B
:1000A00063010008D9070008630100086301000824
:1000B0006301000863010008630100086301000890
:1000C0006301000863010008630100086301000880
:1000D00063010008290800086301000863010008A3
:1000E000A50300086301000863010008630100081C
:1000F0006301000863010008630100086301000850
:10010000630100086301000863010008630100083F
:10011000630100086301000811080008630100087A
:10012000630100086301000863010008630100081F
:10013000DFF810D000F01AF800480047DD0800088A
:10014000AFF3008088040020064880470648004737
:10015000FEE7FEE7FEE7FEE7FEE7FEE7FEE7FEE777
:10016000FEE7FEE77907000831010008064C074D5D
:1001700006E0E06840F0010394E807009847103477
:10018000AC42F6D3FFF7D8FF380900085809000839
:1001900000B5034603E04FF47A7000F013F8181E20
:1001A000A3F101018BB2F6D100BD10B5044603E006
:1001B0004FF47A70FFF7ECFF201EA4F101018CB21E
:1001C000F6D110BD00EBC001C9004FF0E022516133
:1001D0001146096941F0040111611146096941F0B4
:1001E0000101116100BF4FF0E021096901F4803184
:1001F0000029F8D04FF0E021096921F001014FF00A
:10020000E02211617047000010B50448406840F4D6
:1002100000300249486000F003F810BD00000240C1
:100220007047000045F255500549086004204860B9
:1002300040F6C31088604CF6CC4008607047000060
:10024000003000404AF6AA200149086070470000CB
:1002500000300040704700000348008820F0010093
:100260000149088070470000002C014070470000E1
:1002700010B53E48806940F004003C49886108465A
:10028000806940F4804088613948006840F030005F
:10029000374908600846006840F08000086008465A
:1002A000006820F0400008600846006820F44070B4
:1002B00008600846006820F400600860084600688E
:1002C00040F4806008602B48008840F400502949C1
:1002D00008800846008840F008000880084600882A
:1002E00040F0040008800846008820F48050088010
:1002F0000846008820F480600880081D008820F4EB
:100300004050091D088040F271201A49091F0880D9
:1003100003200246184B19684FF6FF031940174B8C
:100320000B4343EA0221144B196000BF252005212D
:10033000002808DA0A07140E0F4A0C3200F00F03E7
:100340001B1FD45403E00A07130E0D4A135400BFB9
:10035000252000F01F02012191404209920002F184
:10036000E022C2F8001100BF10BD000000100240E2
:10037000040801400C3801400CED00E00000FA05D3
:1003800000E400E07047000000BF0549098801F063
:1003900080010029F9D00249091D0880704700003A
:1003A0000038014010B51548006800F4806078B14D
:1003B0001248006840F48060104908600A20FFF786
:1003C000E7FE0F48006800F4806008B100F030F9E3
:1003D0000A48006800F4006078B10848006840F4FA
:1003E0000060064908600A20FFF7D2FE0448006852
:1003F00000F4006008B100F01CF910BD14040140C5
:10040000081C014010B51548006800F4807078B1F0
:100410001248006840F48070104908600A20FFF715
:10042000B7FE0F48006800F4807008B900F0ECF8DF
:100430000A48006800F4007078B10848006840F489
:100440000070064908600A20FFF7A2FE0448006811
:1004500000F4007008B900F0D9F810BD1404014090
:10046000081C014010B56248806940F08000604976
:1004700088610846806940F0010088615D48006835
:1004800020F003005B4908600846006840F008005F
:1004900008600846006820F00400086055480830ED
:1004A000006840F480705349083108605148006882
:1004B00020F030004F4908600846006840F0800096
:1004C00008600846006820F040000860494808308D
:1004D000006840F4007047490831086045480068EA
:1004E00020F44070434908600846006840F400600A
:1004F00008600846006820F4806008603D480830C5
:10050000006820F480603B49083108603948006881
:1005100020F44050374908600846006840F4004025
:1005200008600846006820F48040086031480830C0
:10053000006820F400602F49083108602E480069E7
:1005400020F00F012C480161006940F005012A48A4
:100550000161006920F0F00127480161006940F065
:10056000500125480161006920F470612248016151
:10057000006940F4A06120480161006920F47041E5
:100580001D480161006940F4A0411B4801611B48FE
:10059000006840F4407019490860081F006840F482
:1005A0004060091F086015480C38006840F470600E
:1005B00012490C39086003200246114B19684FF6A6
:1005C000FF0319400F4B0B4343EA02210C4B196008
:1005D00000BF172000F02EF8282000F02BF80A2189
:1005E000172000F033F80A21282000F02FF810BD62
:1005F00000100240041C0140000001400C040140B6
:100600000CED00E00000FA057047000010B503A0F3
:1006100000F034F90520FFF7C8FD10BD5357342012
:100620004B65792050726573736564210A00000080
:100630007047704700F01F0201219140420992006B
:1006400002F1E022C2F800117047000010B5002846
:1006500007DA0A07140E054A00F00F031B1FD454D3
:1006600003E00A07130E024A135410BD18ED00E010
:1006700000E400E010B500F001F810BD0CB500205A
:10068000019000903348006840F4803031490860A0
:1006900000BF3048006800F4003000900198401C12
:1006A0000190009818B90198B0F5A06FF1D12948D0
:1006B000006800F4003010B10120009001E000203B
:1006C00000900098012843D12348006840F01000B2
:1006D000214908600846006820F0070008600846C5
:1006E000006840F0020008601A48406819494860F4
:1006F0000846406848600846406840F480604860AA
:100700000846406820F47C1048600846406840F481
:10071000E81048600846006840F08070086000BF3C
:100720000C48006800F000700028F9D009484068C3
:1007300020F00300074948600846406840F0020086
:10074000486000BF0348406800F00C000828F9D159
:100750000CBD0000001002400020024010B505480A
:10076000008820B103480088401E02490880FFF736
:1007700071FD10BD0200002010B51348006840F064
:1007800001001149086008464068104908400E49B8
:100790004860084600680E4908400B490860084652
:1007A000006820F4802008600846406820F4FE00BD
:1007B00048604FF41F008860FFF75CFF4FF0006057
:1007C0000449086010BD0000001002400000FFF85E
:1007D000FFFFF6FE08ED00E010B50648008820F0A7
:1007E000010004490880FFF737FD03A000F046F838
:1007F00010BD0000102C014054494D315F55505F31
:1008000049525148616E646C6572202121210000BB
:1008100010B50448008A20F0010002490882FFF761
:1008200025FD10BD0010004010B51148008800F0F3
:1008300020000F49088050B1081D00880D490E4A5C
:10084000128888540C480088401C0B4908800848CE
:10085000008800F0100050B1074801880548FFF7F4
:1008600091FD0020044908800148001D008810BD4A
:10087000003801400800002000000020014A024921
:1008800000F013B8CD0800080400002002E008C8FA
:10089000121F08C1002AFAD170477047002001E0FA
:1008A00001C1121F002AFBD170472DE9F041164605
:1008B0000F460446002503E03946B047641C6D1C12
:1008C00020780028F8D12846BDE8F08170B50446AC
:1008D0000D46E0B2FFF758FD204670BDFFF7C8FC9B
:1008E000FFF7C0FD07A0FFF7C9FFFFF79BFC08E07B
:1008F000FFF7A8FC0BA0FFF7C1FF4FF4FA60FFF76A
:1009000047FCF5E753544D333220495744472052B2
:1009100065676973746572204578616D706C653ABE
:10092000200A000049574447205265667265736883
:100930006564210A0000000058090008000000203A
:10094000080000008C08000860090008080000206A
:10095000800400009C080008000000000000000067
:0400000508000131BD
:00000001FF
