:020000040800F2
:10000000B804002049010008EF1400085911000845
:10001000ED140008B5010008D11700080000000029
:10002000000000000000000000000000F3140008C1
:10003000B701000800000000F114000815150008C1
:100040006301000863010008630100086301000800
:1000500063010008630100086301000863010008F0
:1000600063010008630100086301000863010008E0
:1000700063010008630100086301000863010008D0
:1000800063010008630100086301000863010008C0
:1000900063010008630100086301000863010008B0
:1000A00063010008630100086301000863010008A0
:1000B0006301000863010008630100086301000890
:1000C0006301000863010008630100086301000880
:1000D00063010008C51700086301000863010008F8
:1000E0006301000863010008630100086301000860
:1000F0006301000863010008630100086301000850
:10010000630100086301000863010008630100083F
:10011000630100086301000863010008630100082F
:10012000630100086301000863010008630100081F
:10013000DFF810D000F02CF8004800475D180008E8
:10014000AFF30080B8040020064880470648004707
:10015000FEE7FEE7FEE7FEE7FEE7FEE7FEE7FEE777
:10016000FEE7FEE77715000831010008D2B201E092
:1001700000F8012B491EFBD270470022F6E710B5AC
:1001800013460A4604461946FFF7F0FF204610BD05
:10019000064C074D06E0E06840F0010394E80700D4
:1001A00098471034AC42F6D3FFF7C6FF400301086E
:1001B00060030108FEE7704772B6FEE730B5B3F59D
:1001C000804F05D06FF0704140F82210002030BD04
:1001D0008C690B688D6823434C688989240144EA43
:1001E0000524234343EA014150F82230014C2340C7
:1001F0001943E9E70000F0CF10B50A6850F8223043
:1002000023F0010340F822308C68082C23D000230F
:100210004A682243CC681C430B6922431A434B694A
:100220000E4C1A43CB691A430B6A1A434B6A1A43A2
:100230008B6A1A43CB6A1A430B6B1A438B691343BD
:100240004A6B09681A4350F82130A343134340F81E
:100250002130002010BD4023DAE700007FFF0F00AF
:1002600030B5D1E9003443EA04138C688D89240247
:1002700044EA054423430C8A074D00EB820005EB5A
:10028000045423430C7D6D0105EB04648969234309
:100290000B434360002030BD0000F0FF10B590F824
:1002A00021100022022905D00421816380F820203A
:1002B000012010BD01680B6823F00E030B6001687C
:1002C0000B6823F001030B6090F84030C46B0121F0
:1002D00001FA03F3636080F8211080F820201046B3
:1002E00010BD00002DE9F05F90F8211000240229D4
:1002F00003D004218163012485E001680A6822F0AB
:100300000E020A6001680A6822F001020A603F4E8C
:100310003E4FB215DFF8F4C0DFF8F090DFF8ECA044
:10032000DFF8E8B0DFF8E4E00168783F1301150278
:10033000ACF1640CA9F15009AAF13C0AABF1280B0D
:10034000AEF1140E4FF48018B14227D9B9420ED045
:10035000614512D049451DD0514518D0594518D096
:10036000714501D1424615E0294EB14201D1012229
:1003700010E0274E1436B14201D110220AE0244E7B
:100380002836B14206D0224A3C32914201D11A4667
:1003900000E02A461E49091F0A602BE0B94213D02B
:1003A000614517D0494522D051451DD059451DD032
:1003B000714501D142461AE0B14202D14FF080723C
:1003C00015E0134EB14201D1012210E0104E143657
:1003D000B14201D110220AE00D4E2836B14206D0BA
:1003E0000B4A3C32914201D11A4600E02A460749A5
:1003F00080394A60012180F82110002180F8201006
:10040000416B01B188472046BDE8F09F8000024063
:100410000804024070B5044600F050F90546601C1F
:1004200002D004480078044400F048F9401BA04280
:10043000FAD370BD0800002030B585B000200090D0
:1004400001900290039017480168002927D10121EB
:1004500001601548416941F480714161406902249D
:1004600000F48070049041F20100CDE900040325FE
:10047000694603950D4800F01FF84FF68070CDE9EE
:100480000004694603950A4800F016F84CF23370F0
:10049000CDE9000469460395064800F00DF805B063
:1004A00030BD00000000002000100240002001408C
:1004B00000180140001401402DE9F84FDFF8C89101
:1004C0000024A9F1040B23460F2709F1040AABF11C
:1004D000040ED1E00125A54006EA0502AA4276D124
:1004E000DFF8A8C14E68A6EB0C0866452BD00DDCE2
:1004F000032E34D005DC36B3012E19D0022E2FD1B5
:100500001BE0112E16D0122E2AD119E0B8F5881F43
:1005100019D006DCB8F5803F15D0B8F5801F1FD183
:1005200011E0B8F5001F0ED0B8F5041F18D10AE08D
:10053000CB6815E0CB681B1D12E0CB6808330FE0D9
:10054000CB680C330CE08B682BB1012B4FF0080308
:1005500003D0456104E0042302E0056100E00023CC
:10056000FF2A01D8064601E000F104064FEA84059F
:1005700001D9A5F12005D6F8008007FA05FC28EA84
:100580000C0803FA05F548EA0508C6F800804D682E
:10059000ED0070D53E4DAE6946F00106AE61AD6925
:1005A00024F0030605F0010500953A4D06EB050C15
:1005B000DCF80850A607360F07FA06F825EA080502
:1005C000DFF8D480404503D14FF0000825E052E029
:1005D000DFF8C880404502D14FF001081DE0DFF888
:1005E000C080404502D14FF0020816E0DFF8B48029
:1005F000404502D14FF003080FE0DFF8AC804045E2
:1006000002D14FF0040808E0DFF8A080404502D195
:100610004FF0050801E04FF0060808FA06F848EA2E
:100620000508CCF808804D68D9F80060ED024D4609
:1006300001D5164300E096432E604D68DAF800605D
:10064000AD02554601D5164300E096432E604D6835
:10065000DBF80060AD035D4601D5164300E096432C
:100660002E604D68DEF80060ED03754601D5164337
:1006700000E096432E60641C0A681646E2407FF450
:1006800029AFBDE8F88F00000804014000001110F8
:10069000001002400000014000080140000C014031
:1006A000001001400014014000180140001C0140EE
:1006B0000AB1016170470904FBE700000148806846
:1006C0007047000008000020024881680278114449
:1006D0008160704708000020074810B5016841F0AC
:1006E00010010160032000F075F8002000F006F80A
:1006F00000F024F8002010BD0020024070B50D4D20
:1007000004464FF47A712878B1FBF0F00A49096881
:10071000B1FBF0F000F010FB48B9102C07D200221A
:100720002146501E00F036F800206C6070BD01209C
:1007300070BD000008000020140000200C4808B51F
:10074000816941F001018161816901F0010100913C
:10075000C16941F08051C161C06900F080500090D2
:100760000448416821F0E06141F00071416008BD3A
:100770000010024000000140002809DB00F01F02C9
:10078000012191404009800000F1E020C0F80011F3
:1007900070470000F0B40E4B1B680C46C3F30223F5
:1007A000C3F10705042D00D90425191D072901D21D
:1007B000002300E0DB1E012606FA05F1491E214058
:1007C00099409E40761E16403143F0BC01F00AB8B5
:1007D0000CED00E0064900F0070208684FF6FF0341
:1007E000184040EA0220034A1043086070470000A6
:1007F0000CED00E00000FA052DE9F0470F4605007A
:1008000061D0434E306800F00700B84209D230682A
:1008100020F0070038433060306800F00700B8422D
:1008200051D128683B4C810712D5400703D5606839
:1008300040F4E06060602878000703D5606840F409
:10084000605060606068A96820F0F0000843606054
:100850002878C00728D06868012810D021680228AD
:1008600010D0890700292EDA616821F003010143C5
:100870006160FFF723FF804641F288390DE021686F
:100880008903EFE78901EDE7FFF718FFA0EB080107
:10089000494502D90320BDE8F0876068696800F027
:1008A0000C00B0EB810FEFD1306800F00700B842C8
:1008B0000BD9306820F0070038433060306800F012
:1008C0000700B84201D00120E5E72878400705D5A8
:1008D0006068E96820F4E0600843606028780007F9
:1008E00006D56068296920F4605040EAC100606064
:1008F00000F038F86168084AC1F30311515CC84040
:100900000649086006480068FFF7F8FE0020C2E7C5
:1009100000200240001002402603010814000020BD
:100920000C0000200448054900684968044AC1F3E6
:100930000221515CC84070471400002000100240A2
:10094000360301080448054900684968044AC1F3B0
:10095000C221515CC84070471400002000100240C2
:10096000360301080E4A51680E4801F00C03042BAF
:1009700011D0082B0FD10C48C1F38343C903C05CCD
:100980000AD55168084AC1F34041921E515C054A9C
:100990005043B0FBF1F070470449484370470000F2
:1009A0000010024000127A001603010800093D0001
:1009B0002DE9F84F040070D02078C04DC00749D011
:1009C0006868C0F38100012807D06868C0F381001F
:1009D000022809D16868C00306D52868800339D584
:1009E00060680028E7D035E06068B0F5803F0BD044
:1009F00010B1B0F5A02F11D0286820F48030286005
:100A0000286820F4802002E0286840F480302860C4
:100A1000606890B1FFF752FE06460AE0286840F48D
:100A200080202860F0E700BFFFF748FE801B6428A5
:100A300073D828688003F7D50CE0FFF73FFE064621
:100A400005E000BFFFF73AFE801B6428F0D8286855
:100A50008003F7D420789A4E80074FF001094FF0B9
:100A6000000839D5686810F00C0F07D06868C0F32B
:100A70008100022809D16868C00306D4286880076D
:100A800014D52069012808D110E02069B0B1C6F85A
:100A90000090FFF713FE074605E00AE1FFF70EFEA0
:100AA000C01B0228C4D828688007F7D52868616968
:100AB00020F0F80040EAC10028600DE0C6F8008090
:100AC000FFF7FCFD074604E0FFF7F8FDC01B022816
:100AD00023D828688007F7D4207800072CD57948D8
:100AE000A169D9B1C0F80090FFF7E8FD074604E01E
:100AF000FFF7E4FDC01B02280FD8686A8007F7D50E
:100B000071484FF4FA510068B0FBF1F0009000BF5B
:100B10000098411E0091FAD20EE080E0C0F80080FB
:100B2000FFF7CCFD074604E0FFF7C8FDC01B022815
:100B300075D8686A8007F7D42078400760D5E869DF
:100B40000027C00008D4E86940F08050E861E869F7
:100B5000012700F0805000905C480168C90513D45B
:100B60000168834641F480710160FFF7A7FD82466A
:100B700006E000BFFFF7A2FDA0EB0A0064284ED8F4
:100B8000DBF80000C005F5D5E06801280AD008B1FF
:100B9000052813D0286A20F001002862286A20F076
:100BA000040002E0286A40F001002862E06841F297
:100BB000883B98B1FFF782FD82460BE0286A40F03F
:100BC00004002862EEE700BFFFF778FDA0EB0A0102
:100BD00059455AD8286A8007F6D50CE0FFF76EFD14
:100BE000824605E0FFF76AFDA0EB0A0159454CD8A3
:100BF000286A8007F6D41FB1E86920F08050E861C8
:100C0000E06988B36968C1F38101022944D00228F0
:100C1000C6F8608004D0FFF751FD044638E034E0A8
:100C2000FFF74CFD074604E0FFF748FDC01B022814
:100C30002BD828688001F7D4206AB0F5803F05D111
:100C40006868A16820F4003008436860D4E90801AE
:100C50000843696821F4741108436860C6F860901D
:100C6000FFF72CFD044606E025E000BFFFF726FD58
:100C7000001B022809D828688001F7D51BE000BFB7
:100C8000FFF71CFD001B022802D90320BDE8F88FE6
:100C900028688001F4D40EE00128F7D06868226A41
:100CA00000F48031914204D1616A00F470108842EE
:100CB00001D00120EAE70020E8E700000010024030
:100CC00000004242800442421400002000700040B4
:100CD00070B515460E46040007D0A069B0F5807FB8
:100CE00003D094F8410010B107E0012070BD00204E
:100CF00084F84000204600F01DF804F10801206847
:100D0000FFF77AFA3146A2682068FFF7A9FAD4E91A
:100D100001022946236BFFF751FAA168206850F8B9
:100D2000212042F0010240F82120012084F84100F6
:100D3000002070BDFFF780BB10B5401EB0F1807F72
:100D400001D3012010BD4FF0E02460610F21601736
:100D500000F048FD0020A06107202061002010BDA8
:100D600070477047F8B5016804460868CA684B695F
:100D700010F00F0F4FF0000559D003F0010602F4F8
:100D80009077374365D0C10705D0D10503D5616C95
:100D900041F001016164410705D5D90703D0616CB9
:100DA00041F002016164810705D5D90703D0616C68
:100DB00041F004016164010707D502F020013143CD
:100DC00003D0616C41F008016164616C00293AD084
:100DD000800604D5900602D5204600F0FCFB206872
:100DE0004069616CC0F38010090700D460B32046ED
:100DF00000F0CAFB20684069400621D52068143005
:100E000050E8001F21F0400140E80012002AF5D10F
:100E1000E06BA8B16D494163E06BFFF763FA00280E
:100E200011D0E06B416B01B0BDE8F040084783068C
:100E30000FD593060DD52046BDE8F84000F0CBBB9A
:100E40002046FFF78EFFF8BD2046FFF78AFF656456
:100E5000F8BD266B2023012E7CD1C6067AD5D60696
:100E600078D508684868009048694FF00206400647
:100E700040D5E16B086840680004000CE8D0A28D02
:100E80008242E5D9E085886920282DD020680C3081
:100E900050E8001F21F4807140E80012002AF5D1CB
:100EA0002068143050E8001F21F0010140E80012D2
:100EB000002AF5D12068143050E8001F21F04001CD
:100EC00040E80012002AF5D184F8423025632068FA
:100ED0000C3050E8001F21F0100140E80012002AF9
:100EE000F5D1E06BFFF7DAF96663A08DE18D401A6A
:100EF00081B22AE0A08DE18D401A81B2E08D0028F8
:100F0000A6D00029A4D022680C3252E8000F20F4A9
:100F1000907042E80007002FF5D12068143050E8A7
:100F2000002F22F0010240E80027002FF5D184F8BD
:100F30004230256320680C3050E8002F22F0100268
:100F400040E80023002BF5D166632046FFF708FF39
:100F5000F8BDFFE705062BD5150629D594F8410005
:100F60002128F5D1A068B0F5805F01D12069B0B12A
:100F7000206A411C2162216800784860E08C401E94
:100F80000004000CE084E3D12068C16821F08001F6
:100F9000C1602068C16841F04001C160D8E7206AA3
:100FA0000088C0F308004860206A801C2062E5E7E2
:100FB0004006CDD55006CBD5CA68204622F0400267
:100FC000CA6084F8413000F0C6F8C1E7791500081E
:100FD00070B5040004D094F84100002510B106E07B
:100FE000012070BD84F84050204600F023F82420F2
:100FF00084F841002068C16821F40051C160204696
:1010000000F04AFB2068016921F4904101612068E9
:10101000416921F02A0141612068C16841F4005111
:10102000C1606564202084F8410084F84200656353
:10103000002070BD30B585B0002400940194029466
:1010400003940068184988422CD11848816941F4FA
:1010500080418161816901F480410491816941F09D
:10106000040181618069124D00F0040004904FF486
:1010700000700090022001900320039069462846EA
:10108000FFF71AFA2815CDE90004694628460294AC
:10109000FFF712FA002205212520FFF77BFB252010
:1010A000FFF76AFB05B030BD003801400010024078
:1010B0000008014070472DE9F843044690F84100CC
:1010C000984616460D46202802D00220BDE8F88337
:1010D00085B17EB100206064212084F84100FFF7D3
:1010E000EDFAA6848146E684A0682027B0F5805FEB
:1010F00002D003E00120E9E7206910B12E46002567
:101100000EE000260CE08021204600F021FBA8B96B
:10111000C6B116F8010B21684860E08C401EE084DF
:10112000E08C4B464FF00002CDF800800028EAD159
:101130004FF04001204600F00BFB40B184F84170B5
:101140000320C3E735F8020BC0F30800E3E784F897
:1011500041700020BAE77047FEE7000070B50C4D03
:101160002A242C80060AAC1C2680C0B22080100ADB
:101170002080D0B220802B202880080A2080C8B28E
:101180002080180A2080D8B220802C20288070BDB2
:10119000FE07006C30B50E4C054600216088401EED
:1011A00083B22088401E82B20846FFF7D7FF6388CB
:1011B00000210848248808E0002202E00580521C33
:1011C00092B29342FAD8491C89B28C42F4D830BD0D
:1011D000180000200008006C70B54E4D4FF400441C
:1011E000002221462846FFF763FA6420FFF712F930
:1011F000012221462846FFF75BFA6420FFF70AF92F
:101200003220FFF707F9002000F074F9424CE0208B
:1012100020800021A01C0180102101800F2101806D
:101220000E210180112101800A21018044210180C9
:10123000772101803821018008210180132101805C
:10124000052101800B210180022101800021018004
:10125000E12121800F2101803B2101803921018082
:101260000D2101800F210180052101805321018082
:10127000432101803D210180052101800F21018052
:1012800004210180232101801F2101800F21018081
:1012900036212180082101803A21218055210180B9
:1012A000B1212180B021018011210180B421218050
:1012B00002210180B621218000210180422101808C
:1012C0003B210180B7212180C6210180C0212180DE
:1012D000052101800180C12121804121018000215F
:1012E0000180C221218022210180C521218000218D
:1012F000018031210180802101801120208078200F
:10130000FFF788F82920208004490120C1F88001D6
:1013100070BD000000200140FE07006C00802142EB
:10132000F0B51D4616464A19521E93B28219521E36
:10133000002492B2059FFFF711FF0021DFF830C0B3
:1013400012E000200CE000BF07EB440317F8142064
:101350005B7843EA0222ACF80020401C80B2641C97
:10136000A842F1D3491C89B2B142EAD3F0BD0000D2
:101370000008006C00B587B01C216846FEF7FDFE32
:1013800017484FF0204110220160164941600621A4
:1013900081600021C160C0E904128161C161130252
:1013A0000162C0E90913C1620163416381630F20D7
:1013B000CDE9001002AB1E2083E807001120CDE923
:1013C0000501002269460648FFF782FC08B1FEF7D6
:1013D000F3FE0548C16941F48061C16107B000BDF9
:1013E00024000020040100A0000001402DE9F0438A
:1013F00085B000242C4800940194029403948169E0
:1014000041F010018161816901F01001049181694D
:1014100041F008018161816901F00801049181694D
:1014200041F480718161816901F480710491816965
:1014300041F040018161816901F0400104918169BD
:1014400041F020018161816901F0200104918169ED
:1014500041F0040181618069DFF8508000F00400F0
:101460000490002201214046FFF722F90122DFF813
:101470004090D70339464846FFF71AF9012503265D
:1014800003960095CDE9015469464046FFF714F8EC
:1014900000970396CDE9015469464846FFF70CF8DA
:1014A00005B0BDE8F083000000100240000C0140D0
:1014B000002001400C4810B50A4901604FF4E131A9
:1014C0004160002181600C22C160C0E90412816189
:1014D000C161FFF77DFD002803D0BDE81040FEF795
:1014E0006BBE10BD003801406C000020FEE7FEE737
:1014F0007047704710F0300F05484FF4F0714FF40B
:10150000A07202D001804280704702804180704703
:1015100018000020FFF7D8B830B58FB028216846F2
:10152000FEF72BFE14210AA8FEF727FE012108046E
:10153000CDE900100024029402250491CDE9075062
:101540004FF4E01009906846FFF732FA08B172B61E
:10155000FEE70F20CDE90A054FF48060CDE90C408D
:1015600002210AA80E94FFF747F9002801D072B6AD
:10157000FEE70FB030BD704710B5406A0021C1854D
:10158000C184FFF7EEFB10BD01680C3151E8002F5C
:1015900022F4907241E80023002BF5D10168143148
:1015A00051E8002F22F0010241E80023002BF5D181
:1015B000016B012909D101680C3151E8002F22F09B
:1015C000100241E80023002BF5D1202180F84210C1
:1015D00000210163704708B590F84210222901D01C
:1015E000022008BD82684FF480539A4201D10169FC
:1015F00021B1816A9A421BD04AB10AE00268816A2D
:101600005268C2F308020A80816A891C08E00269F4
:1016100072B10268526802F07F020A70816A491C46
:101620008162C18D491E0904090CC18503D01BE0EC
:1016300002685268F1E70168CA6822F02002CA60B5
:101640000168CA6822F48072CA6001684A6922F09F
:1016500001024A61202180F8421000214163026B9F
:10166000012A03D0FFF726FD002008BD01630168B1
:101670000C3151E8002F22F0100241E80023002B2A
:10168000F5D101680A68D20602D50A684968009156
:10169000818DFFF765FBE7E770B5044600680169D7
:1016A000E26821F44051114301612169A0680843B7
:1016B000616908432168CA6841F20C639A43024396
:1016C000CA6020684169A26921F4407111434161F7
:1016D0001E492068884202D1FFF734F901E0FFF784
:1016E00021F900EBC00101EB001260686421800069
:1016F000B2FBF0F3B3FBF1F36FF018067343B2FBE8
:10170000F0F5B2FBF0F605EB8305322303EB05158C
:10171000B5FBF1F5B6FBF1F605F0F00505EB0615A6
:10172000B2FBF0F6B2FBF0F0B0FBF1F06FF0180294
:10173000504306EB800003EB0010B0FBF1F0216892
:1017400000F00F002844886070BD000000380140A0
:101750002DE9F843984617460D460446089E24E0B6
:10176000701C22D0FEF7AAFFA0EB0800B0421AD8E6
:10177000CEB12068C168490717D5802D15D0402DFE
:1017800013D00168C94309070FD4016800254068D8
:1017900000902046FFF7F8FE0820606484F840506F
:1017A0000120BDE8F8830320FBE72068006835EAE4
:1017B000000004D00020B842D2D00020F1E7012080
:1017C000F9E700000148FFF7CDBA00006C000020E7
:1017D000FEE70000014A024900F023B8451800085E
:1017E000200000200907090E002804DB00F1E0209A
:1017F00080F80014704700F00F0000F1E02080F83E
:10180000141D704702E008C8121F08C1002AFAD14F
:1018100070477047002001E001C1121F002AFBD170
:1018200070472DE9F04116460F460446002503E0B7
:101830003946B047641C6D1C20780028F8D1284632
:10184000BDE8F08113B54FF6FF73012269460248E7
:10185000FFF731FC00981CBD6C00002008B5FEF7B6
:101860003BFFFFF759FEFFF7C1FDFFF723FEFFF730
:1018700081FD09A0FFF7AEFFFFF7AEFC4FF6FF704A
:10188000FFF788FC0A4800210090C82396220846EA
:10189000FFF746FDFEE7000053544D333220465318
:1018A0004D43204C43442048414C203A0A0000005C
:1018B000B4180008FFFFFFFFFFFFFFFFFFFFFFFF60
:1018C000FFFFFFFFFFFFFFFFFFFFFFFFFFFFFFFF28
:1018D000FFFFFFFFFFFFFFFFFFFFFFFFFFFFFFFF18
:1018E000FFFFFFFFFFFFFFFFFFFFFFFFFFFFFFFF08
:1018F000FFFFFFFFFFFFFFFFFFFFFFFFFFFFFFFFF8
:1022A000FFFFFFFFFFFFFFFFFFFFFFFFF7BFFFFF86
:1022B000FFFFFFFFFFFFFFFFFFFFFFFFFFFFFFFF2E
:1022C000FFFFFFFFFFFFFFFFFFFFFFFFFFFFFFFF1E
:1022D000FFFFFFFFFFFFFFFFFFFFFFFFFFFFFFFF0E
:1022E000FFFFFFFFFFFFFFFFFFFFFFFFFFFFFFFFFE
:1022F000FFFFFFFFFFFFFFFFFFFFFFFFFFFFFFFFEE
:10230000FFFFFFFFFFFFFFFFFFFFFFFFFFFFFFFFDD
:10231000FFFFFFFFFFFFFFFFFFFFFFFFFFFFFFFFCD
:10232000FFFFFFFFFFFFFFFFFFFFFFFFFFFFFFFFBD
:10233000FFFFFFFFFFFFFFFFFFFFFFFFFFFFFFFFAD
:10234000FFFFFFFFFFFFFFFFFFFFFFFFFFFFFFFF9D
:10235000FFFFFFFFFFFFFFFFFFFFFFFFFFFFFFFF8D
:10236000FFFFFFFFFFFFFFFFFFFFFFFFFFFFFFFF7D
:10237000FFFFFFFFFFFFFFFFFFFFFFFFFFFFFFFF6D
:10238000FFFFFFFFFFFFFFFFFFFFFFFFFFFFFFFF5D
:10239000FFFFFFFFFFFFFFFFFFFFFFFFFFFFFFFF4D
:1023A000FFFFFFFFFFFFFFFFFFFFFFFFFFFFFFFF3D
:1023B000FFFFFFFFFFFFFFFFFFFFFFFFFFFFFFFF2D
:1023C000FFFFFFFFFFFFFFFFFFFFFFFFFFFFFFFF1D
:1023D000FFFFFFFFFFFFFFFFFFFFFFFFFFBDDE98D7
:1023E000C5D6C5D6E71AFFDDFF9DFFBEFFFFFFFF85
:1023F000FFFFFFFFFFFFFFFFFFFFFFFFFFFFFFFFED
:10240000FFFFFFFFFFFFFFFFFFFFFFFFFFFFFFFFDC
:10241000FFFFFFFFFFFFFFFFFFFFFFFFFFFFFFFFCC
:10242000FFFFFFFFFFFFFFFFFFFFFFFFFFFFFFFFBC
:10243000FFFFFFFFFFFFFFFFFFFFFFFFFFFFFFFFAC
:10244000FFFFFFFFFFFFFFFFFFFFFFFFFFFFFFFF9C
:10245000FFFFFFFFFFFFFFFFFFFFFFFFFFFFFFFF8C
:10246000FFFFFFFFFFFFFFFFFFFFFFFFFFFFFFFF7C
:10247000FFFFFFFFFFFFFFFFFFFFFFFFFFFFFFFF6C
:10248000FFFFFFFFFFFFFFFFFFFFFFFFFFFFFFFF5C
:10249000FFFFFFFFFFFFFFFFFFFFFFFFFFFFFFFF4C
:1024A000FFFFFFFFFFFFFFFFFFFFFFFFFFFFFFFF3C
:1024B000FFFFFFFFFFFFFFFFFFFFFFFFFFFFFFFF2C
:1024C000FFFFFFFFFFFFFFFFFFFFFFFFFFFFFFFF1C
:1024D000FFFFFFFFFFFFFFFFFFFFFFFFFFFFFFFF0C
:1024E000FFFFFFFFFFFFFFFFFFFFFFFFFFFFFFFFFC
:1024F000FFFFFFFFFFFFFFFFFFFFFFFFFFFFFFFFEC
:10250000FFFFF77D9CB16AEA49C4496230C030E000
:10251000394252055A67732B8C0FF79DFFFFFFFF5F
:10252000FFFFFFFFFFFFFFFFFFFFFFFFFFFFFFFFBB
:10253000FFFFFFFFFFFFFFFFFFFFFFFFFFFFFFFFAB
:10254000FFFFFFFFFFFFFFFFFFFFFFFFFFFFFFFF9B
:10255000FFFFFFFFFFFFFFFFFFFFFFFFFFFFFFFF8B
:10256000FFFFFFFFFFFFFFFFFFFFFFFFFFFFFFFF7B
:10257000FFFFFFFFFFFFFFFFFFFFFFFFFFFFFFFF6B
:10258000FFFFFFFFFFFFFFFFFFFFFFFFFFFFFFFF5B
:10259000FFFFFFFFFFFFFFFFFFFFFFFFFFFFFFFF4B
:1025A000FFFFFFFFFFFFFFFFFFFFFFFFFFFFFFFF3B
:1025B000FFFFFFFFFFFFFFFFFFFFFFFFFFFFFFFF2B
:1025C000FFFFFFFFFFFFFFFFFFFFFFFFFFFFFFFF1B
:1025D000FFFFFFFFFFFFFFFFFFFFFFFFFFFFFFFF0B
:1025E000FFFFFFFFFFFFFFFFFFFFFFFFFFFFFFFFFB
:1025F000FFFFFFFFFFFFFFFFFFFFFFFFFFFFFFFFEB
:10260000FFFFFFFFFFFFFFFFFFFFFFFFFFFFFFFFDA
:10261000FFFFFFFFFFFFFFFFFFFFFFFFFFFFFFFFCA
:10262000FFDFFFFFFFFFFFFFFFFFFFFF9C9049C59C
:1026300030E130C0494161E36A246A2459E34962C8
:1026400049626226418462C9F79DFFFFFFFFFFFFD9
:10265000FFFFFFFFFFFFFFFFFFFFFFFFFFFFFFFF8A
:10266000FFFFFFFFFFFFFFFFFFFFFFFFFFFFFFFF7A
:10267000FFFFFFFFFFFFFFFFFFFFFFFFFFFFFFFF6A
:10268000FFFFFFFFFFFFFFFFFFFFFFFFFFFFFFFF5A
:10269000FFFFFFFFFFFFFFFFFFFFFFFFFFFFFFFF4A
:1026A000FFFFFFFFFFFFFFFFFFFFFFFFFFFFFFFF3A
:1026B000FFFFFFFFFFFFFFFFFFFFFFFFFFFFFFFF2A
:1026C000FFFFFFFFFFFFFFFFFFFFFFFFFFFFFFFF1A
:1026D000FFFFFFFFFFFFFFFFFFFFFFFFFFFFFFFF0A
:1026E000FFFFFFFFFFFFFFFFFFFFFFFFFFFFFFFFFA
:1026F000FFFFFFFFFFFFFFFFFFFFFFFFFFFFFFFFEA
:10270000FFFFFFFFFFFFFFFFFFFFFFFFFFFFFFFFD9
:10271000FFFFFFFFFFFFFFFFFFFFFFFFFFFFFFFFC9
:10272000FFFFFFFFFFFFFFFFFFFFFFFFFFFFFFFFB9
:10273000FFFFFFFFFFFFFFFFFFFFFFFFFFFFFFFFA9
:10274000FFFFFFFFFFFFFFFFFFFFFFFFFFFFFFFF99
:10275000FFDFFFFFFFDD836B49626A448B28A3CA5A
:10276000726561E37A867AA6728682E882E88309D6
:10277000A42E5A06BDB5FFFFFFFFFFFFFFFFFFFFBF
:10278000FFFFFFFFFFFFFFFFFFFFFFFFFFFFFFFF59
:10279000FFFFFFFFFFFFFFFFFFFFFFFFFFFFFFFF49
:1027A000FFFFFFFFFFFFFFFFFFFFFFFFFFFFFFFF39
:1027B000FFFFFFFFFFFFFFFFFFFFFFFFFFFFFFFF29
:1027C000FFFFFFFFFFFFFFFFFFFFFFFFFFFFFFFF19
:1027D000FFFFFFFFFFFFFFFFFFFFFFFFFFFFFFFF09
:1027E000FFFFFFFFFFFFFFFFFFFFFFFFFFFFFFFFF9
:1027F000FFFFFFFFFFFFFFFFFFFFFFFFFFFFFFFFE9
:10280000FFFFFFFFFFFFFFFFFFFFFFFFFFFFFFFFD8
:10281000FFFFFFFFFFFFFFFFFFFFFFFFFFFFFFFFC8
:10282000FFFFFFFFFFFFFFFFFFFFFFFFFFFFFFFFB8
:10283000FFFFFFFFFFFFFFFFFFFFFFFFFFFFFFFFA8
:10284000FFFFFFFFFFFFFFFFFFFFFFFFFFFFFFFF98
:10285000FFFFFFFFFFFFFFFFFFFFFFFFFFFFFFFF88
:10286000FFFFFFFFFFFFFFFFFFFFFFFFFFFFFFFF78
:10287000FFFFFFFFFFFFFFFFFFFFFFFFFFFFFFFF68
:102880009C4F39219B69A3898AE69B688B087265F6
:10289000722582C782E782C7934993098B298309EE
:1028A0008BEDFF9DFFFFFFFFFFFFFFDEFFFFFFFF41
:1028B000FFFFFFFFFFFFFFFFFFFFFFFFFFFFFFFF28
:1028C000FFFFFFFFFFFFFFFFFFFFFFFFFFFFFFFF18
:1028D000FFFFFFFFFFFFFFFFFFFFFFFFFFFFFFFF08
:1028E000FFFFFFFFFFFFFFFFFFFFFFFFFFFFFFFFF8
:1028F000FFFFFFFFFFFFFFFFFFFFFFFFFFFFFFFFE8
:10290000FFFFFFFFFFFFFFFFFFFFFFFFFFFFFFFFD7
:10291000FFFFFFFFFFFFFFFFFFFFFFFFFFFFFFFFC7
:10292000FFFFFFFFFFFFFFFFFFFFFFFFFFFFFFFFB7
:10293000FFFFFFFFFFFFFFFFFFFFFFFFFFFFFFFFA7
:10294000FFFFFFFFFFFFFFFFFFFFFFFFFFFFFFFF97
:10295000FFFFFFFFFFFFFFFFFFFFFFFFFFFFFFFF87
:10296000FFFFFFFFFFFFFFFFFFFFFFFFFFFFFFFF77
:10297000FFFFFFFFFFFFFFFFFFFFFFFFFFFFFFFF67
:10298000FFFFFFFFFFFFFFFFFFFFFFFFFFFFFFFF57
:10299000FFFFFFFFFFFFFFFFFFFFFFFFFFFFFFFF47
:1029A000FFFFFFFFFFFFFFFFFFFFD6BA59E4A40CB4
:1029B000BC6DA38993288AE793289B488AE88B08F3
:1029C00093498B088AE7A3AB8B29728649A3A4D1CC
:1029D000FFDFFFFFFFFFFFFFFFFFFFFFFFFFFFFF27
:1029E000FFFFFFFFFFFFFFFFFFFFFFFFFFFFFFFFF7
:1029F000FFFFFFFFFFFFFFFFFFFFFFFFFFFFFFFFE7
:102A0000FFFFFFFFFFFFFFFFFFFFFFFFFFFFFFFFD6
:102A1000FFFFFFFFFFFFFFFFFFFFFFFFFFFFFFFFC6
:102A2000FFFFFFFFFFFFFFFFFFFFFFFFFFFFFFFFB6
:102A3000FFFFFFFFFFFFFFFFFFFFFFFFFFFFFFFFA6
:102A4000FFFFFFFFFFFFFFFFFFFFFFFFFFFFFFFF96
:102A5000FFFFFFFFFFFFFFFFFFFFFFFFFFFFFFFF86
:102A6000FFFFFFFFFFFFFFFFFFFFFFFFFFFFFFFF76
:102A7000FFFFFFFFFFFFFFFFFFFFFFFFFFFFFFFF66
:102A8000FFFFFFFFFFFFFFFFFFFFFFFFFFFFFFFF56
:102A9000FFFFFFFFFFFFFFFFFFFFFFFFFFFFFFFF46
:102AA000FFFFFFFFFFFFFFFFFFFFFFFFFFFFFFFF36
:102AB000FFFFFFFFFFFFFFFFFFFFFFFFFFFFFFFF26
:102AC000FFFFFFFFFFFFFFFFFFFFFFFFFFFFFFFF16
:102AD000FFFFFFFFFFDE8C5030609BCBBCCFBCCF35
:102AE000A40C93699328A368A38AA3AAA3CBAC0BD5
:102AF0009B8A934993AB8B495A047B6BFFFFFFFF83
:102B0000FFFFFFFFFFFFFFFFFFFFFFFFFFFFFFFFD5
:102B1000FFFFFFFFFFFFFFFFFFFFFFFFFFFFFFFFC5
:102B2000FFFFFFFFFFFFFFFFFFFFFFFFFFFFFFFFB5
:102B3000FFFFFFFFFFFFFFFFFFFFFFFFFFFFFFFFA5
:102B4000FFFFFFFFFFFFFFFFFFFFFFFFFFFFFFFF95
:102B5000FFFFFFFFFFFFFFFFFFFFFFFFFFFFFFFF85
:102B6000FFFFFFFFFFFFFFFFFFFFFFFFFFFFFFFF75
:102B7000FFFFFFFFFFFFFFFFFFFFFFFFFFFFFFFF65
:102B8000FFFFFFFFFFFFFFFFFFFFFFFFFFFFFFFF55
:102B9000FFFFFFFFFFFFFFFFFFFFFFFFFFFFFFFF45
:102BA000FFFFFFFFFFFFFFFFFFFFFFFFFFFFFFFF35
:102BB000FFFFFFFFFFFFFFFFFFFFFFFFFFFFFFFF25
:102BC000FFFFFFFFFFFFFFFFFFFFFFFFFFFFFFFF15
:102BD000FFFFFFFFFFFFFFFFFFFFFFFFFFFFFFFF05
:102BE000FFFFFFFFFFFFFFFFFFFFFFFFFFFFFFFFF5
:102BF000FFFFFFFFFFFFFFFFFFFFFFFFFFFFFFFFE5
:102C0000FFFE7AE948C07A239327CCCED530B40CA6
:102C1000ABCBB40CABEBB42DB44EA3EC9BCA8B087E
:102C200082C8930A6A678BCDFFDFFFFFFFFFFFFFBC
:102C3000FFFFFFFFFFFFFFFFFFFFFFFFFFFFFFFFA4
:102C4000FFFFFFFFFFFFFFFFFFFFFFFFFFFFFFFF94
:102C5000FFFFFFFFFFFFFFFFFFFFFFFFFFFFFFFF84
:102C6000FFFFFFFFFFFFFFFFFFFFFFFFFFFFFFFF74
:102C7000FFFFFFFFFFFFFFFFFFFFFFFFFFFFFFFF64
:102C8000FFFFFFFFFFFFFFFFFFFFFFFFFFFFFFFF54
:102C9000FFFFFFFFFFFFFFFFFFFFFFFFFFFFFFFF44
:102CA000FFFFFFFFFFFFFFFFFFFFFFFFFFFFFFFF34
:102CB000FFFFFFFFFFFFFFFFFFFFFFFFFFFFFFFF24
:102CC000FFFFFFFFFFFFFFFFFFFFFFFFFFFFFFFF14
:102CD000FFFFFFFFFFFFFFFFFFFFFFFFFFFFFFFF04
:102CE000FFFFFFFFFFFFFFFFFFFFFFFFFFFFFFFFF4
:102CF000FFFFFFFFFFFFFFFFFFFFFFFFFFFFFFFFE4
:102D0000FFFFFFFFFFFFFFFFFFFFFFFFFFFFFFFFD3
:102D1000FFFFFFFFFFFFFFFFFFFFFFFFFFFFFFFFC3
:102D2000FFFFFFFFFFFFFFFFFFDFFFFFFFDE72A8D8
:102D300082C793088AC7ABAACCCFD4D0C46EBC2DAF
:102D4000C46DB42CB40CABEC93498AE782A68B0813
:102D50006A6683CDFFFFFFFFFFFFFFFFFFFFFFFF5F
:102D6000FFFFFFFFFFFFFFFFFFFFFFFFFFFFFFFF73
:102D7000FFFFFFFFFFFFFFFFFFFFFFFFFFFFFFFF63
:102D8000FFFFFFFFFFFFFFFFFFFFFFFFFFFFFFFF53
:102D9000FFFFFFFFFFFFFFFFFFFFFFFFFFFFFFFF43
:102DA000FFFFFFFFFFFFFFFFFFFFFFFFFFFFFFFF33
:102DB000FFFFFFFFFFFFFFFFFFFFFFFFFFFFFFFF23
:102DC000FFFFFFFFFFFFFFFFFFFFFFFFFFFFFFFF13
:102DD000FFFFFFFFFFFFFFFFFFFFFFFFFFFFFFFF03
:102DE000FFFFFFFFFFFFFFFFFFFFFFFFFFFFFFFFF3
:102DF000FFFFFFFFFFFFFFFFFFFFFFFFFFFFFFFFE3
:102E0000FFFFFFFFFFFFFFFFFFFFFFFFFFFFFFFFD2
:102E1000FFFFFFFFFFFFFFFFFFFFFFFFFFFFFFFFC2
:102E2000FFFFFFFFFFFFFFFFFFFFFFFFFFFFFFFFB2
:102E3000FFFFFFFFFFFFFFFFFFFFFFFFFFFFFFFFA2
:102E4000FFFFFFFFFFFFFFFFFFFFFFFFFFFFFFFF92
:102E5000FFFFFFFFFFFFFFFFDEFA6AA8A3CCBC4E17
:102E6000BC2DBBECC42DDCD0D4AFCC4DCC6DC42C70
:102E7000B3CBB3AA9B079B2892E79B287AA88BCD5C
:102E8000FFFFFFFFFFFFFFFFFFFFFFFFFFFFFFFF52
:102E9000FFFFFFFFFFFFFFFFFFFFFFFFFFFFFFFF42
:102EA000FFFFFFFFFFFFFFFFFFFFFFFFFFFFFFFF32
:102EB000FFFFFFFFFFFFFFFFFFFFFFFFFFFFFFFF22
:102EC000FFFFFFFFFFFFFFFFFFFFFFFFFFFFFFFF12
:102ED000FFFFFFFFFFFFFFFFFFFFFFFFFFFFFFFF02
:102EE000FFFFFFFFFFFFFFFFFFFFFFFFFFFFFFFFF2
:102EF000FFFFFFFFFFFFFFFFFFFFFFFFFFFFFFFFE2
:102F0000FFFFFFFFFFFFFFFFFFFFFFFFFFFFFFFFD1
:102F1000FFFFFFFFFFFFFFFFFFFFFFFFFFFFFFFFC1
:102F2000FFFFFFFFFFFFFFFFFFFFFFFFFFFFFFFFB1
:102F3000FFFFFFFFFFFFFFFFFFFFFFFFFFFFFFFFA1
:102F4000FFFFFFFFFFFFFFFFFFFFFFFFFFFFFFFF91
:102F5000FFFFFFFFFFFFFFFFFFFFFFFFFFFFFFFF81
:102F6000FFFFFFFFFFFFFFFFFFFFFFFFFFFFFFFF71
:102F7000FFFFFFFFFFFFFFFFFFFFFFDFFFFFFFFF81
:102F8000FFFFFFFFDED99C0DBCB0C48FD4AFED3185
:102F9000E510DCAFD48FDC8ED44DD46ECC0CC3AB3B
:102FA000AB49A3089AC7AB49934A83ACF7BEFFFF6E
:102FB000FFFFFFFFFFFFFFFFFFFFFFFFFFFFFFFF21
:102FC000FFFFFFFFFFFFFFFFFFFFFFFFFFFFFFFF11
:102FD000FFFFFFFFFFFFFFFFFFFFFFFFFFFFFFFF01
:102FE000FFFFFFFFFFFFFFFFFFFFFFFFFFFFFFFFF1
:102FF000FFFFFFFFFFFFFFFFFFFFFFFFFFFFFFFFE1
:10300000FFFFFFFFFFFFFFFFFFFFFFFFFFFFFFFFD0
:10301000FFFFFFFFFFFFFFFFFFFFFFFFFFFFFFFFC0
:10302000FFFFFFFFFFFFFFFFFFFFFFFFFFFFFFFFB0
:10303000FFFFFFFFFFFFFFFFFFFFFFFFFFFFFFFFA0
:10304000FFFFFFFFFFFFFFFFFFFFFFFFFFFFFFFF90
:10305000FFFFFFFFFFFFFFFFFFFFFFFFFFFFFFFF80
:10306000FFFFFFFFFFFFFFFFFFFFFFFFFFFFFFFF70
:10307000FFFFFFFFFFFFFFFFFFFFFFFFFFFFFFFF60
:10308000FFFFFFFFFFFFFFFFFFFFFFFFFFFFFFFF50
:10309000FFFFFFFFFFFFFFFFFFFFFFFFFFFFFFFF40
:1030A000FFFFFFFFFFFFFFFFFFFFFFFFFFDFFFFF50
:1030B000EF5CC553CD32DD52DD10E530E530ED512A
:1030C000ED72ECF0D42EDC8FE4F0DC8FCC4EB38BC1
:1030D00092A7A308A3AC72EAE71BFFFFFFDFFFFF85
:1030E000FFFFFFFFFFFFFFFFFFFFFFFFFFFFFFFFF0
:1030F000FFFFFFFFFFFFFFFFFFFFFFFFFFFFFFFFE0
:10310000FFFFFFFFFFFFFFFFFFFFFFFFFFFFFFFFCF
:10311000FFFFFFFFFFFFFFFFFFFFFFFFFFFFFFFFBF
:10312000FFFFFFFFFFFFFFFFFFFFFFFFFFFFFFFFAF
:10313000FFFFFFFFFFFFFFFFFFFFFFFFFFFFFFFF9F
:10314000FFFFFFFFFFFFFFFFFFFFFFFFFFFFFFFF8F
:10315000FFFFFFFFFFFFFFFFFFFFFFFFFFFFFFFF7F
:10316000FFFFFFFFFFFFFFFFFFFFFFFFFFFFFFFF6F
:10317000FFFFFFFFFFFFFFFFFFFFFFFFFFFFFFFF5F
:10318000FFFFFFFFFFFFFFFFFFFFFFFFFFFFFFFF4F
:10319000FFFFFFFFFFFFFFFFFFFFFFFFFFFFFFFF3F
:1031A000FFFFFFFFFFFFFFFFFFFFFFFFFFFFFFFF2F
:1031B000FFFFFFFFFFFFFFFFFFFFFFFFFFFFFFFF1F
:1031C000FFFFFFFFFFFFFFFFFFFFFFFFFFFFFFFF0F
:1031D000FFFFFFFFFFFFFFFFFFFFFFFFD638A3ED5D
:1031E000D551E572D4AFD4AED4EFD4CFDD11ED110B
:1031F000DCD0E511ED93D4D0CCB0C48FA38A828605
:10320000A3CC6247A533FFFFFFFFFFFFFFFFFFFFD8
:10321000FFFFFFFFFFFFFFFFFFFFFFFFFFFFFFFFBE
:10322000FFFFFFFFFFFFFFFFFFFFFFFFFFFFFFFFAE
:10323000FFFFFFFFFFFFFFFFFFFFFFFFFFFFFFFF9E
:10324000FFFFFFFFFFFFFFFFFFFFFFFFFFFFFFFF8E
:10325000FFFFFFFFFFFFFFFFFFFFFFFFFFFFFFFF7E
:10326000FFFFFFFFFFFFFFFFFFFFFFFFFFFFFFFF6E
:10327000FFFFFFFFFFFFFFFFFFFFFFFFFFFFFFFF5E
:10328000FFFFFFFFFFFFFFFFFFFFFFFFFFFFFFFF4E
:10329000FFFFFFFFFFFFFFFFFFFFFFFFFFFFFFFF3E
:1032A000FFFFFFFFFFFFFFFFFFFFFFFFFFFFFFFF2E
:1032B000FFFFFFFFFFFFFFFFFFFFFFFFFFFFFFFF1E
:1032C000FFFFFFFFFFFFFFFFFFFFFFFFFFFFFFFF0E
:1032D000FFFFFFFFFFFFFFFFFFFFFFFFFFFFFFFFFE
:1032E000FFFFFFFFFFFFFFFFFFFFFFFFFFFFFFFFEE
:1032F000FFFFFFFFFFFFFFFFFFFFFFFFFFFFFFFFDE
:10330000FFFFFFFEFFFFFFDF9C9161E5CCF0D4CF14
:10331000CC4DD4D0D532C4B0CC8FD490ED12D49053
:10332000BC0DB42EB42EBC8FBC4E82A6930951E5C1
:103330009C91FFFFFFFFFFFFFFFFFFFFFFFFFFFF6E
:10334000FFFFFFFFFFFFFFFFFFFFFFFFFFFFFFFF8D
:10335000FFFFFFFFFFFFFFFFFFFFFFFFFFFFFFFF7D
:10336000FFFFFFFFFFFFFFFFFFFFFFFFFFFFFFFF6D
:10337000FFFFFFFFFFFFFFFFFFFFFFFFFFFFFFFF5D
:10338000FFFFFFFFFFFFFFFFFFFFFFFFFFFFFFFF4D
:10339000FFFFFFFFFFFFFFFFFFFFFFFFFFFFFFFF3D
:1033A000FFFFFFFFFFFFFFFFFFFFFFFFFFFFFFFF2D
:1033B000FFFFFFFFFFFFFFFFFFFFFFFFFFFFFFFF1D
:1033C000FFFFFFFFFFFFFFFFFFFFFFFFFFFFFFFF0D
:1033D000FFFFFFFFFFFFFFFFFFFFFFFFFFFFFFFFFD
:1033E000FFFFFFFFFFFFFFFFFFFFFFFFFFFFFFFFED
:1033F000FFFFFFFFFFFFFFFFFFFFFFFFFFFFFFFFDD
:10340000FFFFFFFFFFFFFFFFFFFFFFFFFFFFFFFFCC
:10341000FFFFFFFFFFFFFFFFFFFFFFFFFFFFFFFFBC
:10342000FFFFFFFFFFFFFFFFFFFFFFFFFFFFFFFFAC
:10343000FFDFFFFFC5959B4BCCAECC8ED48EDD322B
:10344000CD12B470C490DCD1FD54C40E92A8C4B0A7
:10345000C490ABCCC44E9B29722651C5CE58FFFFF9
:10346000FFFFFFFFFFFFFFFFFFFFFFFFFFFFFFFF6C
:10347000FFFFFFFFFFFFFFFFFFFFFFFFFFFFFFFF5C
:10348000FFFFFFFFFFFFFFFFFFFFFFFFFFFFFFFF4C
:10349000FFFFFFFFFFFFFFFFFFFFFFFFFFFFFFFF3C
:1034A000FFFFFFFFFFFFFFFFFFFFFFFFFFFFFFFF2C
:1034B000FFFFFFFFFFFFFFFFFFFFFFFFFFFFFFFF1C
:1034C000FFFFFFFFFFFFFFFFFFFFFFFFFFFFFFFF0C
:1034D000FFFFFFFFFFFFFFFFFFFFFFFFFFFFFFFFFC
:1034E000FFFFFFFFFFFFFFFFFFFFFFFFFFFFFFFFEC
:1034F000FFFFFFFFFFFFFFFFFFFFFFFFFFFFFFFFDC
:10350000FFFFFFFFFFFFFFFFFFFFFFFFFFFFFFFFCB
:10351000FFFFFFFFFFFFFFFFFFFFFFFFFFFFFFFFBB
:10352000FFFFFFFFFFFFFFFFFFFFFFFFFFFFFFFFAB
:10353000FFFFFFFFFFFFFFFFFFFFFFFFFFFFFFFF9B
:10354000FFFFFFFFFFFFFFFFFFFFFFFFFFFFFFFF8B
:10355000FFFFFFFFFFDFFFFFFFFFFFFFFFFFFFFF9B
:10356000F6FBD4B2CC4EC40CD4F0DD52E5B4E55336
:10357000E512E553F533CBEC9AA7CC8EF5D3E4F006
:10358000C3CB9AA779E382EAFFBFFFFFFFFFFFFFEC
:10359000FFFFFFFFFFFFFFFFFFFFFFFFFFFFFFFF3B
:1035A000FFFFFFFFFFFFFFFFFFFFFFFFFFFFFFFF2B
:1035B000FFFFFFFFFFFFFFFFFFFFFFFFFFFFFFFF1B
:1035C000FFFFFFFFFFFFFFFFFFFFFFFFFFFFFFFF0B
:1035D000FFFFFFFFFFFFFFFFFFFFFFFFFFFFFFFFFB
:1035E000FFFFFFFFFFFFFFFFFFFFFFFFFFFFFFFFEB
:1035F000FFFFFFFFFFFFFFFFFFFFFFFFFFFFFFFFDB
:10360000FFFFFFFFFFFFFFFFFFFFFFFFFFFFFFFFCA
:10361000FFFFFFFFFFFFFFFFFFFFFFFFFFFFFFFFBA
:10362000FFFFFFFFFFFFFFFFFFFFFFFFFFFFFFFFAA
:10363000FFFFFFFFFFFFFFFFFFFFFFFFFFFFFFFF9A
:10364000FFFFFFFFFFFFFFFFFFFFFFFFFFFFFFFF8A
:10365000FFFFFFFFFFFFFFFFFFFFFFFFFFFFFFFF7A
:10366000FFFFFFFFFFFFFFFFFFFFFFFFFFFFFFFF6A
:10367000FFFFFFFFFFFFFFFFFFFFFFFFFFFFFFFF5A
:10368000FFFFFFFFFFFFFFFFFFFFFFFFF73BD4F24E
:10369000CC6FBBCBE530ED92CC8FDC90ED53DD13DE
:1036A000ED13D44FA2A8BB6BE490EC8FC36AA2A722
:1036B00082049BADFFFFFFFFFFFFFFFFFFFFFFFF48
:1036C000FFFFFFFFFFFFFFFFFFFFFFFFFFFFFFFF0A
:1036D000FFFFFFFFFFFFFFFFFFFFFFFFFFFFFFFFFA
:1036E000FFFFFFFFFFFFFFFFFFFFFFFFFFFFFFFFEA
:1036F000FFFFFFFFFFFFFFFFFFFFFFFFFFFFFFFFDA
:10370000FFFFFFFFFFFFFFFFFFFFFFFFFFFFFFFFC9
:10371000FFFFFFFFFFFFFFFFFFFFFFFFFFFFFFFFB9
:10372000FFFFFFFFFFFFFFFFFFFFFFFFFFFFFFFFA9
:10373000FFFFFFFFFFFFFFFFFFFFFFFFFFFFFFFF99
:10374000FFFFFFFFFFFFFFFFFFFFFFFFFFFFFFFF89
:10375000FFFFFFFFFFFFFFFFFFFFFFFFFFFFFFFF79
:10376000FFFFFFFFFFFFFFFFFFFFFFFFFFFFFFFF69
:10377000FFFFFFFFFFFFFFFFFFFFFFFFFFFFFFFF59
:10378000FFFFFFFFFFFFFFFFFFFFFFFFFFFFFFFF49
:10379000FFFFFFFFFFFFFFFFFFFFFFFFFFFFFFFF39
:1037A000FFFFFFFFFFFFFFFFFFFFFFFFFFFFFFFF29
:1037B000FFFFFFFFFFFFFFFFFF9DD534CC6FC3CCA2
:1037C000E4CFF572ED11ECF1ECF1D490E513DCB13E
:1037D000A2A8BB6BECF1FD51CBCB92466983AC50F8
:1037E000FFDFFFFFFFFEFFFFFFFFFFFFFFFFFFFF0A
:1037F000FFFFFFFFFFFFFFFFFFFFFFFFFFFFFFFFD9
:10380000FFFFFFFFFFFFFFFFFFFFFFFFFFFFFFFFC8
:10381000FFFFFFFFFFFFFFFFFFFFFFFFFFFFFFFFB8
:10382000FFFFFFFFFFFFFFFFFFFFFFFFFFFFFFFFA8
:10383000FFFFFFFFFFFFFFFFFFFFFFFFFFFFFFFF98
:10384000FFFFFFFFFFFFFFFFFFFFFFFFFFFFFFFF88
:10385000FFFFFFFFFFFFFFFFFFFFFFFFFFFFFFFF78
:10386000FFFFFFFFFFFFFFFFFFFFFFFFFFFFFFFF68
:10387000FFFFFFFFFFFFFFFFFFFFFFFFFFFFFFFF58
:10388000FFFFFFFFFFFFFFFFFFFFFFFFFFFFFFFF48
:10389000FFFFFFFFFFFFFFFFFFFFFFFFFFFFFFFF38
:1038A000FFFFFFFFFFFFFFFFFFFFFFFFFFFFFFFF28
:1038B000FFFFFFFFFFFFFFFFFFFFFFFFFFFFFFFF18
:1038C000FFFFFFFFFFFFFFFFFFFFFFFFFFFFFFFF08
:1038D000FFFFFFFFFFFFFFFFFFFFFFFFFFFFFFFFF8
:1038E000FFFFFFFFFFBECD75DCF1C3ECCBECF59322
:1038F000FE77DC8FBB6BCBEDED53FDD5B36B924701
:10390000BB6BEC8FCBCB82056184DE17FFFFFFFF23
:10391000FFFFFFFFFFFFFFFFFFFFFFFFFFFFFFFFB7
:10392000FFFFFFFFFFFFFFFFFFFFFFFFFFFFFFFFA7
:10393000FFFFFFFFFFFFFFFFFFFFFFFFFFFFFFFF97
:10394000FFFFFFFFFFFFFFFFFFFFFFFFFFFFFFFF87
:10395000FFFFFFFFFFFFFFFFFFFFFFFFFFFFFFFF77
:10396000FFFFFFFFFFFFFFFFFFFFFFFFFFFFFFFF67
:10397000FFFFFFFFFFFFFFFFFFFFFFFFFFFFFFFF57
:10398000FFFFFFFFFFFFFFFFFFFFFFFFFFFFFFFF47
:10399000FFFFFFFFFFFFFFFFFFFFFFFFFFFFFFFF37
:1039A000FFFFFFFFFFFFFFFFFFFFFFFFFFFFFFFF27
:1039B000FFFFFFFFFFFFFFFFFFFFFFFFFFFFFFFF17
:1039C000FFFFFFFFFFFFFFFFFFFFFFFFFFFFFFFF07
:1039D000FFFFFFFFFFFFFFFFFFFFFFFFFFFFFFFFF7
:1039E000FFFFFFFFFFFFFFFFFFFFFFFFFFFFFFFFE7
:1039F000FFFFFFFFFFFFFFFFFFFFFFFFFFFFFFFFD7
:103A0000FFFFFFFFFFFFFFFFFFFFFFFFFFFFFFFFC6
:103A1000FFDEDE58A3ACB3CBD48EDCD0C42EC3CC37
:103A2000ED11DCD0ECF2E4D0AB2AB36BD40DC36A59
:103A3000BB499247AC90FFFEFFFFFFFFFFFFFFFF78
:103A4000FFDFFFFFFFFFFFFFFFFFFFFFFFFFFFFFA6
:103A5000FFFFFFFFFFFFFFFFFFFFFFFFFFFFFFFF76
:103A6000FFFFFFFFFFFFFFFFFFFFFFFFFFFFFFFF66
:103A7000FFFFFFFFFFFFFFFFFFFFFFFFFFFFFFFF56
:103A8000FFFFFFFFFFFFFFFFFFFFFFFFFFFFFFFF46
:103A9000FFFFFFFFFFFFFFFFFFFFFFFFFFFFFFFF36
:103AA000FFFFFFFFFFFFFFFFFFFFFFFFFFFFFFFF26
:103AB000FFFFFFFFFFFFFFFFFFFFFFFFFFFFFFFF16
:103AC000FFFFFFFFFFFFFFFFFFFFFFFFFFFFFFFF06
:103AD000FFFFFFFFFFFFFFFFFFFFFFFFFFFFFFFFF6
:103AE000FFFFFFFFFFFFFFFFFFFFFFFFFFFFFFFFE6
:103AF000FFFFFFFFFFFFFFFFFFFFFFFFFFFFFFFFD6
:103B0000FFFFFFFFFFFFFFFFFFFFFFFFFFFFFFFFC5
:103B1000FFFFFFFFFFFFFFFFFFFFFFFFFFFFFFFFB5
:103B2000FFFFFFFFFFFFFFFFFFFFFFFFFFFFFFFFA5
:103B3000FFFFFFFFFFFFFFFFFFFFFFFFFFFFFFBED6
:103B4000DE78B46FD48ED44DBBABDCAFED73DD94B7
:103B5000DCF1C42EABCCABCCC40CDC6DE4AF9AE989
:103B6000E6D9FFFFF7FFFFFFFFFFFFFFFFFFFFFFAC
:103B7000FFFFFFFFFFFFFFFFFFFFFFFFFFFFFFFF55
:103B8000FFFFFFFFFFFFFFFFFFFFFFFFFFFFFFFF45
:103B9000FFFFFFFFFFFFFFFFFFFFFFFFFFFFFFFF35
:103BA000FFFFFFFFFFFFFFFFFFFFFFFFFFFFFFFF25
:103BB000FFFFFFFFFFFFFFFFFFFFFFFFFFFFFFFF15
:103BC000FFFFFFFFFFFFFFFFFFFFFFFFFFFFFFFF05
:103BD000FFFFFFFFFFFFFFFFFFFFFFFFFFFFFFFFF5
:103BE000FFFFFFFFFFFFFFFFFFFFFFFFFFFFFFFFE5
:103BF000FFFFFFFFFFFFFFFFFFFFFFFFFFFFFFFFD5
:103C0000FFFFFFFFFFFFFFFFFFFFFFFFFFFFFFFFC4
:103C1000FFFFFFFFFFFFFFFFFFFFFFFFFFFFFFFFB4
:103C2000FFFFFFFFFFFFFFFFFFFFFFFFFFFFFFFFA4
:103C3000FFFFFFFFFFFFFFFFFFFFFFFFFFFFFFFF94
:103C4000FFFFFFFFFFFFFFFFFFFFFFFFFFFFFFFF84
:103C5000FFFFFFFFFFFFFFFFFFFFFFFFFFFFFFFF74
:103C6000FFFFFFFFFFFFFFFFFFFFFFFFFFFFE63646
:103C7000C42DF551ED10CC4DC490E5F7E637DE16B6
:103C8000EE57A3EDA36AFD92E5308AE9DED9FFFF86
:103C9000FFFFFFFFFFDFFFFFFFFFFFFFFFFFFFFF54
:103CA000FFFFFFFFFFFFFFFFFFFFFFFFFFFFFFFF24
:103CB000FFFFFFFFFFFFFFFFFFFFFFFFFFFFFFFF14
:103CC000FFFFFFFFFFFFFFFFFFFFFFFFFFFFFFFF04
:103CD000FFFFFFFFFFFFFFFFFFFFFFFFFFFFFFFFF4
:103CE000FFFFFFFFFFFFFFFFFFFFFFFFFFFFFFFFE4
:103CF000FFFFFFFFFFFFFFFFFFFFFFFFFFFFFFFFD4
:103D0000FFFFFFFFFFFFFFFFFFFFFFFFFFFFFFFFC3
:103D1000FFFFFFFFFFFFFFFFFFFFFFFFFFFFFFFFB3
:103D2000FFFFFFFFFFFFFFFFFFFFFFFFFFFFFFFFA3
:103D3000FFFFFFFFFFFFFFFFFFFFFFFFFFFFFFFF93
:103D4000FFFFFFFFFFFFFFFFFFFFFFFFFFFFFFFF83
:103D5000FFFFFFFFFFFFFFFFFFFFFFFFFFFFFFFF73
:103D6000FFFFFFFFFFFFFFFFFFFFFFFFFFFFFFFF63
:103D7000FFFFFFFFFFFFFFFFFFFFFFFFFFFFFFFF53
:103D8000FFFFFFFFFFFFFFFFFFFFFFFFFFFFFFFF43
:103D9000FFFFFFFFFFFFFFFFFFFFDE16B3ACF57273
:103DA000E511F5B3E594DDB6DE79EE99D595ABCEA8
:103DB000CC2EFD71D48E9B4BFFDDFFFFFFFFFFFF7D
:103DC000FFFFFFFFFFFFFFFFFFFFFFFFFFFFFFFF03
:103DD000FFFFFFFFFFFFFFFFFFFFFFFFFFFFFFFFF3
:103DE000FFFFFFFFFFFFFFFFFFFFFFFFFFFFFFFFE3
:103DF000FFFFFFFFFFFFFFFFFFFFFFFFFFFFFFFFD3
:103E0000FFFFFFFFFFFFFFFFFFFFFFFFFFFFFFFFC2
:103E1000FFFFFFFFFFFFFFFFFFFFFFFFFFFFFFFFB2
:103E2000FFFFFFFFFFFFFFFFFFFFFFFFFFFFFFFFA2
:103E3000FFFFFFFFFFFFFFFFFFFFFFFFFFFFFFFF92
:103E4000FFFFFFFFFFFFFFFFFFFFFFFFFFFFFFFF82
:103E5000FFFFFFFFFFFFFFFFFFFFFFFFFFFFFFFF72
:103E6000FFFFFFFFFFFFFFFFFFFFFFFFFFFFFFFF62
:103E7000FFFFFFFFFFFFFFFFFFFFFFFFFFFFFFFF52
:103E8000FFFFFFFFFFFFFFFFFFFFFFFFFFFFFFFF42
:103E9000FFFFFFFFFFFFFFFFFFFFFFFFFFFFFFFF32
:103EA000FFFFFFFFFFFFFFFFFFFFFFFFFFFFFFFF22
:103EB000FFFFFFFFFFFFFFFFFFFFFFFFFFDFFFFF32
:103EC000FFFFFFFFFFBF5A89A3EDED11FD92ED113A
:103ED000F512F574DD31CC4FBB8BC42CD46CE4CF20
:103EE000ABACCD95FFFFFFFFFFFFFFFFFFFFFFFF25
:103EF000FFFFFFFFFFFFFFFFFFFFFFFFFFFFFFFFD2
:103F0000FFFFFFFFFFFFFFFFFFFFFFFFFFFFFFFFC1
:103F1000FFFFFFFFFFFFFFFFFFFFFFFFFFFFFFFFB1
:103F2000FFFFFFFFFFFFFFFFFFFFFFFFFFFFFFFFA1
:103F3000FFFFFFFFFFFFFFFFFFFFFFFFFFFFFFFF91
:103F4000FFFFFFFFFFFFFFFFFFFFFFFFFFFFFFFF81
:103F5000FFFFFFFFFFFFFFFFFFFFFFFFFFFFFFFF71
:103F6000FFFFFFFFFFFFFFFFFFFFFFFFFFFFFFFF61
:103F7000FFFFFFFFFFFFFFFFFFFFFFFFFFFFFFFF51
:103F8000FFFFFFFFFFFFFFFFFFFFFFFFFFFFFFFF41
:103F9000FFFFFFFFFFFFFFFFFFFFFFFFFFFFFFFF31
:103FA000FFFFFFFFFFFFFFFFFFFFFFFFFFFFFFFF21
:103FB000FFFFFFFFFFFFFFFFFFFFFFFFFFFFFFFF11
:103FC000FFFFFFFFFFFFFFFFFFFFFFFFFFFFFFFF01
:103FD000FFFFFFFFFFFFFFFFFFFFFFFFFFFFFFFFF1
:103FE000FFFFFFFFFFFFFFDFFFFFFFFFFFDFC61940
:103FF000318652AADDB5CC4FF5B3ED71E4D0E49033
:10400000E46FE44FCBACCBEBCBEBD46E8B4AF7BD7C
:10401000FFFFFFFFFFDFFFFFFFFFFFFFFFFFFFFFD0
:10402000FFFFFFFFFFFFFFFFFFFFFFFFFFFFFFFFA0
:10403000FFFFFFFFFFFFFFFFFFFFFFFFFFFFFFFF90
:10404000FFFFFFFFFFFFFFFFFFFFFFFFFFFFFFFF80
:10405000FFFFFFFFFFFFFFFFFFFFFFFFFFFFFFFF70
:10406000FFFFFFFFFFFFFFFFFFFFFFFFFFFFFFFF60
:10407000FFFFFFFFFFFFFFFFFFFFFFFFFFFFFFFF50
:10408000FFFFFFFFFFFFFFFFFFFFFFFFFFFFFFFF40
:10409000FFFFFFFFFFFFFFFFFFFFFFFFFFFFFFFF30
:1040A000FFFFFFFFFFFFFFFFFFFFFFFFFFFFFFFF20
:1040B000FFFFFFFFFFFFFFFFFFFFFFFFFFFFFFFF10
:1040C000FFFFFFFFFFFFFFFFFFFFFFFFFFFFFFFF00
:1040D000FFFFFFFFFFFFFFFFFFFFFFFFFFFFFFFFF0
:1040E000FFFFFFFFFFFFFFFFFFFFFFFFFFFFFFFFE0
:1040F000FFFFFFFFFFFFFFFFFFFFFFFFFFFFFFDFF0
:10410000FFFFFFFFFFFFFFFFFFFFFFFFFFFFFFFFBF
:10411000FFDFFFFFD6BB73AF2987088300016C0F59
:10412000FFFEB3EED4D0DD71DD71E510F532F5326E
:10413000D46EB328BBAACCD049A54A69D69AFFFF52
:10414000FFFFFFFFFFFFFFFFFFFFFFFFFFFFFFFF7F
:10415000FFFFFFFFFFFFFFFFFFFFFFFFFFFFFFFF6F
:10416000FFFFFFFFFFFFFFFFFFFFFFFFFFFFFFFF5F
:10417000FFFFFFFFFFFFFFFFFFFFFFFFFFFFFFFF4F
:10418000FFFFFFFFFFFFFFFFFFFFFFFFFFFFFFFF3F
:10419000FFFFFFFFFFFFFFFFFFFFFFFFFFFFFFFF2F
:1041A000FFFFFFFFFFFFFFFFFFFFFFFFFFFFFFFF1F
:1041B000FFFFFFFFFFFFFFFFFFFFFFFFFFFFFFFF0F
:1041C000FFFFFFFFFFFFFFFFFFFFFFFFFFFFFFFFFF
:1041D000FFFFFFFFFFFFFFFFFFFFFFFFFFFFFFFFEF
:1041E000FFFFFFFFFFFFFFFFFFFFFFFFFFFFFFFFDF
:1041F000FFFFFFFFFFFFFFFFFFFFFFFFFFFFFFFFCF
:10420000FFFFFFFFFFFFFFFFFFFFFFFFFFFFFFFFBE
:10421000FFFFFFFFFFFFFFFFFFFFFFFFFFFFFFFFAE
:10422000FFFFFFFFFFFFFFFFFFFFFFFFFFFFFFFF9E
:10423000FFFFFFFFFFFFFFFFFFDFFFFFC618632D3C
:1042400010C40001088329A721472987FFFFEF1A1F
:10425000AC4FCC6FD4AFDD51E532E511CC4EA309A4
:1042600092C7CD329C70000000004A49A514EF7D32
:10427000FFFFFFFFFFFFFFFFFFFFFFFFFFFFFFFF4E
:10428000FFFFFFFFFFFFFFFFFFFFFFFFFFFFFFFF3E
:10429000FFFFFFFFFFFFFFFFFFFFFFFFFFFFFFFF2E
:1042A000FFFFFFFFFFFFFFFFFFFFFFFFFFFFFFFF1E
:1042B000FFFFFFFFFFFFFFFFFFFFFFFFFFFFFFFF0E
:1042C000FFFFFFFFFFFFFFFFFFFFFFFFFFFFFFFFFE
:1042D000FFFFFFFFFFFFFFFFFFFFFFFFFFFFFFFFEE
:1042E000FFFFFFFFFFFFFFFFFFFFFFFFFFFFFFFFDE
:1042F000FFFFFFFFFFFFFFFFFFFFFFFFFFFFFFFFCE
:10430000FFFFFFFFFFFFFFFFFFFFFFFFFFFFFFFFBD
:10431000FFFFFFFFFFFFFFFFFFFFFFFFFFFFFFFFAD
:10432000FFFFFFFFFFFFFFFFFFFFFFFFFFFFFFFF9D
:10433000FFFFFFFFFFFFFFFFFFFFFFFFFFFFFFFF8D
:10434000FFFFFFFFFFFFFFFFFFFFFFFFFFFFFFFF7D
:10435000FFFFFFFFFFFFFFFFF7DFFFFFFFFFFFFF95
:10436000FFFFD69A8C92420800210001212629875E
:1043700031C831E929C91063B596FFFFEF3CBC5144
:10438000B36DD44FCC0FB36DA2EA8A88AC4FFF9CBB
:10439000AD75000000000000000018C3632DC618B2
:1043A000FFFFFFFFFFFFFFFFF7BEFFFFFFFFFFFF66
:1043B000FFFFFFFFFFFFFFFFFFFFFFFFFFFFFFFF0D
:1043C000FFFFFFFFFFFFFFFFFFFFFFFFFFFFFFFFFD
:1043D000FFFFFFFFFFFFFFFFFFFFFFFFFFFFFFFFED
:1043E000FFFFFFFFFFFFFFFFFFFFFFFFFFFFFFFFDD
:1043F000FFFFFFFFFFFFFFFFFFFFFFFFFFFFFFFFCD
:10440000FFFFFFFFFFFFFFFFFFFFFFFFFFFFFFFFBC
:10441000FFFFFFFFFFFFFFFFFFFFFFFFFFFFFFFFAC
:10442000FFFFFFFFFFFFFFFFFFFFFFFFFFFFFFFF9C
:10443000FFFFFFFFFFFFFFFFFFFFFFFFFFFFFFFF8C
:10444000FFFFFFFFFFFFFFFFFFFFFFFFFFFFFFFF7C
:10445000FFFFFFFFFFFFFFFFFFFFFFFFFFFFFFFF6C
:10446000FFFFFFFFFFFFFFFFFFFFFFFFFFFFFFFF5C
:10447000FFFFFFFFFFFFFFFFFFFFFFFFFFFFFFFF4C
:10448000FFFFFFFFFFFFDEFCAD557BF03A0810A3F6
:1044900000010042214631C82987298831C831C925
:1044A00039EA08846BAFFFFFFFFFFFBEC5959B8D08
:1044B000A36CA3AD938CC594FFFEF79D8C510000B7
:1044C000108218E410C300210000000021456B4D4C
:1044D000B5B6FFFFFFFFFFFFFFFFFFFFFFFFFFFF7F
:1044E000FFFFFFFFFFFFFFFFFFFFFFFFFFFFFFFFDC
:1044F000FFFFFFFFFFFFFFFFFFFFFFFFFFFFFFFFCC
:10450000FFFFFFFFFFFFFFFFFFFFFFFFFFFFFFFFBB
:10451000FFFFFFFFFFFFFFFFFFFFFFFFFFFFFFFFAB
:10452000FFFFFFFFFFFFFFFFFFFFFFFFFFFFFFFF9B
:10453000FFFFFFFFFFFFFFFFFFFFFFFFFFFFFFFF8B
:10454000FFFFFFFFFFFFFFFFFFFFFFFFFFFFFFFF7B
:10455000FFFFFFFFFFFFFFFFFFFFFFFFFFFFFFFF6B
:10456000FFFFFFFFFFFFFFFFFFFFFFFFFFFFFFFF5B
:10457000FFFFFFFFFFFFFFFFFFFFFFFFFFFFFFFF4B
:10458000FFFFFFFFFFFFFFFFFFFFFFFFFFFFFFFF3B
:10459000FFFFFFFFFFFFFFFFFFFFFFFFFFFFFFFF2B
:1045A000FFFFFFFFFFFFFFFFFFFFFFFFFFFFB5B6AE
:1045B0004A4910A30001000108A4192629A831C8FE
:1045C00029A831A8216731A829A831C931EA1926BB
:1045D000426AF7FFFFDFFFFFFFFEE698B30AC42F32
:1045E000FF7BFFFEDF3BDE9B9C521041088310A344
:1045F00018C418E5212518E4004100000000292511
:104600008C72F7BEFFFFFFDFFFFFFFFFFFFFFFFF23
:10461000FFFFFFFFFFFFFFFFFFFFFFFFFFFFFFFFAA
:10462000FFFFFFFFFFFFFFFFFFFFFFFFFFFFFFFF9A
:10463000FFFFFFFFFFFFFFFFFFFFFFFFFFFFFFFF8A
:10464000FFFFFFFFFFFFFFFFFFFFFFFFFFFFFFFF7A
:10465000FFFFFFFFFFFFFFFFFFFFFFFFFFFFFFFF6A
:10466000FFFFFFFFFFFFFFFFFFFFFFFFFFFFFFFF5A
:10467000FFFFFFFFFFFFFFFFFFFFFFFFFFFFFFFF4A
:10468000FFFFFFFFFFFFFFFFFFFFFFFFFFFFFFFF3A
:10469000FFFFFFFFFFFFFFFFFFFFFFFFFFFFFFFF2A
:1046A000FFFFFFFFFFFFFFFFFFFFFFFFFFFFFFFF1A
:1046B000FFFFFFFFFFFFFFFFFFFFFFFFFFFFFFFF0A
:1046C000FFFFFFFFFFFFFFFFFFFFFFFFFFFFFFFFFA
:1046D000FFFFFFFFFFDFE73C630C00000000214508
:1046E000298731C829A829A829C829C829A829871C
:1046F000298729A83A0931C839EB31A82145D6BA0A
:10470000FFFFFFFFFEFBDC11C90498829289F75C72
:10471000EF9EE69CA4D408C2088310C418E518C410
:10472000212621462966296621250021000020E452
:104730008C71FFFFFFFFFFFFFFFFFFFFFFFFFFFF8A
:10474000FFFFFFFFFFFFFFFFFFFFFFFFFFFFFFFF79
:10475000FFFFFFFFFFFFFFFFFFFFFFFFFFFFFFFF69
:10476000FFFFFFFFFFFFFFFFFFFFFFFFFFFFFFFF59
:10477000FFFFFFFFFFFFFFFFFFFFFFFFFFFFFFFF49
:10478000FFFFFFFFFFFFFFFFFFFFFFFFFFFFFFFF39
:10479000FFFFFFFFFFFFFFFFFFFFFFFFFFFFFFFF29
:1047A000FFFFFFFFFFFFFFFFFFFFFFFFFFFFFFFF19
:1047B000FFFFFFFFFFFFFFFFFFFFFFFFFFFFFFFF09
:1047C000FFFFFFFFFFFFFFFFFFFFFFFFFFFFFFFFF9
:1047D000FFFFFFFFFFFFFFFFFFFFFFFFFFFFFFFFE9
:1047E000FFFFFFFFFFFFFFFFFFFFFFFFFFFFFFFFD9
:1047F000FFFFFFFFFFFFFFFFFFFFFFFFFFFFFFFFC9
:10480000FFFF3A09000221473A2A29A829A829A826
:1048100029C829A829A831A829672167298831A88A
:1048200031C939E939EA31CA1083AD75FFFFFFDEBE
:10483000BCD38802E967C04250009450EF5CEF5B44
:10484000B59610C5088318E510C419051905212669
:1048500029672166298829A8212700430001298684
:104860009CB2FFFFFFFFFFFFFFFFFFFFFFFFFFFF08
:10487000FFFFFFFFFFFFFFFFFFFFFFFFFFFFFFFF48
:10488000FFFFFFFFFFFFFFFFFFFFFFFFFFFFFFFF38
:10489000FFFFFFFFFFFFFFFFFFFFFFFFFFFFFFFF28
:1048A000FFFFFFFFFFFFFFFFFFFFFFFFFFFFFFFF18
:1048B000FFFFFFFFFFFFFFFFFFFFFFFFFFFFFFFF08
:1048C000FFFFFFFFFFFFFFFFFFFFFFFFFFFFFFFFF8
:1048D000FFFFFFFFFFFFFFFFFFFFFFFFFFFFFFFFE8
:1048E000FFFFFFFFFFFFFFFFFFFFFFFFFFFFFFFFD8
:1048F000FFFFFFFFFFFFFFFFFFFFFFFFFFFFFFFFC8
:10490000FFFFFFFFFFFFFFFFFFFFFFFFFFFFFFFFB7
:10491000FFFFFFFFFFFFFFFFFFFFFFFFFFFFFFFFA7
:10492000FFFFFFFFFFFFFFFFFFFFFFDFEF7E10A492
:104930001906214731C931C931C931C829A829A867
:1049400029A831A829A829A831A831A831C931E955
:1049500031C93A2A08638410FFFFE73CE71BF618C9
:10496000D166C022B38DCDF7C618F79CC617212794
:10497000004321061905212621261905212629870C
:10498000216729A821672967298700000021D69A75
:10499000FFFFFFFFFFFFFFFFFFFFFFFFFFFFFFFF27
:1049A000FFFFFFFFFFFFFFFFFFFFFFFFFFFFFFFF17
:1049B000FFFFFFFFFFFFFFFFFFFFFFFFFFFFFFFF07
:1049C000FFFFFFFFFFFFFFFFFFFFFFFFFFFFFFFFF7
:1049D000FFFFFFFFFFFFFFFFFFFFFFFFFFFFFFFFE7
:1049E000FFFFFFFFFFFFFFFFFFFFFFFFFFFFFFFFD7
:1049F000FFFFFFFFFFFFFFFFFFFFFFFFFFFFFFFFC7
:104A0000FFFFFFFFFFFFFFFFFFFFFFFFFFFFFFFFB6
:104A1000FFFFFFFFFFFFFFFFFFFFFFFFFFFFFFFFA6
:104A2000FFFFFFFFFFFFFFFFFFFFFFFFFFFFFFFF96
:104A3000FFFFFFFFFFFFFFFFFFFFFFFFFFFFFFFF86
:104A4000FFFFFFFFFFFFFFFFFFFFFFFFFFFFFFFF76
:104A5000FFFFFFFFFFFFFFFF8C720001426B21870A
:104A600029883A0A31E931C931A829A831A829A8E9
:104A700029A831C831C931C931E931C931C831E951
:104A800019064A8AF7BEFFDFEFBEFFFFC1C7C0832A
:104A9000FE98E6FBE71CFFDECE592967004221475E
:104AA000212621461905190521262967298729A7C5
:104AB00029C8214729A831A7000073AFFFFFFFFFD6
:104AC000FFFFFFFFFFFFFFFFFFFFFFFFFFFFFFFFF6
:104AD000FFFFFFFFFFFFFFFFFFFFFFFFFFFFFFFFE6
:104AE000FFFFFFFFFFFFFFFFFFFFFFFFFFFFFFFFD6
:104AF000FFFFFFFFFFFFFFFFFFFFFFFFFFFFFFFFC6
:104B0000FFFFFFFFFFFFFFFFFFFFFFFFFFFFFFFFB5
:104B1000FFFFFFFFFFFFFFFFFFFFFFFFFFFFFFFFA5
:104B2000FFFFFFFFFFFFFFFFFFFFFFFFFFFFFFFF95
:104B3000FFFFFFFFFFFFFFFFFFFFFFFFFFFFFFFF85
:104B4000FFFFFFFFFFFFFFFFFFFFFFFFFFFFFFFF75
:104B5000FFFFFFFFFFFFFFFFFFFFFFFFFFFFFFFF65
:104B6000FFFFFFFFFFFFFFFFFFFFFFFFFFFFFFFF55
:104B7000FFFFFFFFFFFFFFFFFFFFFFFFFFFFFFFF45
:104B8000FFFFEF7E190510A44ACD29C921883A2AD2
:104B900031C931C931C9318831C831A831A831A8EA
:104BA00029A831C93A0A31E941E93A0A2988214656
:104BB000CE59FFFFFFFFDD97A041B842D553F7FF65
:104BC000EF1DEF5CD6BA422A00222126214721465A
:104BD0001905214629872967298729A831E92167ED
:104BE000216731C9084231A7FFDFFFFFFFFFFFFF49
:104BF000FFFFFFFFFFFFFFFFFFFFFFFFFFFFFFFFC5
:104C0000FFFFFFFFFFFFFFFFFFFFFFFFFFFFFFFFB4
:104C1000FFFFFFFFFFFFFFFFFFFFFFFFFFFFFFFFA4
:104C2000FFFFFFFFFFFFFFFFFFFFFFFFFFFFFFFF94
:104C3000FFFFFFFFFFFFFFFFFFFFFFFFFFFFFFFF84
:104C4000FFFFFFFFFFFFFFFFFFFFFFFFFFFFFFFF74
:104C5000FFFFFFFFFFFFFFFFFFFFFFFFFFFFFFFF64
:104C6000FFFFFFFFFFFFFFFFFFFFFFFFFFFFFFFF54
:104C7000FFFFFFFFFFFFFFFFFFFFFFFFFFFFFFFF44
:104C8000FFFFFFFFFFFFFFFFFFFFFFFFFFFFFFFF34
:104C9000FFFFFFFFFFFFFFFFFFFFFFFFFFFFFFFF24
:104CA000FFFFFFFFFFFFFFFFFFFFFFFFFFFFAD96CF
:104CB000000139EA424B31E921473A0A31E931C969
:104CC00039C9318831A831C931E931C92967298801
:104CD00039E939E939C939EA31CA20E5ACF5F7FFD4
:104CE000FFBDBA2BD084C8A4B36CEFDDEEDCD6993F
:104CF000CE79528B000221262967214719052146CA
:104D00002967298729A7218731E831E821472988A0
:104D100021460000CE59FFFFFFFFFFFFFFFFFFFF0F
:104D2000FFFFFFFFFFFFFFFFFFFFFFFFFFFFFFFF93
:104D3000FFFFFFFFFFFFFFFFFFFFFFFFFFFFFFFF83
:104D4000FFFFFFFFFFFFFFFFFFFFFFFFFFFFFFFF73
:104D5000FFFFFFFFFFFFFFFFFFFFFFFFFFFFFFFF63
:104D6000FFFFFFFFFFFFFFFFFFFFFFFFFFFFFFFF53
:104D7000FFFFFFFFFFFFFFFFFFFFFFFFFFFFFFFF43
:104D8000FFFFFFFFFFFFFFFFFFFFFFFFFFFFFFFF33
:104D9000FFFFFFFFFFFFFFFFFFFFFFFFFFFFFFFF23
:104DA000FFFFFFFFFFFFFFFFFFFFFFFFFFFFFFFF13
:104DB000FFFFFFFFFFFFFFFFFFFFFFFFFFFFFFFF03
:104DC000FFFFFFFFFFFFFFFFFFFFFFFFFFFFFFFFF3
:104DD000FFFFFFFFFFFFFFFFFFFF73CF0002422B2C
:104DE0003A2A3A2A214739EA3A2A31C931C931A93E
:104DF00031A931C931C931C931A831C939E931C9FC
:104E00003A0A31C93A0B10848BD1F7FFE6D9A022B8
:104E1000F968C8A3A124EF1BE6DCEF3CD679526BFE
:104E200000222126214721472146214619052146F6
:104E300021672987298731C82167190639E90000C8
:104E400094B2FFFFFFFFFFFFFFFFFFFFFFFFFFFF2A
:104E5000FFFFFFFFFFFFFFFFFFFFFFFFFFFFFFFF62
:104E6000FFFFFFFFFFFFFFFFFFFFFFFFFFFFFFFF52
:104E7000FFFFFFFFFFFFFFFFFFFFFFFFFFFFFFFF42
:104E8000FFFFFFFFFFFFFFFFFFFFFFFFFFFFFFFF32
:104E9000FFFFFFFFFFFFFFFFFFFFFFFFFFFFFFFF22
:104EA000FFFFFFFFFFFFFFFFFFFFFFFFFFFFFFFF12
:104EB000FFFFFFFFFFFFFFFFFFFFFFFFFFFFFFFF02
:104EC000FFFFFFFFFFFFFFFFFFFFFFFFFFFFFFFFF2
:104ED000FFFFFFFFFFFFFFFFFFFFFFFFFFFFFFFFE2
:104EE000FFFFFFFFFFFFFFFFFFFFFFFFFFFFFFFFD2
:104EF000FFFFFFFFFFFFFFFFFFFFFFFFFFFFFFFFC2
:104F0000FFFFFFFFFFFF4A6A088439EA3A2B426C31
:104F1000216831C9424B31EA31C931C931A931A9BE
:104F2000298831A931E939E931E931C931E939EA69
:104F30003A0A10C562CDFFFFEE37A800F0E5E16543
:104F4000A000DD14FFFFEF9DDEBA52AC0022212647
:104F5000212621262147294719051926298829872D
:104F6000216631C821471906420900206B4DFFFF19
:104F7000FFFFFFFFFFFFFFFFFFFFFFFFFFFFFFFF41
:104F8000FFFFFFFFFFFFFFFFFFFFFFFFFFFFFFFF31
:104F9000FFFFFFFFFFFFFFFFFFFFFFFFFFFFFFFF21
:104FA000FFFFFFFFFFFFFFFFFFFFFFFFFFFFFFFF11
:104FB000FFFFFFFFFFFFFFFFFFFFFFFFFFFFFFFF01
:104FC000FFFFFFFFFFFFFFFFFFFFFFFFFFFFFFFFF1
:104FD000FFFFFFFFFFFFFFFFFFFFFFFFFFFFFFFFE1
:104FE000FFFFFFFFFFFFFFFFFFFFFFFFFFFFFFFFD1
:104FF000FFFFFFFFFFFFFFFFFFFFFFFFFFFFFFFFC1
:10500000FFFFFFFFFFFFFFFFFFFFFFFFFFFFFFFFB0
:10501000FFFFFFFFFFFFFFFFFFFFFFFFFFFFFFFFA0
:10502000FFFFFFFFFFFFFFFFFFFFFFFFFFFFFFFF90
:10503000EF9D1904214739EB3A0B4A6C296829681E
:105040003A2B3A0A31E931C931C931C929A831A904
:1050500031E931C931C931E939C83A09322919660A
:1050600039EAFFDFFD96B800E946F1E7B801AA4A40
:10507000FFFFFFFEEF5D5AED000221462967214741
:10508000190621472126190631C92146216629879B
:105090002127214739E9000039E7FFFFFFFFFFFF24
:1050A000FFFFFFFFFFFFFFFFFFFFFFFFFFFFFFFF10
:1050B000FFFFFFFFFFFFFFFFFFFFFFFFFFFFFFFF00
:1050C000FFFFFFFFFFFFFFFFFFFFFFFFFFFFFFFFF0
:1050D000FFFFFFFFFFFFFFFFFFFFFFFFFFFFFFFFE0
:1050E000FFFFFFFFFFFFFFFFFFFFFFFFFFFFFFFFD0
:1050F000FFFFFFFFFFFFFFFFFFFFFFFFFFFFFFFFC0
:10510000FFFFFFFFFFFFFFFFFFFFFFFFFFFFFFFFAF
:10511000FFFFFFFFFFFFFFFFFFFFFFFFFFFFFFFF9F
:10512000FFFFFFFFFFFFFFFFFFFFFFFFFFFFFFFF8F
:10513000FFFFFFFFFFFFFFFFFFFFFFFFFFFFFFFF7F
:10514000FFFFFFFFFFFFFFFFFFFFFFFFFFFFFFFF6F
:10515000FFFFFFFFFFFFFFFFFFFFFFFFB5D800438B
:1051600031A939EA3A2A426C31CA2167424B39EAFD
:1051700031EA31C931C931EA31E929A831C939EAFD
:1051800031C939EA31C931C939EA29C82147E77E2D
:10519000FD14D022F9A9F969D8C3B883E658FFFFF6
:1051A000FFDF62AC00222167298721672126214782
:1051B0001905212631C831C821462967190621471A
:1051C00031C900222104FFDFFFFFFFFFFFFFFFFFC8
:1051D000FFFFFFFFFFFFFFFFFFFFFFFFFFFFFFFFDF
:1051E000FFFFFFFFFFFFFFFFFFFFFFFFFFFFFFFFCF
:1051F000FFFFFFFFFFFFFFFFFFFFFFFFFFFFFFFFBF
:10520000FFFFFFFFFFFFFFFFFFFFFFFFFFFFFFFFAE
:10521000FFFFFFFFFFFFFFFFFFFFFFFFFFFFFFFF9E
:10522000FFFFFFFFFFFFFFFFFFFFFFFFFFFFFFFF8E
:10523000FFFFFFFFFFFFFFFFFFFFFFFFFFFFFFFF7E
:10524000FFFFFFFFFFFFFFFFFFFFFFFFFFFFFFFF6E
:10525000FFFFFFFFFFFFFFFFFFFFFFFFFFFFFFFF5E
:10526000FFFFFFFFFFFFFFFFFFFFFFFFFFFFFFFF4E
:10527000FFFFFFFFFFFFFFFFFFFFFFFFFFFFFFFF3E
:10528000FFFFFFFFFFFFFFFF8431000231EA3A0A10
:105290003A2A426C3A0A21473A0A3A0B3A0A31E969
:1052A00031C931E931EA31C931C939EA31E931C9A4
:1052B00039EA31C939EA320910E5C679FD14D8A4B2
:1052C000F9E9F9CAE125C001CC10FFFFFFFF5AEC54
:1052D000002221672987296721472967212621265E
:1052E00031A831C82987296710C4216739E90884A2
:1052F0000021D69AFFFFFFFFFFFFFFFFFFFFFFFF29
:10530000FFFFFFFFFFFFFFFFFFFFFFFFFFFFFFFFAD
:10531000FFFFFFFFFFFFFFFFFFFFFFFFFFFFFFFF9D
:10532000FFFFFFFFFFFFFFFFFFFFFFFFFFFFFFFF8D
:10533000FFFFFFFFFFFFFFFFFFFFFFFFFFFFFFFF7D
:10534000FFFFFFFFFFFFFFFFFFFFFFFFFFFFFFFF6D
:10535000FFFFFFFFFFFFFFFFFFFFFFFFFFFFFFFF5D
:10536000FFFFFFFFFFFFFFFFFFFFFFFFFFFFFFFF4D
:10537000FFFFFFFFFFFFFFFFFFFFFFFFFFFFFFFF3D
:10538000FFFFFFFFFFFFFFFFFFFFFFFFFFFFFFFF2D
:10539000FFFFFFFFFFFFFFFFFFFFFFFFFFFFFFFF1D
:1053A000FFFFFFFFFFFFFFFFFFFFFFFFFFFFFFFF0D
:1053B000FFFFFFFF4A8B00433A0A3A0A3A0A3A2BA8
:1053C000424B216731E93A2B3A0B3A0A31EA31E98B
:1053D00031EA31E931C939EA3A0A31C939E931C921
:1053E00039EA3A4A08A49514FD35E105F9E9F1E9ED
:1053F000F187E843CA6AFFFFFFFF634E0022296777
:10540000298829672147296721262126298729A854
:1054100031C829670863214739E918E500009CD3A2
:10542000FFFFFFFFFFFFFFFFFFFFFFFFFFFFFFFF8C
:10543000FFFFFFFFFFFFFFFFFFFFFFFFFFFFFFFF7C
:10544000FFFFFFFFFFFFFFFFFFFFFFFFFFFFFFFF6C
:10545000FFFFFFFFFFFFFFFFFFFFFFFFFFFFFFFF5C
:10546000FFFFFFFFFFFFFFFFFFFFFFFFFFFFFFFF4C
:10547000FFFFFFFFFFFFFFFFFFFFFFFFFFFFFFFF3C
:10548000FFFFFFFFFFFFFFFFFFFFFFFFFFFFFFFF2C
:10549000FFFFFFFFFFFFFFFFFFFFFFFFFFFFFFFF1C
:1054A000FFFFFFFFFFFFFFFFFFFFFFFFFFFFFFFF0C
:1054B000FFFFFFFFFFFFFFFFFFFFFFFFFFFFFFFFFC
:1054C000FFFFFFFFFFFFFFFFFFFFFFFFFFFFFFFFEC
:1054D000FFFFFFFFFFFFFFFFFFFFFFFFFFFFF79E45
:1054E000296710E53A0A3A0A3A0A3A0A426C2167F1
:1054F0002988424B422B3A0A3A0A39EA31EA31EA20
:1055000031C931C93A0A39EA31E931C939EA3A4A85
:1055100010E573F0F4F4E105FA09F209F1C8F105B8
:10552000C966F73CFFFF6B6E0022298731A82987E7
:1055300021472167192621462987298731A82987EC
:105540000883192631C921470000632DFFFFFFFFA3
:10555000FFFFFFFFFFFFFFFFFFFFFFFFFFFFFFFF5B
:10556000FFFFFFFFFFFFFFFFFFFFFFFFFFFFFFFF4B
:10557000FFFFFFFFFFFFFFFFFFFFFFFFFFFFFFFF3B
:10558000FFFFFFFFFFFFFFFFFFFFFFFFFFFFFFFF2B
:10559000FFFFFFFFFFFFFFFFFFFFFFFFFFFFFFFF1B
:1055A000FFFFFFFFFFFFFFFFFFFFFFFFFFFFFFFF0B
:1055B000FFFFFFFFFFFFFFFFFFFFFFFFFFFFFFFFFB
:1055C000FFFFFFFFFFFFFFFFFFFFFFFFFFFFFFFFEB
:1055D000FFFFFFFFFFFFFFFFFFFFFFFFFFFFFFFFDB
:1055E000FFFFFFFFFFFFFFFFFFFFFFFFFFFFFFFFCB
:1055F000FFFFFFFFFFFFFFFFFFFFFFFFFFFFFFFFBB
:10560000FFFFFFFFFFFFFFFFFFDFCE9A10C4216700
:1056100031EA422B3A2B424B4A8C21472147426CBC
:10562000424B3A2A3A2A3A0A3A0A3A0A31EA31C944
:1056300039EA3A0A31E931E93A0A3A2A216752EC61
:10564000D431E126F9E9FA09F1C9F145C8C3E5D732
:10565000FFFF634D004229A831E931A82988298735
:10566000192621462987298829882988088318E549
:1056700031C82987000039C7FFFFFFFFFFFFFFFF89
:10568000FFFFFFFFFFFFFFFFFFFFFFFFFFFFFFFF2A
:10569000FFFFFFFFFFFFFFFFFFFFFFFFFFFFFFFF1A
:1056A000FFFFFFFFFFFFFFFFFFFFFFFFFFFFFFFF0A
:1056B000FFFFFFFFFFFFFFFFFFFFFFFFFFFFFFFFFA
:1056C000FFFFFFFFFFFFFFFFFFFFFFFFFFFFFFFFEA
:1056D000FFFFFFFFFFFFFFFFFFFFFFFFFFFFFFFFDA
:1056E000FFFFFFFFFFFFFFFFFFFFFFFFFFFFFFFFCA
:1056F000FFFFFFFFFFFFFFFFFFFFFFFFFFFFFFFFBA
:10570000FFFFFFFFFFFFFFFFFFFFFFFFFFFFFFFFA9
:10571000FFFFFFFFFFFFFFFFFFFFFFFFFFFFFFFF99
:10572000FFFFFFFFFFFFFFFFFFFFFFFFFFFFFFFF89
:10573000FFFFFFFFFFFFA555004221883A0A424BB9
:10574000424B3A2B426C21672987426C422B424BD9
:105750003A2A3A2A3A2A3A0A3A0A31E931E93A2AFD
:105760003A093209420A3A2A31E93A29AAECE98887
:10577000F9E8FA09F9C9F986D8C4DC51FFFF638E4C
:10578000006329A831E929A831A8298821262146C2
:105790002147298831882967088318E531E921667E
:1057A000002110A3DF1CFFFFFFFFFFFFFFFFFFFF34
:1057B000FFFFFFFFFFFFFFFFFFFFFFFFFFFFFFFFF9
:1057C000FFFFFFFFFFFFFFFFFFFFFFFFFFFFFFFFE9
:1057D000FFFFFFFFFFFFFFFFFFFFFFFFFFFFFFFFD9
:1057E000FFFFFFFFFFFFFFFFFFFFFFFFFFFFFFFFC9
:1057F000FFFFFFFFFFFFFFFFFFFFFFFFFFFFFFFFB9
:10580000FFFFFFFFFFFFFFFFFFFFFFFFFFFFFFFFA8
:10581000FFFFFFFFFFFFFFFFFFFFFFFFFFFFFFFF98
:10582000FFFFFFFFFFFFFFFFFFFFFFFFFFFFFFFF88
:10583000FFFFFFFFFFFFFFFFFFFFFFFFFFFFFFFF78
:10584000FFFFFFFFFFFFFFFFFFFFFFFFFFFFFFFF68
:10585000FFFFFFFFFFFFFFFFFFFFFFFFFFFFFFFF58
:10586000FFFF7C10004229C93A2B424B424B3A2B96
:105870003A2B21672987426C422B426B3A2B3A2BF9
:105880003A4B3A2A3A0A3A0A39EA3A2A3A2A3A0A78
:10589000420A3A2A3A2B29E87987E9A8FA09F9E86D
:1058A000F9C8F187E8E4DB4DFFFF63AF088329A85F
:1058B00031E929A831A82988214629672147298764
:1058C00031A82947108319263A2A112510C400004F
:1058D000AD76FFFFFFFFFFFFFFFFFFFFFFFFFFFFB3
:1058E000FFFFFFFFFFFFFFFFFFFFFFFFFFFFFFFFC8
:1058F000FFFFFFFFFFFFFFFFFFFFFFFFFFFFFFFFB8
:10590000FFFFFFFFFFFFFFFFFFFFFFFFFFFFFFFFA7
:10591000FFFFFFFFFFFFFFFFFFFFFFFFFFFFFFFF97
:10592000FFFFFFFFFFFFFFFFFFFFFFFFFFFFFFFF87
:10593000FFFFFFFFFFFFFFFFFFFFFFFFFFFFFFFF77
:10594000FFFFFFFFFFFFFFFFFFFFFFFFFFFFFFFF67
:10595000FFFFFFFFFFFFFFFFFFFFFFFFFFFFFFFF57
:10596000FFFFFFFFFFFFFFFFFFFFFFFFFFFFFFFF47
:10597000FFFFFFFFFFFFFFFFFFFFFFFFFFFFFFFF37
:10598000FFFFFFFFFFFFFFFFFFFFFFFFFFFF5AECDF
:105990000042320A424B422B424B426C3A0A10E51B
:1059A00021464A6C426C424B424B3A2A424B3A0ADD
:1059B0003A0A3A2B3A0A3A2A3A2A3A2A39EA3A2A47
:1059C000424B320860A3E987F9C8F9E8FA08F1A860
:1059D000E905DB2BFFFF636F088331C83A0931C942
:1059E00031E929A8216729872987214731A821067C
:1059F000086319263A2A08C4192500008C51FFFFB4
:105A0000FFFFFFFFFFFFFFFFFFFFFFFFFFFFFFFFA6
:105A1000FFFFFFFFFFFFFFFFFFFFFFFFFFFFFFFF96
:105A2000FFFFFFFFFFFFFFFFFFFFFFFFFFFFFFFF86
:105A3000FFFFFFFFFFFFFFFFFFFFFFFFFFFFFFFF76
:105A4000FFFFFFFFFFFFFFFFFFFFFFFFFFFFFFFF66
:105A5000FFFFFFFFFFFFFFFFFFFFFFFFFFFFFFFF56
:105A6000FFFFFFFFFFFFFFFFFFFFFFFFFFFFFFFF46
:105A7000FFFFFFFFFFFFFFFFFFFFFFFFFFFFFFFF36
:105A8000FFFFFFFFFFFFFFFFFFFFFFFFFFFFFFFF26
:105A9000FFFFFFFFFFFFFFFFFFFFFFFFFFFFFFFF16
:105AA000FFFFFFFFFFFFFFFFFFFFFFFFFFFFFFFF06
:105AB000FFFFFFFFFFFFFFFFFFFF3A09088439EAFE
:105AC0003A2B424B3A2A424C4AAC190508824A8B7F
:105AD000424C3A2B424B424B424B3A2B3A2B422BF5
:105AE0003A2B3A2A3A2A32093A2A422A3A4B3A4C73
:105AF0003105D925F9E8F9A8F1E9F1C7F146DA2924
:105B0000FFDE5BAF08A431A939E939E931E929A8F9
:105B10002967296729662127210610C4004110C47E
:105B200031A810E5192600015AECFFFFFFFFFFFF27
:105B3000FFFFFFFFFFFFFFFFFFFFFFFFFFFFFFFF75
:105B4000FFFFFFFFFFFFFFFFFFFFFFFFFFFFFFFF65
:105B5000FFFFFFFFFFFFFFFFFFFFFFFFFFFFFFFF55
:105B6000FFFFFFFFFFFFFFFFFFFFFFFFFFFFFFFF45
:105B7000FFFFFFFFFFFFFFFFFFFFFFFFFFFFFFFF35
:105B8000FFFFFFFFFFFFFFFFFFFFFFFFFFFFFFFF25
:105B9000FFFFFFFFFFFFFFFFFFFFFFFFFFFFFFFF15
:105BA000FFFFFFFFFFFFFFFFFFFFFFFFFFFFFFFF05
:105BB000FFFFFFFFFFFFFFFFFFFFFFFFFFFFFFFFF5
:105BC000FFFFFFFFFFFFFFFFFFFFFFFFFFFFFFFFE5
:105BD000FFFFFFFFFFFFFFFFFFFFFFFFFFFFFFFFD5
:105BE000FFFFFFFFDF1C190519063A2B3A2B426B0A
:105BF000424B424C4A8C21660882424A424B422B1D
:105C0000424B424B424B424B424B424B422B3A2A75
:105C10003A2B3A2A3A0A420A3A4B3A4C3126C0E425
:105C2000F9E8F9A8F1E9F9C8F986D9A8F6BA5B6FDD
:105C300010C531C939E939E931E929C8298721462F
:105C400021462127212710A30000190531C810A4DF
:105C5000192600224249FFFFFFFFFFFFFFFFFFFF62
:105C6000FFFFFFFFFFFFFFFFFFFFFFFFFFFFFFFF44
:105C7000FFFFFFFFFFFFFFFFFFFFFFFFFFFFFFFF34
:105C8000FFFFFFFFFFFFFFFFFFFFFFFFFFFFFFFF24
:105C9000FFFFFFFFFFFFFFFFFFFFFFFFFFFFFFFF14
:105CA000FFFFFFFFFFFFFFFFFFFFFFFFFFFFFFFF04
:105CB000FFFFFFFFFFFFFFFFFFFFFFFFFFFFFFFFF4
:105CC000FFFFFFFFFFFFFFFFFFFFFFFFFFFFFFFFE4
:105CD000FFFFFFFFFFFFFFFFFFFFFFFFFFFFFFFFD4
:105CE000FFFFFFFFFFFFFFFFFFFFFFFFFFFFFFFFC4
:105CF000FFFFFFFFFFFFFFFFFFFFFFFFFFFFFFFFB4
:105D0000FFFFFFFFFFFFFFFFFFFFFFFFFFFFFFFFA3
:105D1000BE18004229883A2B3A2B426B426C424B08
:105D20004A8C31A700623A0A424B3A0B422B424B53
:105D3000426C426B426B426B424B422B422B424BBA
:105D400039EA3A0A424B426C3187A8C4F9C8F9A82B
:105D5000F9C8F9C8F9C8D946DD15632E10E631A98E
:105D600031C939E931E929A829882146214629681C
:105D7000212708830000298731C810C4214610C498
:105D80002987F7DFFFFFFFFFFFFFFFFFFFFFFFFF99
:105D9000FFFFFFFFFFFFFFFFFFFFFFFFFFFFFFFF13
:105DA000FFFFFFFFFFFFFFFFFFFFFFFFFFFFFFFF03
:105DB000FFFFFFFFFFFFFFFFFFFFFFFFFFFFFFFFF3
:105DC000FFFFFFFFFFFFFFFFFFFFFFFFFFFFFFFFE3
:105DD000FFFFFFFFFFFFFFFFFFFFFFFFFFFFFFFFD3
:105DE000FFFFFFFFFFFFFFFFFFFFFFFFFFFFFFFFC3
:105DF000FFFFFFFFFFFFFFFFFFFFFFFFFFFFFFFFB3
:105E0000FFFFFFFFFFFFFFFFFFFFFFFFFFFFFFFFA2
:105E1000FFFFFFFFFFFFFFFFFFFFFFFFFFFFFFFF92
:105E2000FFFFFFFFFFFFFFFFFFFFFFFFFFFFFFFF82
:105E3000FFFFFFFFFFFFFFFFFFFFFFFFA535002272
:105E400031C93A2B424B424B3A4B3A2B4A8C29A749
:105E500000213A2A424B3A0A3A2A424B426B426CA0
:105E6000426C426C426B424B422B424B3A0A3A0A1A
:105E7000424B426D31C890A4F9A8F9C8F9C8F9A8F5
:105E8000FA08D905C38F5AEE194731C931C93A0A00
:105E900031E92987216721262106214718E60021BB
:105EA000004131C8298710A31926214610C4E71CD8
:105EB000FFFFFFFFFFFFFFFFFFFFFFFFFFFFFFFFF2
:105EC000FFFFFFFFFFFFFFFFFFFFFFFFFFFFFFFFE2
:105ED000FFFFFFFFFFFFFFFFFFFFFFFFFFFFFFFFD2
:105EE000FFFFFFFFFFFFFFFFFFFFFFFFFFFFFFFFC2
:105EF000FFFFFFFFFFFFFFFFFFFFFFFFFFFFFFFFB2
:105F0000FFFFFFFFFFFFFFFFFFFFFFFFFFFFFFFFA1
:105F1000FFFFFFFFFFFFFFFFFFFFFFFFFFFFFFFF91
:105F2000FFFFFFFFFFFFFFFFFFFFFFFFFFFFFFFF81
:105F3000FFFFFFFFFFFFFFFFFFFFFFFFFFFFFFFF71
:105F4000FFFFFFFFFFFFFFFFFFFFFFFFFFFFFFFF61
:105F5000FFFFFFFFFFFFFFFFFFFFFFFFFFFFFFFF51
:105F6000FFFFFFFFFFFFFFFF7BF0000231C93A2B6D
:105F7000424B3A2B3A2A3A0A4A8C296700003A2ABD
:105F8000424B3A0B3A0A422B424B424B424B426B3A
:105F9000426B424B422B422B422B3A2B422B426DFF
:105FA000320A78C4F988F9E8F9C8F9A8FA08E126AC
:105FB000AA8B4ACC218831C931C93A0A31E929A8CA
:105FC000214719051906214719050000088239E9FA
:105FD00029A810C4212629870883D69AFFDFFFFF4E
:105FE000FFFFFFFFFFFFFFFFFFFFFFFFFFFFFFFFC1
:105FF000FFFFFFFFFFFFFFFFFFFFFFFFFFFFFFFFB1
:10600000FFFFFFFFFFFFFFFFFFFFFFFFFFFFFFFFA0
:10601000FFFFFFFFFFFFFFFFFFFFFFFFFFFFFFFF90
:10602000FFFFFFFFFFFFFFFFFFFFFFFFFFFFFFFF80
:10603000FFFFFFFFFFFFFFFFFFFFFFFFFFFFFFFF70
:10604000FFFFFFFFFFFFFFFFFFFFFFFFFFFFFFFF60
:10605000FFFFFFFFFFFFFFFFFFFFFFFFFFFFFFFF50
:10606000FFFFFFFFFFFFFFFFFFFFFFFFFFFFFFFF40
:10607000FFFFFFFFFFFFFFFFFFFFFFFFFFFFFFFF30
:10608000FFFFFFFFFFFFFFFFFFFFFFFFFFFFFFFF20
:10609000FFFFFFFF52CC006331EA424B424B424BC1
:1060A000322A3A0A4A8C2987000031C83A2B3A2B07
:1060B0003A0A422B424B424B424B424B424B424BE1
:1060C000424B3A2A424B3A2B420A424D322A60C492
:1060D000E947F9E8F9C8F187F1E8F14699A8426B78
:1060E00021A831C931C939C931C931E92167190537
:1060F0001906212719050000088331C931A808A312
:10610000216731C810A3CE59FFFFFFFFFFFFFFFF3C
:10611000FFFFFFFFFFFFFFFFFFFFFFFFFFFFFFFF8F
:10612000FFFFFFFFFFFFFFFFFFFFFFFFFFFFFFFF7F
:10613000FFFFFFFFFFFFFFFFFFFFFFFFFFFFFFFF6F
:10614000FFFFFFFFFFFFFFFFFFFFFFFFFFFFFFFF5F
:10615000FFFFFFFFFFFFFFFFFFFFFFFFFFFFFFFF4F
:10616000FFFFFFFFFFFFFFFFFFFFFFFFFFFFFFFF3F
:10617000FFFFFFFFFFFFFFFFFFFFFFFFFFFFFFFF2F
:10618000FFFFFFFFFFFFFFFFFFFFFFFFFFFFFFFF1F
:10619000FFFFFFFFFFFFFFFFFFFFFFFFFFFFFFFF0F
:1061A000FFFFFFFFFFFFFFFFFFFFFFFFFFFFFFFFFF
:1061B000FFFFFFFFFFFFFFFFFFFFFFFFFFFEFFDF10
:1061C0003A0A10C531EA424B3A2B424B3A2A3A0A74
:1061D0004A8C2987000029673A2A320A3A0A3A2B60
:1061E000422B422B422B424B424B424B424B3A2AD0
:1061F0003A2B3A4B422A422C326B50C4D906FA0849
:10620000F9C8F188F9C8F96789053A2A29E929C93D
:1062100031C931C931C931C9192618E518E5212616
:1062200010C40000088331C929A80883296831E90E
:106230000042AD76FFFFFFFFFFFFFFFFFFFFFFFF05
:10624000FFFFFFFFFFFFFFFFFFFFFFFFFFFFFFFF5E
:10625000FFFFFFFFFFFFFFFFFFFFFFFFFFFFFFFF4E
:10626000FFFFFFFFFFFFFFFFFFFFFFFFFFFFFFFF3E
:10627000FFFFFFFFFFFFFFFFFFFFFFFFFFFFFFFF2E
:10628000FFFFFFFFFFFFFFFFFFFFFFFFFFFFFFFF1E
:10629000FFFFFFFFFFFFFFFFFFFFFFFFFFFFFFFF0E
:1062A000FFFFFFFFFFFFFFFFFFFFFFFFFFFFFFFFFE
:1062B000FFFFFFFFFFFFFFFFFFFFFFFFFFFFFFFFEE
:1062C000FFFFFFFFFFFFFFFFFFFFFFFFFFFFFFFFDE
:1062D000FFFFFFFFFFFFFFFFFFFFFFFFFFFFFFFFCE
:1062E000FFFFFFFFFFFFFFFFFFFFF79E298818E674
:1062F0003A0A3A2B426B424C320A320A424B298705
:1063000000012967424B31EA3A0A3A2A3A2B3A2BE2
:106310003A2B424B424B424B426B3A2A320A3A4AA0
:10632000422B422C32AC50C4C8E5FA29F9C7F18897
:10633000F9A7F947808339E92A0A29A831C931C95F
:1063400031C929A810E5190510C421260042000012
:1063500010A339E9296808A331A9424A00018C52E7
:10636000FFFFFFFFFFFFFFFFFFFFFFFFFFFFFFFF3D
:10637000FFFFFFFFFFFFFFFFFFFFFFFFFFFFFFFF2D
:10638000FFFFFFFFFFFFFFFFFFFFFFFFFFFFFFFF1D
:10639000FFFFFFFFFFFFFFFFFFFFFFFFFFFFFFFF0D
:1063A000FFFFFFFFFFFFFFFFFFFFFFFFFFFFFFFFFD
:1063B000FFFFFFFFFFFFFFFFFFFFFFFFFFFFFFFFED
:1063C000FFFFFFFFFFFFFFFFFFFFFFFFFFFFFFFFDD
:1063D000FFFFFFFFFFFFFFFFFFFFFFFFFFFFFFFFCD
:1063E000FFFFFFFFFFFFFFFFFFFFFFFFFFFFFFFFBD
:1063F000FFFFFFFFFFFFFFFFFFFFFFFFFFFFFFFFAD
:10640000FFFFFFFFFFFFFFFFFFFFFFFFFFFFFFFF9C
:10641000FFFFFFFFFFFFDEFC1946216731EA424B19
:10642000426B424B320A29C9422B31A8000019267F
:10643000424C31E93A0A3A2B3A2A3A0A424B424B49
:106440003A2B424B3A4B424B31C93A4B422B426BAF
:10645000326A3947B0A5F9E8F9A8F968F9C7F946E9
:10646000808439E92A0A31C931C829A831E9296764
:10647000190610C410C421260842000010A331E9F7
