:020000040800F2
:10000000D004002049010008FF1E0008191E000846
:10001000FD1E0008BD070008DD21000800000000EB
:10002000000000000000000000000000031F0008A6
:10003000CD07000800000000011F0008051F000890
:100040006301000863010008630100086301000800
:1000500063010008630100086301000863010008F0
:1000600063010008630100086301000863010008E0
:10007000630100086301000863010008C10700086C
:1000800063010008630100086301000863010008C0
:1000900063010008630100086301000863010008B0
:1000A00063010008630100086301000863010008A0
:1000B0006301000863010008630100086301000890
:1000C0006301000863010008630100086301000880
:1000D00063010008D12100086301000863010008E2
:1000E0006301000863010008630100086301000860
:1000F0006301000863010008630100086301000850
:10010000630100086301000863010008630100083F
:10011000630100086301000863010008630100082F
:10012000630100086301000863010008630100081F
:10013000DFF810D000F0C6FA00480047E52A0008B2
:10014000AFF30080D00400200648804706480047EF
:10015000FEE7FEE7FEE7FEE7FEE7FEE7FEE7FEE777
:10016000FEE7FEE7831F000831010008202A04DBB8
:10017000203A21FA02F00021704721FA02F3D04020
:10018000C2F120029140084319467047D2B201E003
:1001900000F8012B491EFBD270470022F6E710B58C
:1001A00013460A4604461946FFF7F0FF204610BDE5
:1001B0002DE9FE4F804681EA0300C00F0C460090F7
:1001C00021F0004123F00045B8EB0200A94105D21F
:1001D0004046214690461C460B46024623F000400E
:1001E000104347D0270DC7F30A00C3F30A5102900A
:1001F000401A019040286BDAC3F3130040F4801BCF
:100200000098924620B10023D2EB030A63EB0B0B5C
:1002100001985946C0F14002504600F0A5F9064643
:100220000D4650465946019A00F0ADF910EB080012
:100230006141002487EA115284EAE7731A4340D0EF
:10024000009A62B3019A012A4FEA075215DC001B9B
:1002500061EB02014FF0004202EA0752CDE9004291
:10026000001C41F5801132462B4600F0ADF903B079
:10027000BDE8F08F40462146F9E7001B61EB020123
:10028000001C41F5801300185B412018A2F50017EF
:1002900047EB030140EAD570B6196D4111E06D08D6
:1002A0004FEA360645EAC0754FEA0752001B61EB7C
:1002B0000201001C41F5801149084FEA3000001985
:1002C000514132462B4603B0BDE8F04F00F06DB906
:1002D0000098012240000023D0EB020263EBE073A0
:1002E000009821464FEAE074B8EB000061EB04018E
:1002F000E9E783F000435BE781F0004158E72DE92F
:10030000FE4F81EA030404F0004421F00041009410
:100310004FF0000B23F0004350EA01045ED052EA94
:1003200003045BD0C3F30A54C1F30A552C44A4F26E
:10033000F3340194A0FB0254C1F3130141F4801182
:10034000C3F3130343F4801301FB024400FB034E89
:10035000840A970A44EA815447EA8357A4FB076852
:1003600002958D0A05FB07854FEA932C04FB0C547C
:100370002705029D4FEA065847EA1637B5EB0805F0
:100380006EEB070C870E920E47EA811742EA831242
:10039000A7FB0201B6EB0B0164EB00042B0D43EA53
:1003A0000C335E1844EB1C50DA465146E7FB020161
:1003B000C5F313044FEA0B3343EA14534FEA0432F4
:1003C000019C43EA0603A4F10C040294009CCDE9CD
:1003D00000B400F0F9F803B0BDE8F08F002001464A
:1003E000F9E72DE9F04D81EA030404F0004B21F018
:1003F000004514464FF0000A23F0004150EA050280
:1004000020D054EA01021DD0C5F30A570246C5F3B5
:100410001303C1F31300C1F30A5640F4801543F4EB
:100420008013A7EB0608101BD64608F2FD3873EBC5
:10043000050002D308F1010801E092185B41B8F110
:10044000000F03DA00200146BDE8F08D00204FF4D4
:100450008011064684460EE0171B73EB050705D393
:10046000121B63EB050306434CEA010C49084FEAF3
:10047000300092185B4150EA0107EDD152EA0300C7
:1004800012D082EA040083EA0501084305D0101B5C
:10049000AB4106D20122002306E000224FF00043C8
:1004A00002E06FF0010253101AEB06004CEB08510A
:1004B00010EB0A0041EB0B01BDE8F04D00F075B800
:1004C0000EB540F2334102910021CDE900110A46F8
:1004D0000B4600F079F803B000BD30B50B4601467D
:1004E00000202022012409E021FA02F59D4205D3D3
:1004F00003FA02F5491B04FA02F52844151EA2F17D
:100500000102F1DC30BD2DE9F05F05460020924686
:100510009B4688460646814640241BE028464146C5
:1005200047462246FFF722FE53465A46C01A9141DB
:1005300010D311461846224600F016F82D1A67EB24
:1005400001084F4622460120002100F00DF817EB6C
:1005500000094E41201EA4F10104DFDC484631466B
:100560002A464346BDE8F09F202A04DB203A00FAE1
:1005700002F1002070479140C2F1200320FA03F3FA
:10058000194390407047202A06DBCB17203A41FAE6
:1005900002F043EAE07306E041FA02F3D040C2F110
:1005A0002002914008431946704710B5141E73F19C
:1005B000000408DA401C41F1000192185B411A4323
:1005C00001D120F0010010BD2DE9F04D92469B466F
:1005D00011B1B1FA81F202E0B0FA80F22032904615
:1005E000FFF7C2FF04460F4640EA0A0041EA0B014A
:1005F00053465A46084313D0114653EA010019D016
:10060000C8F140025046FFF7B1FD05460E46504680
:1006100059464246FFF7A8FF084305D0012004E0F1
:1006200020463946BDE8F08D0020054346EAE076D5
:100630002C4337430A986305E40AA0EB0800002224
:10064000FD0A44EA47540A3002D500200146E9E792
:10065000010510196941DDE9084500196941BDE846
:10066000F04DA2E7C1F30A52C1F3130140F2FF3388
:1006700041F480119A4202DA00200146704740F2AC
:1006800033439A42A2F2334202DC5242FFF76EBD7C
:10069000FFF76ABF30B5041E71F1000404DB4FF0B0
:1006A0000044404264EB0101141E73F1000405DBB9
:1006B0001C464FF00043524263EB0403994208BFCB
:1006C000904230BD064C074D06E0E06840F0010363
:1006D00094E8070098471034AC42F6D3FFF72CFD9E
:1006E000342C0008542C000870B50446006881685A
:1006F000C943C90717D1816821F00101816000F069
:1007000087FD05460AE000BF00F082FD401B02287D
:1007100004D920688068C043C00706D0206880687C
:10072000C043C007F0D0002070BDA06A40F01000A8
:10073000A062E06A40F00100E062012070BD0000AC
:10074000F8B500260446009600688168C943C907C9
:100750002DD0816841F0010181601648164900687A
:10076000B0FBF1F000E0401E00900028FBD100F04B
:100770004FFD054616E000BF00F04AFD401B022871
:1007800010D920688068C043C0070BD0A06A40F031
:100790001000A062E06A40F00100E06284F824608A
:1007A0000120F8BD20688068C043C007E4D1002064
:1007B000F8BD00000C00002040420F00FEE70000E2
:1007C000014800F0B5BA00008C000020704772B6F6
:1007D000FEE70000F8B500250446009590F82400D7
:1007E00001280BD0012084F824002046FFF77CFF6D
:1007F0002046FFF7A5FF060002D050E00220F8BD1A
:10080000A06A20F4885040F00200A062022000F0AC
:100810009DFD25490968B1FBF0F0400000E0401E55
:1008200000900028FBD12068816841F008018160B8
:1008300000F0EEFC074608E000F0EAFCC01B0A28C6
:1008400003D920688068000715D4206880680007F5
:10085000F2D42068816841F00401816000F0D8FC86
:10086000074612E000F0D4FCC01B0A280DD920680E
:100870008068400709D5A06A20F0020040F010000F
:10088000A06284F824500120F8BD206880684007E9
:10089000E8D4A06A20F0020040F00100A06284F8D1
:1008A00024503046F8BD00000C000020F8B50024AC
:1008B000009490F824202546012A12D0012280F8C5
:1008C00024204A681F23072A0DD20668776B521E20
:1008D00002EB820293409F430B6893401F43776370
:1008E00019E00220F8BD06680D2A0AD2376BD21F24
:1008F00002EB820293409F430B6893401F43376390
:1009000009E0F76A0D3A02EB820293409F430B68BD
:1009100093401F43F7620A68072306680A2A0AD32E
:10092000F7680A3A02EB420293409F438B68934078
:100930001F43F76008E0376902EB420293409F4390
:100940008B6893401F4337610A68102A01D0112A2F
:1009500020D1124B02689A4217D193681B0219D416
:10096000936843F4000393600968102912D10C497D
:100970000C4A0968B1FBF2F101EB8101490000E08A
:10098000491E00910029FBD104E0816A41F0200159
:100990008162012480F824502046F8BD00240140E3
:1009A0000C00002040420F000068C06C704700003F
:1009B0002DE9F04104004FF000057FD0A06A002629
:1009C00028B9E66284F82460204600F081F82046C9
:1009D000FFF78AFEA16AC90600D420B1A06A40F0E0
:1009E0001000A0626AE0A16A21F4885141F002017E
:1009F000A162334923688B42E16904D1B1F5402FEC
:100A000001D14FF40021277B4FF4807C41EA47025B
:100A100061680A43A168614508D0012906D0002118
:100A200094F814E0BEF1010F02D00AE06146F7E746
:100A3000C7B1A76A47F02007A762E76A47F0010736
:100A4000E7625F6827F469470F435F60236899682E
:100A50001C4F394011439960A16861450BD00129B1
:100A600009D00CE0DFF860E0A7690EEB47370F43D1
:100A700047F40061E5E7218A0D05A5F58015216899
:100A8000CB6A23F470032B43CB62216889680F4B38
:100A90001940914208D1E662A16A21F0020141F0B9
:100AA0000101A162BDE8F081A06A20F0020040F0DF
:100AB0001000A062E06A40F00100E0620120F1E76E
:100AC000003C0140FDF7E1FF00E0FFFFFE0E1FFFCD
:100AD00008B500680649884208D10648816941F492
:100AE00000718161806900F40070009008BD000011
:100AF000002401400010024070B5044690F8240024
:100B000001280DD0012084F824002046FFF718FEAC
:100B100002004FF0000005D084F82400104670BD9C
:100B2000022070BDA16A40F20123994341F4807113
:100B3000A1621F4D23681F49AB4218D10E6816F4FD
:100B4000702F14D0A66A46F48016A6620E68760549
:100B500005D5A66A26F4005646F48056A662A66A13
:100B6000F6040AD5E66A26F00606E66206E0A66AFC
:100B700026F48016A6625E68E9E7E06284F8240045
:100B80006FF00200186020688368C3F34243072BAC
:100B900005D1A84208D1096811F4702F04D08168EA
:100BA00041F480118160B9E7816841F4A001F9E75F
:100BB000002801400424014010B590F821100022C3
:100BC000022905D00421816380F82020012010BD76
:100BD00001680B6823F00E030B6001680B6823F0BB
:100BE00001030B6090F84030C46B012101FA03F35C
:100BF000636080F8211080F82020104610BD0000AE
:100C00002DE9F05F90F821100024022903D004217F
:100C10008163012485E001680A6822F00E020A60FF
:100C200001680A6822F001020A603F4E3E4FB21589
:100C3000DFF8F4C0DFF8F090DFF8ECA0DFF8E8B000
:100C4000DFF8E4E00168783F13011502ACF1640CB1
:100C5000A9F15009AAF13C0AABF1280BAEF1140E30
:100C60004FF48018B14227D9B9420ED0614512D055
:100C700049451DD0514518D0594518D0714501D16D
:100C8000424615E0294EB14201D1012210E0274E23
:100C90001436B14201D110220AE0244E2836B14266
:100CA00006D0224A3C32914201D11A4600E02A463F
:100CB0001E49091F0A602BE0B94213D0614517D0C5
:100CC000494522D051451DD059451DD0714501D10E
:100CD00042461AE0B14202D14FF0807215E0134E45
:100CE000B14201D1012210E0104E1436B14201D1BF
:100CF00010220AE00D4E2836B14206D00B4A3C3293
:100D0000914201D11A4600E02A46074980394A60DB
:100D1000012180F82110002180F82010416B01B1E1
:100D200088472046BDE8F09F80000240080402404A
:100D30002DE9F05FC16B0A6801680B68046C4FF025
:100D4000040808FA04F8844D844E854FDFF814C275
:100D5000DFF81492DFF814A2DFF814B2DFF814E21F
:100D600018EA020F65D05FEA437862D50A689206F6
:100D700003D40A6822F004020A60DFF8F0814FF41D
:100D80008062016808F1140813011402414524D956
:100D9000A9420DD0B1420FD0B9421AD0614515D049
:100DA000494515D0514501D1120312E0594501D1F1
:100DB00004220EE0714501D140220AE06D4D143548
:100DC000A94206D06B4A2832914201D11A4600E06E
:100DD00022466749091F0A6029E0A94213D0B1429F
:100DE00015D0B94220D061451BD049451BD0514593
:100DF00002D14FF4800217E0414502D14FF08062EA
:100E000012E0594501D104220EE0714501D1402282
:100E10000AE0584D1435A94206D0564A283291426C
:100E200001D11A4600E022464B4908394A60C16A9E
:100E300071E04FF0020808FA04F818EA020F70D0C7
:100E40005FEA83786DD50A68920606D40A6822F0B4
:100E50000A020A60012180F82110DFF810814FF4A6
:100E60000072016808F1140813011402414524D9E5
:100E7000A9420DD0B1420FD0B9421AD0614515D068
:100E8000494515D0514501D1120312E0594501D110
:100E900002220EE0714501D120220AE0354D1435C1
:100EA000A94206D0334A2832914201D11A4600E0C5
:100EB00022462F49091F0A6029E0A94213D0B142F6
:100EC00015D0B94220D061451BD049451BD05145B2
:100ED00002D14FF4001217E0414502D14FF00072E9
:100EE00012E0594501D102220EE0714501D12022C4
:100EF0000AE0204D1435A94206D01E4A28329142FC
:100F000001D11A4600E02246134908394A600021FF
:100F100080F82010816A00291CD0BDE8F05F0847E6
:100F2000FFE70825A540154214D01A0712D50A6814
:100F300022F00E020A6090F84020C36B012101FAF2
:100F400002F25A60816380F82110002180F820109D
:100F5000016BE0E7BDE8F09F080002401C00024082
:100F60003000024044000240580002406C00024041
:100F7000080402401C04024030B560B11A4B0268FC
:100F800014219A4209D2194B1344B3FBF1F18900A1
:100F9000016417490AE0012030BD134B5B42134442
:100FA000B3FBF1F1890001640F490839C1630221E3
:100FB00080F82110136843F6F0718B43F0E90114B7
:100FC0002143D0E902452C4321430469214344696C
:100FD00021438469214319431160002141630122A7
:100FE00042770177084630BD08040240F8FFFDBF94
:100FF0000000024070B5044600F00AF90546601C86
:1010000002D004480078044400F002F9401BA042DA
:10101000FAD370BD000000202DE9F84FDFF8C89129
:101020000024A9F1040B23460F2709F1040AABF1B0
:10103000040ED1E00125A54006EA0502AA4276D1B8
:10104000DFF8A8C14E68A6EB0C0866452BD00DDC76
:10105000032E34D005DC36B3012E19D0022E2FD149
:101060001BE0112E16D0122E2AD119E0B8F5881FD8
:1010700019D006DCB8F5803F15D0B8F5801F1FD118
:1010800011E0B8F5001F0ED0B8F5041F18D10AE022
:10109000CB6815E0CB681B1D12E0CB6808330FE06E
:1010A000CB680C330CE08B682BB1012B4FF008039D
:1010B00003D0456104E0042302E0056100E0002361
:1010C000FF2A01D8064601E000F104064FEA840534
:1010D00001D9A5F12005D6F8008007FA05FC28EA19
:1010E0000C0803FA05F548EA0508C6F800804D68C3
:1010F000ED0070D53E4DAE6946F00106AE61AD69BA
:1011000024F0030605F0010500953A4D06EB050CA9
:10111000DCF80850A607360F07FA06F825EA080596
:10112000DFF8D480404503D14FF0000825E052E0BD
:10113000DFF8C880404502D14FF001081DE0DFF81C
:10114000C080404502D14FF0020816E0DFF8B480BD
:10115000404502D14FF003080FE0DFF8AC80404576
:1011600002D14FF0040808E0DFF8A080404502D12A
:101170004FF0050801E04FF0060808FA06F848EAC3
:101180000508CCF808804D68D9F80060ED024D469E
:1011900001D5164300E096432E604D68DAF80060F2
:1011A000AD02554601D5164300E096432E604D68CA
:1011B000DBF80060AD035D4601D5164300E09643C1
:1011C0002E604D68DEF80060ED03754601D51643CC
:1011D00000E096432E60641C0A681646E2407FF4E5
:1011E00029AFBDE8F88F000008040140000011108D
:1011F000001002400000014000080140000C0140C6
:10120000001001400014014000180140001C014082
:101210000148806870470000000000200248816893
:10122000027811448160704700000020074810B523
:10123000016841F010010160032000F075F8002002
:1012400000F006F800F024F8002010BD0020024055
:1012500070B50D4D04464FF47A712878B1FBF0F06B
:101260000A490968B1FBF0F000F0AEFB48B9102C58
:1012700007D200222146501E00F036F800206C6094
:1012800070BD012070BD0000000000200C00002097
:101290000C4808B5816941F001018161816901F063
:1012A00001010091C16941F08051C161C06900F044
:1012B000805000900448416821F0E06141F00071E5
:1012C000416008BD0010024000000140002809DB19
:1012D00000F01F02012191404009800000F1E02050
:1012E000C0F8001170470000F0B40E4B1B680C46AC
:1012F000C3F30223C3F10705042D00D90425191DEA
:10130000072901D2002300E0DB1E012606FA05F1C1
:10131000491E214099409E40761E16403143F0BC44
:1013200000F06EBF0CED00E0064900F0070208680F
:101330004FF6FF03184040EA0220034A10430860BA
:10134000704700000CED00E00000FA0510B5014602
:101350000020284C04292FD00BDC012930D0022991
:1013600029D100F06BF96168C1F38131491C490052
:101370001FE0082920D010291DD161682268D20100
:1013800019D51D48C1F38342C903805C0AD5616841
:10139000194AC1F34041921E515C184AB2FBF1F167
:1013A000484301E0164948436168490203D44000BC
:1013B0000321B0FBF1F010BDBDE8104000F04EB9C4
:1013C000226AC2F30121012903D1920701D5C80382
:1013D00010BD022905D1626A920702D549F6404044
:1013E00010BD0329FCD121688903F9D54FF22440AF
:1013F00010BD0000001002400C2C000800127A0002
:1014000000093D002DE9F84305460078354CC0073A
:1014100054D0E0690026C00008D4E06940F0805054
:10142000E061E069012600F0805000902E480168DC
:10143000C90512D40168804641F480710160FFF74C
:10144000E7FE074605E000BFFFF7E2FEC01B642889
:1014500023D8D8F80000C005F6D5206A10F44070F3
:1014600021D0A98801F4407181421CD0206A1F4913
:10147000012220F440700A6000220A602062C00746
:1014800011D0FFF7C5FE074641F2883808E000BFDB
:10149000FFF7BEFEC11B414502D90320BDE8F8831A
:1014A000206A8007F4D5206A696820F440700843F8
:1014B00020621EB1E06920F08050E061287880074A
:1014C00005D56068A96820F440400843606028782A
:1014D000C00605D56068696920F480000843606033
:1014E0000020DBE700100240007000404004424250
:1014F0002DE9F0470F46050061D0434E306800F0FB
:101500000700B84209D2306820F007003843306045
:10151000306800F00700B84251D128683B4C810781
:1015200012D5400703D5606840F4E0606060287819
:10153000000703D5606840F4605060606068A96887
:1015400020F0F000084360602878C00728D0686861
:10155000012810D02168022810D0890700292EDA2E
:10156000616821F0030101436160FFF751FE80468D
:1015700041F288390DE021688903EFE78901EDE741
:10158000FFF746FEA0EB0801494502D90320BDE85C
:10159000F0876068696800F00C00B0EB810FEFD154
:1015A000306800F00700B8420BD9306820F007001F
:1015B00038433060306800F00700B84201D00120A5
:1015C000E5E72878400705D56068E96820F4E06021
:1015D000084360602878000706D56068296920F410
:1015E000605040EAC100606000F038F86168084A65
:1015F000C1F30311515CC840064908600648006801
:10160000FFF726FE0020C2E7002002400010024043
:101610001C2C00080C000020040000200448054990
:1016200000684968044AC1F30221515CC840704710
:101630000C000020001002402C2C00080448054932
:1016400000684968044AC1F3C221515CC840704730
:101650000C000020001002402C2C00080E4A51689B
:101660000E4801F00C03042B11D0082B0FD10C48AD
:10167000C1F38343C903C05C0AD55168084AC1F36A
:101680004041921E515C054A5043B0FBF1F0704757
:1016900004494843704700000010024000127A00DD
:1016A000FA2B000800093D002DE9F84F040070D026
:1016B0002078C04DC00749D06868C0F38100012878
:1016C00007D06868C0F38100022809D16868C003A8
:1016D00006D52868800339D560680028E7D035E052
:1016E0006068B0F5803F0BD010B1B0F5A02F11D0DD
:1016F000286820F480302860286820F4802002E0E8
:10170000286840F480302860606890B1FFF780FD61
:1017100006460AE0286840F480202860F0E700BF11
:10172000FFF776FD801B642873D828688003F7D5FF
:101730000CE0FFF76DFD064605E000BFFFF768FD12
:10174000801B6428F0D828688003F7D420789A4E4C
:1017500080074FF001094FF0000839D5686810F094
:101760000C0F07D06868C0F38100022809D16868AF
:10177000C00306D42868800714D52069012808D141
:1017800010E02069B0B1C6F80090FFF741FD0746B0
:1017900005E00AE1FFF73CFDC01B0228C4D8286819
:1017A0008007F7D52868616920F0F80040EAC10099
:1017B00028600DE0C6F80080FFF72AFD074604E028
:1017C000FFF726FDC01B022823D828688007F7D41E
:1017D000207800072CD57948A169D9B1C0F80090CC
:1017E000FFF716FD074604E0FFF712FDC01B0228B5
:1017F0000FD8686A8007F7D571484FF4FA5100682E
:10180000B0FBF1F0009000BF0098411E0091FAD2A9
:101810000EE080E0C0F80080FFF7FAFC074604E025
:10182000FFF7F6FCC01B022875D8686A8007F7D45A
:101830002078400760D5E8690027C00008D4E8692F
:1018400040F08050E861E869012700F08050009086
:101850005C480168C90513D40168834641F480716E
:101860000160FFF7D5FC824606E000BFFFF7D0FC21
:10187000A0EB0A0064284ED8DBF80000C005F5D5BF
:10188000E06801280AD008B1052813D0286A20F0A2
:1018900001002862286A20F0040002E0286A40F073
:1018A00001002862E06841F2883B98B1FFF7B0FC84
:1018B00082460BE0286A40F004002862EEE700BF91
:1018C000FFF7A6FCA0EB0A0159455AD8286A800701
:1018D000F6D50CE0FFF79CFC824605E0FFF798FC8C
:1018E000A0EB0A0159454CD8286A8007F6D41FB1ED
:1018F000E86920F08050E861E06988B36968C1F365
:101900008101022944D00228C6F8608004D0FFF784
:101910007FFC044638E034E0FFF77AFC074604E039
:10192000FFF776FCC01B02282BD828688001F7D46B
:10193000206AB0F5803F05D16868A16820F40030C6
:1019400008436860D4E908010843696821F4741108
:1019500008436860C6F86090FFF75AFC044606E04A
:1019600025E000BFFFF754FC001B022809D82868B7
:101970008001F7D51BE000BFFFF74AFC001B0228DF
:1019800002D90320BDE8F88F28688001F4D40EE066
:101990000128F7D06868226A00F48031914204D1AE
:1019A000616A00F47010884201D00120EAE700204B
:1019B000E8E700000010024000004242800442427A
:1019C0000C0000200070004010B5401EB0F1807F78
:1019D00001D3012010BD4FF0E02460610F2160179A
:1019E00000F00EFC0020A06107202061002010BD47
:1019F00070477047F8B5016804460868CA684B69C3
:101A000010F00F0F4FF0000559D003F0010602F45B
:101A10009077374365D0C10705D0D10503D5616CF8
:101A200041F001016164410705D5D90703D0616C1C
:101A300041F002016164810705D5D90703D0616CCB
:101A400041F004016164010707D502F02001314330
:101A500003D0616C41F008016164616C00293AD0E7
:101A6000800604D5900602D5204600F0BAFA206818
:101A70004069616CC0F38010090700D460B3204650
:101A800000F088FA20684069400621D520681430AB
:101A900050E8001F21F0400140E80012002AF5D173
:101AA000E06BA8B16D494163E06BFFF7A9F800282E
:101AB00011D0E06B416B01B0BDE8F04008478306F0
:101AC0000FD593060DD52046BDE8F84000F089BA41
:101AD0002046FFF78EFFF8BD2046FFF78AFF6564BA
:101AE000F8BD266B2023012E7CD1C6067AD5D606FA
:101AF00078D508684868009048694FF002064006AB
:101B000040D5E16B086840680004000CE8D0A28D65
:101B10008242E5D9E085886920282DD020680C30E4
:101B200050E8001F21F4807140E80012002AF5D12E
:101B30002068143050E8001F21F0010140E8001235
:101B4000002AF5D12068143050E8001F21F0400130
:101B500040E80012002AF5D184F84230256320685D
:101B60000C3050E8001F21F0100140E80012002A5C
:101B7000F5D1E06BFFF720F86663A08DE18D401A88
:101B800081B22AE0A08DE18D401A81B2E08D00285B
:101B9000A6D00029A4D022680C3252E8000F20F40D
:101BA000907042E80007002FF5D12068143050E80B
:101BB000002F22F0010240E80027002FF5D184F821
:101BC0004230256320680C3050E8002F22F01002CC
:101BD00040E80023002BF5D166632046FFF708FF9D
:101BE000F8BDFFE705062BD5150629D594F8410069
:101BF0002128F5D1A068B0F5805F01D12069B0B18E
:101C0000206A411C2162216800784860E08C401EF7
:101C10000004000CE084E3D12068C16821F0800159
:101C2000C1602068C16841F04001C160D8E7206A06
:101C30000088C0F308004860206A801C2062E5E745
:101C40004006CDD55006CBD5CA68204622F04002CA
:101C5000CA6084F8413000F0DEF8C1E7851F000853
:101C600070B5040004D094F84100002510B106E0DE
:101C7000012070BD84F84050204600F023F8242055
:101C800084F841002068C16821F40051C1602046F9
:101C900000F008FA2068016921F490410161206890
:101CA000416921F02A0141612068C16841F4005175
:101CB000C1606564202084F8410084F842006563B7
:101CC000002070BD70B586B00025064600950195D0
:101CD000029503950068224988423FD121498869CD
:101CE00040F480408861886900F4804004908869ED
:101CF00040F00400886188691B4C00F004000490E7
:101D00004815009002200190032003906946204668
:101D1000FFF782F92015CDE90005694620460295B6
:101D2000FFF77AF9124C1148C4E900058020C4E994
:101D3000025020202561C4E905502046E561FFF7E7
:101D40001BF908B1FEF743FDF463002205212520AD
:101D50006662FFF7C9FA2520FFF7B8FA06B070BD32
:101D600000380140001002400008014058000240C5
:101D70008C00002070472DE9F843044690F841009C
:101D8000984616460D46202802D00220BDE8F8836A
:101D900085B17EB100206064212084F84100FFF706
:101DA00037FAA6848146E684A0682027B0F5805FD4
:101DB00002D003E00120E9E7206910B12E4600259A
:101DC0000EE000260CE08021204600F0C7F9A8B9FB
:101DD000C6B116F8010B21684860E08C401EE08413
:101DE000E08C4B464FF00002CDF800800028EAD18D
:101DF0004FF04001204600F0B1F940B184F8417045
:101E00000320C3E735F8020BC0F30800E3E784F8CA
:101E100041700020BAE77047FEE700003EB50021A0
:101E20001148009101910F4A0291026001248160E2
:101E3000047301754FF460220461C2614160FEF7D2
:101E4000B7FD08B1FEF7C3FC1020CDE90004072060
:101E5000029069460448FEF729FD002801D0FEF7EC
:101E6000B6FC3EBD0024014014000020094808B51E
:101E7000416941F0010141614069002200F0010027
:101E8000009005210F20FFF72FFABDE808400F2032
:101E9000FFF71CBA00100240094808B5816941F0FB
:101EA00010018161816901F010010091816941F0A7
:101EB00004018161806900F00400009008BD000009
:101EC000001002400C4810B50A4901604FF4E1319E
:101ED0004160002181600C22C160C0E9041281616F
:101EE000C161FFF7BDFE002803D0BDE81040FEF73A
:101EF0006EBC10BD0038014044000020FEE7FEE744
:101F000070477047FFF78AB930B595B02821684609
:101F1000FEF743F914210AA8FEF73FF918210FA88C
:101F2000FEF73BF901210804CDE9001000250295D8
:101F300002240491CDE907404FF4E010099068466F
:101F4000FFF7B2FB08B172B6FEE70AA90F2081E8DD
:101F500031004FF48060CDE90D0502210AA8FFF79A
:101F6000C7FA08B172B6FEE74FF4004011900F9423
:101F70000FA8FFF747FA002801D072B6FEE715B0A8
:101F800030BD704710B5406A0021C185C184FFF79C
:101F900030FD10BD01680C3151E8002F22F4907221
:101FA00041E80023002BF5D10168143151E8002FDE
:101FB00022F0010241E80023002BF5D1016B012939
:101FC00009D101680C3151E8002F22F0100241E8DC
:101FD0000023002BF5D1202180F84210002101635D
:101FE000704708B590F84210222901D0022008BDA0
:101FF00082684FF480539A4201D1016921B1816A0C
:102000009A421BD04AB10AE00268816A5268C2F360
:1020100008020A80816A891C08E0026972B10268BC
:10202000526802F07F020A70816A491C8162C18D88
:10203000491E0904090CC18503D01BE002685268DF
:10204000F1E70168CA6822F02002CA600168CA6824
:1020500022F48072CA6001684A6922F001024A6172
:10206000202180F8421000214163026B012A03D035
:10207000FFF780FE002008BD016301680C3151E8C4
:10208000002F22F0100241E80023002BF5D1016857
:102090000A68D20602D50A6849680091818DFFF767
:1020A000A7FCE7E770B5044600680169E26821F41F
:1020B0004051114301612169A068084361690843E7
:1020C0002168CA6841F20C639A430243CA602068DF
:1020D0004169A26921F44071114341611E492068A0
:1020E000884202D1FFF7AAFA01E0FFF797FA00EB66
:1020F000C00101EB0012606864218000B2FBF0F3C4
:10210000B3FBF1F36FF018067343B2FBF0F5B2FBCB
:10211000F0F605EB8305322303EB0515B5FBF1F56E
:10212000B6FBF1F605F0F00505EB0615B2FBF0F68F
:10213000B2FBF0F0B0FBF1F06FF01802504306EB89
:10214000800003EB0010B0FBF1F0216800F00F00FD
:102150002844886070BD0000003801402DE9F84334
:10216000984617460D460446089E24E0701C22D06F
:10217000FFF74EF8A0EB0800B0421AD8CEB12068A5
:10218000C168490717D5802D15D0402D13D001689F
:10219000C94309070FD40168002540680090204614
:1021A000FFF7F8FE0820606484F840500120BDE885
:1021B000F8830320FBE72068006835EA000004D0BC
:1021C0000020B842D2D00020F1E70120F9E700005A
:1021D0000148FFF70FBC000044000020FEE70000AC
:1021E0000FB4054B10B503A9044A029800F0EAF8B1
:1021F00010BC5DF814FB0000CD2A00081000002080
:102200000907090E002804DB00F1E02080F8001423
:10221000704700F00F0000F1E02080F8141D7047B7
:1022200002E008C8121F08C1002AFAD1704770479F
:10223000002001E001C1121F002AFBD170470000FD
:102240002DE9FF5F82B00021DDE90430020DDDF8E9
:1022500040B0034318D044F61050A2F2FF3242437C
:102260001514119801281FD0A5EB0B00401C5FEA44
:10227000000A4FF000064E4FDFF83891B046504646
:1022800015D5CAF1000413E0119801244AA30128CE
:1022900001D16FEA0B010298119AC0E90031C0E93F
:1022A000024206B0BDE8F09FCBF10000DFE7044634
:1022B0000021404A491842EB0450CDE9001012E0D9
:1022C000E00707D032463B4640464946FEF717F83E
:1022D0008046894632463B4610461946FEF70FF8BF
:1022E00006460F466410002CEAD1DDE90401DDE961
:1022F0000023BAF1000F06DAFEF701F842464B461A
:10230000FDF7FDFF05E0FEF76CF842464B46FEF791
:1023100068F804460E460022284BFEF7BBF903D8A6
:102320004FF0FF30014607E00022254B20463146A2
:10233000FDF73EFFFEF796F9102409E0002C0ADBBA
:102340000A220023FEF7DFF8039B30321A55641E81
:1023500050EA0102F2D1641C039AC4F1110314443F
:10236000119A012A03D0012208430DD10AE0084343
:1023700004D000204FF0110B119072E7A3EB0B0576
:102380006D1E0DE05B4504DD4FF0000205F1010517
:1023900004E003DA4FF00002A5F10105002AECD0B9
:1023A00002981199C0E90231C0E9004579E70000BF
:1023B000000014400000F03F300000000000F04337
:1023C0000000E03F2DE9FF4F95B09A46884606464B
:1023D0000025EEE1252877D100242746F94A01217E
:1023E000039400E0044316F8013F203B01FA03F098
:1023F0001042F7D130782A2811D06FF02F033078AF
:10240000A0F13002092A16D8039A44F0020402EB24
:10241000820203EB42021044761C0390EFE758F867
:10242000042B0392002A03DA504244F40054039030
:1024300044F00204761C30782E2816D116F8010FCD
:1024400044F004042A280DD06FF02F023078A0F158
:102450003003092B09D807EB870302EB4303C718A6
:10246000761CF3E758F8047B761C30786C280FD084
:1024700006DC4C2817D068280DD06A2814D104E057
:10248000742810D07A280FD10DE044F400140AE02B
:1024900044F4801401E044F440147278824202D182
:1024A00004F58014761C761C307866280BD013DC7B
:1024B000582877D009DC002875D04528F6D0462862
:1024C000F4D047281AD193E118E0632835D0642866
:1024D00079D0652812D18BE1702873D008DC672889
:1024E000F1D069286FD06E280DD06F2806D1ACE0EE
:1024F00073282CD0752874D0782853D05246179959
:1025000090476D1C54E1C4F30250022809D00328FF
:102510000DD0D8F8001004280DD00D6008F1040883
:1025200046E1D8F80010EA17C1E90052F6E7D8F8FA
:1025300000100D80F2E70D70F0E718F8041B8DF81D
:10254000001000208DF80100EB46012003E058F850
:1025500004BB4FF0FF3061074FF0000102D40DE0E3
:1025600009F101018946B9420FDA8145F8DB1BF810
:1025700009100029F4D108E009F1010189468142DE
:10258000FADB1BF809100029F6D103985346A0EB9B
:10259000090721463846179A00F080FA284400EBD4
:1025A000090507E044E008E10DE01BF8010B524685
:1025B00017999047B9F10109F7D253462146384699
:1025C000179AF2E039E00A21C4F302524FF0000BEF
:1025D0000091022A06D058F8040BC117032A09D02B
:1025E0000AE023E008F1070020F00702F2E8020108
:1025F000904605E000B2C117042A01D140B2C117CC
:10260000002906DA0A460021404261EB02012D2230
:1026100002E0220504D52B228DF80420012203E0DC
:10262000E20701D02022F7E7914657E00A2100E0B7
:1026300010214FF0000B00910BE010214FF0000B28
:1026400044F004040827009103E008204FF0000B39
:102650000090C4F30252022A05D058F8040B00215E
:10266000032A08D008E008F1070020F00702F2E88A
:102670000201904603E080B2042A00D1C0B24FF0BC
:10268000000922072AD53278702A07D0DDF800C069
:102690008CF0100C5CEA0B0C05D00EE040228DF89B
:1026A0000420012208E050EA010306D030238DF80F
:1026B00004308DF8052002229146009B83F0080328
:1026C00053EA0B030AD150EA010201D1620705D592
:1026D00030228DF804204FF001097F1E3278582AED
:1026E00004D039A20C920CAA02920BE03BA2F9E7AB
:1026F0005B46009AFDF707FF0C9B9B5C029A521EFB
:102700000292137050EA0102F2D1029804A9081A49
:1027100000F1200B600702D524F4803400E001278B
:102720005F4502DDA7EB0B0000E0002000EB0B0192
:10273000009003984944401A0390E00306D453469E
:102740002146179A039800F0A9F90544002706E0EE
:1027500001A85246C05D179990476D1C7F1C4F45DC
:10276000F6DBE0030CD553462146179A039800F098
:1027700095F9054404E030205246179990476D1CA6
:102780000099481E00900029F5DC08E002980299A3
:1027900052460078491C0291179990476D1CBBF175
:1027A0000001ABF1010BF1DC5BE100F065F90544E0
:1027B000761C307800287FF40DAE19B02846BDE8AD
:1027C000F08F0000092801003031323334353637BC
:1027D000383961626364656600000000303132336D
:1027E000343536373839414243444546000000000D
:1027F000600700D4062708F1070020F00700F0E882
:102800000223804603F0004C5FEA0C0001D097A041
:1028100009E0200501D596A005E0E00701D095A0CC
:1028200001E0AFF24C001390307823F000436528AC
:102830000CD006DC452809D046281DD047287FD17A
:102840003BE0662818D067287AD136E00021112FA6
:1028500001DB112000E0781CCDE9000104A90CA8DF
:10286000FFF7EEFCDDE90D010C9A4FF0000B07F1CC
:102870000109109200914EE04FF000400097CDE921
:10288000011004A90CA8FFF7DBFCDDE90D020C9B8D
:102890000F994FF0000B91461093009211B9791CDB
:1028A00000EB0109B7EB090003D4C0F1FF3B07F1CE
:1028B0000109A9EB0700019042E0012F00DA01278E
:1028C0000021112F01DD112000E03846CDE9000183
:1028D00004A90CA8FFF7B4FCDDE90D010C9A0091E6
:1028E0004FF0000BB946109221070FD4009A4A45C9
:1028F00003DA914601E0A9F10109B9F1010F05DD03
:10290000109AA9F10101515C3029F4D0B84202DAE1
:1029100010F1040F03DA0121CDE9011010E00028C5
:1029200003DC8344A9EB000102E0411C494500DDC2
:102930008946A0EB0B00401C01904FF00040029034
:10294000200705D40198484502DB4FF0FF30019085
:1029500000208DF84B0002980DF14B07B0F1004FAD
:1029600025D002200C902B200D90029800280CDA24
:10297000404202902D200D9007E00A210298FDF7B9
:10298000ACFD3031029007F8011D0C99481E0C90E7
:102990000029F2DC02980028EFD1791E0D9808700A
:1029A000307800F0200040F0450007F8020D11A833
:1029B000C01BC01D02901398007800B1012000EBED
:1029C0000901019801EBE071029801440398401A53
:1029D000401E0390E00306D453462146179A0398FD
:1029E00000F05CF805441398007818B15246179926
:1029F00090476D1CE00323D553462146179A039850
:102A000000F04CF805441BE0BBF1000F07DB009819
:102A1000584504DD1098179910F80B0001E017993C
:102A200030205246904701980BF1010B401E05F1F2
:102A30000105019004D12E205246179990476D1C34
:102A4000B9F10001A9F10109DEDC05E017F8010B7D
:102A50005246179990476D1C0299481E0290002912
:102A6000F4DC53462146179A03989EE62D00000099
:102A70002B000000200000002DE9F0410446002555
:102A80001E461746880404D405E039462020B04786
:102A90006D1C641EF9D52846BDE8F0812DE9F04192
:102AA000044600251E469046C80301D5302700E0A5
:102AB0002027880404D505E041463846B0476D1C00
:102AC000641EF9D52846BDE8F081000013B54FF625
:102AD000FF73012269460248FFF74DF900981CBDBB
:102AE000440000201CB5FEF7A1FBFFF70DFAFFF72D
:102AF000D3F9FFF7BBF9FFF7E5F9FFF78FF922A04C
:102B0000FFF76EFB2948FDF765FE2848FDF7F4FF47
:102B1000264800680168C9438907FBD4DFF890A004
:102B2000DFF890B0DFF89080DFF890901F48FDF755
:102B30003BFFFDF7C5FC0022214BFDF752FC4FF097
:102B40006632204BFDF7DBFB04460D4652465B46E2
:102B5000FDF7D2FB42464B46FDF743FC00221A4BE1
:102B6000FDF726FB06460F461048FDF71DFF014600
:102B700022462B4615A0CDE90067FFF731FB4FF445
:102B80007A70FEF737FAD1E74144432054656D70FF
:102B900065726174757265204368616E6E656C2044
:102BA00048414C20546573740A0000001400002052
:102BB000E17A14AE47E1F63F22FDF675E09C713FE5
:102BC00000FEAF4066660A400000394041444320A1
:102BD00056616C75653A202564202C566F6C3A203E
:102BE000252E326C6620562C54656D703A20252EA9
:102BF000326C6620430A0000010202030405060746
:102C000008090A0B0C0D0E0F101001020203040537
:102C1000060708090A0B0C0D0E0F1010000000002B
:102C2000000000000102030406070809000000007C
:102C300001020304542C00080000002014000000CE
:102C400020220008682C000814000020BC040000AA
:102C50003022000801000000100000000000000009
:082C600000127A0000000000E0
:0400000508000131BD
:00000001FF
