:020000040800F2
:1000000060060020B1010008B9010008BB0100082A
:10001000BD010008BF010008C10100080000000088
:10002000000000000000000000000000C301000804
:10003000C501000800000000C7010008C901000850
:10004000CB010008CB010008CB010008CB01000860
:10005000CB010008CB010008CB010008CB01000850
:10006000CB010008CB010008CB010008CB01000840
:10007000CB010008CB010008CB010008CB01000830
:10008000CB010008CB010008CB010008CB01000820
:10009000CB010008CB010008CB010008CB01000810
:1000A000CB010008CB010008CB010008CB01000800
:1000B000CB010008CB010008CB010008CB010008F0
:1000C000CB010008CB010008CB010008CB010008E0
:1000D000CB010008CB010008CB010008CB010008D0
:1000E000CB010008CB010008CB010008CB010008C0
:1000F000CB010008CB010008CB010008CB010008B0
:10010000CB010008CB010008CB010008CB0100089F
:10011000CB010008CB010008CB010008CB0100088F
:10012000CB010008CB010008CB010008CB0100087F
:1001300000F002F800F02CF80AA090E8000C8244CD
:100140008344AAF10107DA4501D100F021F8AFF2AA
:10015000090EBAE80F0013F0010F18BFFB1A43F0A5
:10016000010318475803000068030000002300241F
:1001700000250026103A28BF78C1FBD8520728BFB7
:1001800030C148BF0B6070471FB51FBD10B510BD13
:1001900000F031F81146FFF7F7FF00F083F900F0A7
:1001A0004FF803B4FFF7F2FF03BC00F057F800006C
:1001B0000948804709480047FEE7FEE7FEE7FEE7FB
:1001C000FEE7FEE7FEE7FEE7FEE7FEE70448054937
:1001D000054A064B7047000045040008310100083D
:1001E0006000002060060020600200206002002005
:1001F000704770477047754600F02CF8AE46050012
:100200006946534620F00700854618B020B5FFF731
:10021000DDFFBDE820404FF000064FF000074FF033
:1002200000084FF0000B21F00701AC46ACE8C00914
:10023000ACE8C009ACE8C009ACE8C0098D4670471D
:1002400010B50446AFF300802046BDE81040FFF72C
:10025000A8BF000000487047000000200149182096
:10026000ABBEFEE726000200704700B5034605E07E
:100270004FF47A7000F005F8581E83B2002BF7D1C6
:1002800000BD00EBC001C9004FF0E02251611146F2
:10029000096941F0040111611146096941F0010148
:1002A000116100BF4FF0E021096901F4803100299C
:1002B000F8D04FF0E021096921F001014FF0E02270
:1002C000116170471248806940F00400104988614C
:1002D0001048006820F0CC000E490860084600680D
:1002E00040F033000860081D006820F00C00091D74
:1002F00008600846006840F00300086005480C30BC
:10030000006840F20311084302490C31086070474D
:100310000010024000080140024909680143014AF7
:10032000116070470C080140024909688143014A85
:10033000116070470C08014000B50346064800688C
:100340001840012803D11846FFF7EEFF02E01846D7
:10035000FFF7E2FF00BD00000C08014010B500F0FF
:1003600001F810BD0CB500200190009033480068E2
:1003700040F480303149086000BF3048006800F424
:10038000003000900198401C0190009818B9019825
:10039000B0F5A06FF1D12948006800F4003010B129
:1003A0000120009001E0002000900098012843D136
:1003B0002348006840F010002149086008460068A2
:1003C00020F0070008600846006840F0020008605E
:1003D0001A4840681949486008464068486008461D
:1003E000406840F4806048600846406820F47C1013
:1003F00048600846406840F4E810486008460068D5
:1004000040F08070086000BF0C48006800F0007089
:100410000028F9D00948406820F0030007494860E7
:100420000846406840F00200486000BF034840684A
:1004300000F00C000828F9D10CBD000000100240AB
:100440000020024010B51348006840F00100114937
:10045000086008464068104908400E494860084650
:1004600000680E4908400B4908600846006820F4FF
:10047000802008600846406820F4FE0048604FF481
:100480001F008860FFF76AFF4FF0006004490860B2
:1004900010BD0000001002400000FFF8FFFFF6FE54
:1004A00008ED00E0FFF70EFF06E00120FFF744FF34
:1004B0004FF4FA70FFF7D9FEF7E70000CC0400080C
:0C04C00000000020600600006C01000835
:0400000508000131BD
:00000001FF
