:020000040800F2
:10000000880400204901000851010008530100083C
:1000100055010008570100085901000800000000C0
:100020000000000000000000000000005B0100086C
:100030005D010008000000005F010008B10B00082E
:100040006301000863010008630100086301000800
:1000500063010008630100086301000863010008F0
:1000600063010008630100086301000863010008E0
:10007000630100086301000863010008210700080C
:1000800063010008630100086301000863010008C0
:10009000630100086301000863010008610A0008A9
:1000A000630100082D0C00086301000863010008CB
:1000B0006301000863010008630100086301000890
:1000C0006301000863010008630100086301000880
:1000D000630100087D0C000863010008630100084B
:1000E000010A0008630100086301000863010008B9
:1000F0006301000863010008630100086301000850
:10010000630100086301000863010008630100083F
:100110006301000863010008650C00086301000822
:10012000630100086301000863010008630100081F
:10013000DFF810D000F0A4FA00480047AD15000821
:10014000AFF3008088040020064880470648004737
:10015000FEE7FEE7FEE7FEE7FEE7FEE7FEE7FEE777
:10016000FEE7FEE7CD0B0008310100082DE9FE4F48
:10017000804681EA0300C00F0C46009021F0004148
:1001800023F00045B8EB0200A94105D240462146C4
:1001900090461C460B46024623F00040104347D0D1
:1001A000270DC7F30A00C3F30A510290401A0190C9
:1001B00040286BDAC3F3130040F4801B009892468A
:1001C00020B10023D2EB030A63EB0B0B01985946D5
:1001D000C0F14002504600F0A5F906460D465046D3
:1001E0005946019A00F0ADF910EB08006141002476
:1001F00087EA115284EAE7731A4340D0009A62B347
:10020000019A012A4FEA075215DC001B61EB02013B
:100210004FF0004202EA0752CDE90042001C41F5CE
:10022000801132462B4600F0ADF903B0BDE8F08FE7
:1002300040462146F9E7001B61EB0201001C41F535
:10024000801300185B412018A2F5001747EB03014B
:1002500040EAD570B6196D4111E06D084FEA3606D7
:1002600045EAC0754FEA0752001B61EB0201001C12
:1002700041F5801149084FEA3000001951413246DA
:100280002B4603B0BDE8F04F00F06DB90098012295
:1002900040000023D0EB020263EBE073009821469C
:1002A0004FEAE074B8EB000061EB0401E9E783F08A
:1002B00000435BE781F0004158E72DE9FE4F81EAFA
:1002C000030404F0004421F0004100944FF0000BBF
:1002D00023F0004350EA01045ED052EA03045BD0ED
:1002E000C3F30A54C1F30A552C44A4F2F334019425
:1002F000A0FB0254C1F3130141F48011C3F31303B3
:1003000043F4801301FB024400FB034E840A970A66
:1003100044EA815447EA8357A4FB076802958D0A93
:1003200005FB07854FEA932C04FB0C542705029D1F
:100330004FEA065847EA1637B5EB08056EEB070C8F
:10034000870E920E47EA811742EA8312A7FB020149
:10035000B6EB0B0164EB00042B0D43EA0C335E1883
:1003600044EB1C50DA465146E7FB0201C5F3130487
:100370004FEA0B3343EA14534FEA0432019C43EA39
:100380000603A4F10C040294009CCDE900B400F033
:10039000F9F803B0BDE8F08F00200146F9E72DE938
:1003A000F04D81EA030404F0004B21F000451446AF
:1003B0004FF0000A23F0004150EA050220D054EA31
:1003C00001021DD0C5F30A570246C5F31303C1F35A
:1003D0001300C1F30A5640F4801543F48013A7EBD1
:1003E0000608101BD64608F2FD3873EB050002D351
:1003F00008F1010801E092185B41B8F1000F03DA3F
:1004000000200146BDE8F08D00204FF48011064623
:1004100084460EE0171B73EB050705D3121B63EB35
:10042000050306434CEA010C49084FEA30009218D4
:100430005B4150EA0107EDD152EA030012D082EA93
:10044000040083EA0501084305D0101BAB4106D226
:100450000122002306E000224FF0004302E06FF08B
:10046000010253101AEB06004CEB085110EB0A0086
:1004700041EB0B01BDE8F04D00F075B80EB540F250
:10048000334102910021CDE900110A460B4600F0EC
:1004900079F803B000BD30B50B460146002020229C
:1004A000012409E021FA02F59D4205D303FA02F581
:1004B000491B04FA02F52844151EA2F10102F1DCE1
:1004C00030BD2DE9F05F0546002092469B468846E8
:1004D0000646814640241BE02846414647462246C0
:1004E00000F0E0F853465A46C01A914110D3114625
:1004F0001846224600F016F82D1A67EB01084F4601
:1005000022460120002100F00DF817EB00094E41B2
:10051000201EA4F10104DFDC484631462A4643464A
:10052000BDE8F09F202A04DB203A00FA02F1002007
:1005300070479140C2F1200320FA03F31943904021
:100540007047202A06DBCB17203A41FA02F043EA33
:10055000E07306E041FA02F3D040C2F1200291407C
:1005600008431946704710B5141E73F1000408DAE9
:10057000401C41F1000192185B411A4301D120F067
:10058000010010BD2DE9F04D92469B4611B1B1FA24
:1005900081F202E0B0FA80F220329046FFF7C2FF0B
:1005A00004460F4640EA0A0041EA0B0153465A4608
:1005B000084313D0114653EA010019D0C8F1400294
:1005C000504600F06FF805460E46504659464246E2
:1005D000FFF7A8FF084305D0012004E02046394674
:1005E000BDE8F08D0020054346EAE0762C43374312
:1005F0000A986305E40AA0EB08000022FD0A44EA19
:1006000047540A3002D500200146E9E701051019D8
:100610006941DDE9084500196941BDE8F04DA2E7EF
:10062000C1F30A52C1F3130140F2FF3341F48011C8
:100630009A4202DA00200146704740F233439A4260
:10064000A2F2334202DC524200F02CB8FFF76ABF3C
:1006500030B5041E71F1000404DB4FF00044404249
:1006600064EB0101141E73F1000405DB1C464FF01E
:100670000043524263EB0403994208BF904230BDED
:10068000064C074D06E0E06840F0010394E80700DF
:1006900098471034AC42F6D3FFF74EFD44160008DD
:1006A00064160008202A04DB203A21FA02F0002117
:1006B000704721FA02F3D040C2F120029140084372
:1006C0001946704700B5034603E04FF47A7000F016
:1006D00006F8181EA3F101018BB2F6D100BD00EBA4
:1006E000C001C9004FF0E02251611146096941F093
:1006F000040111611146096941F00101116100BF56
:100700004FF0E021096901F480310029F8D04FF061
:10071000E021096921F001014FF0E02211617047E9
:1007200010B50448406840F400300249486000F0C9
:10073000BFF810BD000002400148006880B2704759
:100740004C2401402DE9FC5FDFF834A0DFF834B021
:100750000D490E48CDE9001000F01CF880465246C5
:100760005B46FFF7A7FD0646DDE90023FFF717FE0E
:1007700004460022064BFFF7F9FCBDE8FC9F000091
:10078000E17A14AE47E1F63F22FDF675E09C713F39
:10079000000039402DE9F041FFF7CEFF8046FFF71A
:1007A0006DFE06460022054BFFF7F9FD04464FF0AB
:1007B0006632034BFFF781FDBDE8F08100FEAF40DC
:1007C00066660A402648806940F4007024498861C2
:1007D0000846406840F4004048600846406820F4FD
:1007E000804048601F48006840F480101D49086040
:1007F0000846006840F4002008600846006840F49D
:100800008020086017482030006820F470001549E7
:100810002031086013482830006820F01F0011497B
:10082000283108600846006840F0100008600D4854
:100830000838006820F480700A4908390860081DEB
:10084000006840F00200091D08600846006820F4B6
:10085000006008600846006840F4000008607047C7
:10086000001002400C2401401048006840F00100D4
:100870000E4908600846006840F00400086000BFA8
:100880000A48006800F004000028F9D10748006811
:1008900040F001000549086000BF044808380068BE
:1008A00000F002000028F8D0704700000824014042
:1008B000704770470348008820F001000149088014
:1008C00070470000002C01407047000010B53E4802
:1008D000806940F004003C4988610846806940F422
:1008E000804088613948006840F03000374908602E
:1008F0000846006840F0800008600846006820F064
:10090000400008600846006820F44070086008460F
:10091000006820F4006008600846006840F48060C9
:1009200008602B48008840F4005029490880084698
:10093000008840F0080008800846008840F0040065
:1009400008800846008820F4805008800846008807
:1009500020F480600880081D008820F44050091DA4
:10096000088040F271201A49091F088003200246BE
:10097000184B19684FF6FF031940174B0B4343EA16
:100980000221144B196000BF25200521002808DA38
:100990000A07140E0F4A0C3200F00F031B1FD45429
:1009A00003E00A07130E0D4A135400BF252000F080
:1009B0001F02012191404209920002F1E022C2F897
:1009C000001100BF10BD00000010024004080140EB
:1009D0000C3801400CED00E00000FA0500E400E0F6
:1009E0007047000000BF0549098801F08001002917
:1009F000F9D00249091D0880704700000038014005
:100A000010B51548006800F4806078B1124800689D
:100A100040F48060104908600A20FFF753FE0F4839
:100A2000006800F4806008B100F04CF80A480068E3
:100A300000F4006078B10848006840F4006006499E
:100A400008600A20FFF73EFE0448006800F40060DA
:100A500008B100F038F810BD14040140081C014032
:100A600010B51548006800F4807078B1124800682D
:100A700040F48070104908600A20FFF723FE0F48F9
:100A8000006800F4807008B900F01AF80A4800689D
:100A900000F4007078B10848006840F4007006491E
:100AA00008600A20FFF70EFE0448006800F400709A
:100AB00008B900F006F810BD14040140081C0140FC
:100AC000704770477047704710B500F001F810BDCF
:100AD0000CB50020019000903348006840F480304D
:100AE0003149086000BF3048006800F400300090D1
:100AF0000198401C0190009818B90198B0F5A06FBA
:100B0000F1D12948006800F4003010B101200090B4
:100B100001E0002000900098012843D1234800689C
:100B200040F01000214908600846006820F00700E6
:100B300008600846006840F0020008601A484068F3
:100B4000194948600846406848600846406840F4D3
:100B5000806048600846406820F47C104860084681
:100B6000406840F4E81048600846006840F0807033
:100B7000086000BF0C48006800F000700028F9D041
:100B80000948406820F0030007494860084640686B
:100B900040F00200486000BF0348406800F00C00CD
:100BA0000828F9D10CBD00000010024000200240CE
:100BB00010B50548008820B103480088401E02494E
:100BC0000880FFF776FE10BD0200002010B5134824
:100BD000006840F00100114908600846406810496B
:100BE00008400E494860084600680E4908400B4915
:100BF00008600846006820F48020086008464068C5
:100C000020F4FE0048604FF41F008860FFF75CFF8F
:100C10004FF000600449086010BD00000010024061
:100C20000000FFF8FFFFF6FE08ED00E010B50648F3
:100C3000008820F0010004490880FFF73BFE03A074
:100C400000F046F810BD0000102C014054494D3111
:100C50005F55505F49525148616E646C6572202146
:100C60002121000010B50448008A20F0010002494B
:100C70000882FFF729FE10BD0010004010B5114892
:100C8000008800F020000F49088050B1081D00883E
:100C90000D490E4A128888540C480088401C0B49A4
:100CA00008800848008800F0100050B1074801880B
:100CB0000548FFF795FE0020044908800148001D03
:100CC000008810BD0038014008000020000000200E
:100CD0000FB4054B10B503A9044A029800F0DAF8E6
:100CE00010BC5DF814FB00009B15000804000020F8
:100CF00002E008C8121F08C1002AFAD170477047E5
:100D0000002001E001C1121F002AFBD17047000042
:100D10002DE9FF5F82B00021DDE90430020DDDF82E
:100D200040B0034318D044F61050A2F2FF324243C1
:100D30001514119801281FD0A5EB0B00401C5FEA89
:100D4000000A4FF000064E4FDFF83891B04650468B
:100D500015D5CAF1000413E0119801244AA3012813
:100D600001D16FEA0B010298119AC0E90031C0E984
:100D7000024206B0BDE8F09FCBF10000DFE7044679
:100D80000021404A491842EB0450CDE9001012E01E
:100D9000E00707D032463B4640464946FFF78DFA0A
:100DA0008046894632463B4610461946FFF785FA8B
:100DB00006460F466410002CEAD1DDE90401DDE9A6
:100DC0000023BAF1000F06DAFFF777FA42464B46E6
:100DD000FFF773FA05E0FFF7E2FA42464B46FFF7EA
:100DE000DEFA04460E460022284BFFF731FC03D8FA
:100DF0004FF0FF30014607E00022254B20463146E8
:100E0000FFF7B4F9FFF70CFC102409E0002C0ADB13
:100E10000A220023FFF755FB039B30321A55641E4C
:100E200050EA0102F2D1641C039AC4F11103144484
:100E3000119A012A03D0012208430DD10AE0084388
:100E400004D000204FF0110B119072E7A3EB0B05BB
:100E50006D1E0DE05B4504DD4FF0000205F101055C
:100E600004E003DA4FF00002A5F10105002AECD0FE
:100E700002981199C0E90231C0E9004579E7000004
:100E8000000014400000F03F300000000000F0437C
:100E90000000E03F2DE9FF4F95B09A468846064690
:100EA0000025EEE1252877D100242746F94A0121C3
:100EB000039400E0044316F8013F203B01FA03F0DD
:100EC0001042F7D130782A2811D06FF02F033078F4
:100ED000A0F13002092A16D8039A44F0020402EB6A
:100EE000820203EB42021044761C0390EFE758F8AD
:100EF000042B0392002A03DA504244F40054039076
:100F000044F00204761C30782E2816D116F8010F12
:100F100044F004042A280DD06FF02F023078A0F19D
:100F20003003092B09D807EB870302EB4303C718EB
:100F3000761CF3E758F8047B761C30786C280FD0C9
:100F400006DC4C2817D068280DD06A2814D104E09C
:100F5000742810D07A280FD10DE044F400140AE070
:100F600044F4801401E044F440147278824202D1C7
:100F700004F58014761C761C307866280BD013DCC0
:100F8000582877D009DC002875D04528F6D04628A7
:100F9000F4D047281AD193E118E0632835D06428AB
:100FA00079D0652812D18BE1702873D008DC6728CE
:100FB000F1D069286FD06E280DD06F2806D1ACE033
:100FC00073282CD0752874D0782853D0524617999E
:100FD00090476D1C54E1C4F30250022809D0032845
:100FE0000DD0D8F8001004280DD00D6008F10408C9
:100FF00046E1D8F80010EA17C1E90052F6E7D8F840
:1010000000100D80F2E70D70F0E718F8041B8DF862
:10101000001000208DF80100EB46012003E058F895
:1010200004BB4FF0FF3061074FF0000102D40DE028
:1010300009F101018946B9420FDA8145F8DB1BF855
:1010400009100029F4D108E009F101018946814223
:10105000FADB1BF809100029F6D103985346A0EBE0
:10106000090721463846179A00F080FA284400EB19
:10107000090507E044E008E10DE01BF8010B5246CA
:1010800017999047B9F10109F7D2534621463846DE
:10109000179AF2E039E00A21C4F302524FF0000B34
:1010A0000091022A06D058F8040BC117032A09D070
:1010B0000AE023E008F1070020F00702F2E802014D
:1010C000904605E000B2C117042A01D140B2C11711
:1010D000002906DA0A460021404261EB02012D2276
:1010E00002E0220504D52B228DF80420012203E022
:1010F000E20701D02022F7E7914657E00A2100E0FD
:1011000010214FF0000B00910BE010214FF0000B6D
:1011100044F004040827009103E008204FF0000B7E
:101120000090C4F30252022A05D058F8040B0021A3
:10113000032A08D008E008F1070020F00702F2E8CF
:101140000201904603E080B2042A00D1C0B24FF001
:10115000000922072AD53278702A07D0DDF800C0AE
:101160008CF0100C5CEA0B0C05D00EE040228DF8E0
:101170000420012208E050EA010306D030238DF854
:1011800004308DF8052002229146009B83F008036D
:1011900053EA0B030AD150EA010201D1620705D5D7
:1011A00030228DF804204FF001097F1E3278582A32
:1011B00004D039A20C920CAA02920BE03BA2F9E7F0
:1011C0005B46009AFFF77DF90C9B9B5C029A521ECE
:1011D0000292137050EA0102F2D1029804A9081A8F
:1011E00000F1200B600702D524F4803400E00127D1
:1011F0005F4502DDA7EB0B0000E0002000EB0B01D8
:10120000009003984944401A0390E00306D45346E3
:101210002146179A039800F0A9F90544002706E033
:1012200001A85246C05D179990476D1C7F1C4F4521
:10123000F6DBE0030CD553462146179A039800F0DD
:1012400095F9054404E030205246179990476D1CEB
:101250000099481E00900029F5DC08E002980299E8
:1012600052460078491C0291179990476D1CBBF1BA
:101270000001ABF1010BF1DC5BE100F065F9054425
:10128000761C307800287FF40DAE19B02846BDE8F2
:10129000F08F000009280100303132333435363701
:1012A00038396162636465660000000030313233B2
:1012B0003435363738394142434445460000000052
:1012C000600700D4062708F1070020F00700F0E8C7
:1012D0000223804603F0004C5FEA0C0001D097A087
:1012E00009E0200501D596A005E0E00701D095A012
:1012F00001E0AFF24C001390307823F000436528F2
:101300000CD006DC452809D046281DD047287FD1BF
:101310003BE0662818D067287AD136E00021112FEB
:1013200001DB112000E0781CCDE9000104A90CA824
:10133000FFF7EEFCDDE90D010C9A4FF0000B07F111
:101340000109109200914EE04FF000400097CDE966
:10135000011004A90CA8FFF7DBFCDDE90D020C9BD2
:101360000F994FF0000B91461093009211B9791C20
:1013700000EB0109B7EB090003D4C0F1FF3B07F113
:101380000109A9EB0700019042E0012F00DA0127D3
:101390000021112F01DD112000E03846CDE90001C8
:1013A00004A90CA8FFF7B4FCDDE90D010C9A00912B
:1013B0004FF0000BB946109221070FD4009A4A450E
:1013C00003DA914601E0A9F10109B9F1010F05DD48
:1013D000109AA9F10101515C3029F4D0B84202DA27
:1013E00010F1040F03DA0121CDE9011010E000280B
:1013F00003DC8344A9EB000102E0411C494500DD08
:101400008946A0EB0B00401C01904FF00040029079
:10141000200705D40198484502DB4FF0FF300190CA
:1014200000208DF84B0002980DF14B07B0F1004FF2
:1014300025D002200C902B200D90029800280CDA69
:10144000404202902D200D9007E00A210298FFF7FC
:1014500022F83031029007F8011D0C99481E0C90BB
:101460000029F2DC02980028EFD1791E0D9808704F
:10147000307800F0200040F0450007F8020D11A878
:10148000C01BC01D02901398007800B1012000EB32
:101490000901019801EBE071029801440398401A98
:1014A000401E0390E00306D453462146179A039842
:1014B00000F05CF805441398007818B1524617996B
:1014C00090476D1CE00323D553462146179A039895
:1014D00000F04CF805441BE0BBF1000F07DB00985F
:1014E000584504DD1098179910F80B0001E0179982
:1014F00030205246904701980BF1010B401E05F138
:101500000105019004D12E205246179990476D1C79
:10151000B9F10001A9F10109DEDC05E017F8010BC2
:101520005246179990476D1C0299481E0290002957
:10153000F4DC53462146179A03989EE62D000000DE
:101540002B000000200000002DE9F041044600259A
:101550001E461746880404D405E039462020B047CB
:101560006D1C641EF9D52846BDE8F0812DE9F041D7
:10157000044600251E469046C80301D5302700E0EA
:101580002027880404D505E041463846B0476D1C45
:10159000641EF9D52846BDE8F08170B504460D46B5
:1015A000E0B2FFF71FFA204670BD00001CB5FFF740
:1015B0008DF910A0FFF78CFBFFF704F9FFF754F942
:1015C00016E0FFF7BFF804460D46FFF7E3F80646BE
:1015D0000F46FFF7B1F8804632463B4641460CA025
:1015E000CDE90045FFF774FB4FF47A70FFF76AF816
:1015F000E7E7000053544D333220414443315F4903
:101600004E3130204578616D706C653A200A0000DB
:10161000414443315F494E31305F56616C75653AE4
:10162000202564202C566F6C3A20252E326C6620C3
:10163000562C54656D703A20252E326C6620430A74
:1016400000000000641600080000002008000000F0
:10165000F00C00086C160008080000208004000050
:0C166000000D0008000000000000000069
:0400000508000131BD
:00000001FF
