:020000040800F2
:10000000880400204901000851010008530100083C
:1000100055010008570100085901000800000000C0
:100020000000000000000000000000005B0100086C
:100030005D010008000000005F0100088908000859
:100040006301000863010008630100086301000800
:1000500063010008630100086301000863010008F0
:1000600063010008630100086301000863010008E0
:100070006301000863010008630100088D020008A5
:1000800063010008630100086301000863010008C0
:10009000630100086301000863010008CD05000842
:1000A00063010008050900086301000863010008F6
:1000B0006301000863010008630100086301000890
:1000C0006301000863010008630100086301000880
:1000D0006301000855090008630100086301000876
:1000E0006D05000863010008630100086301000852
:1000F0006301000863010008630100086301000850
:10010000630100086301000863010008630100083F
:1001100063010008630100083D090008630100084D
:10012000630100086301000863010008630100081F
:10013000DFF810D000F05AF800480047510E0008D0
:10014000AFF3008088040020064880470648004737
:10015000FEE7FEE7FEE7FEE7FEE7FEE7FEE7FEE777
:10016000FEE7FEE7A5080008310100082DE9F05F71
:100170000546002092469B46884606468146402416
:100180001BE0284641464746224600F041F85346C8
:100190005A46C01A914110D311461846224600F023
:1001A00016F82D1A67EB01084F4622460120002160
:1001B00000F00DF817EB00094E41201EA4F10104D8
:1001C000DFDC484631462A464346BDE8F09F202AF8
:1001D00004DB203A00FA02F1002070479140C2F19E
:1001E000200320FA03F3194390407047064C074D53
:1001F00006E0E06840F0010394E8070098471034F7
:10020000AC42F6D3FFF798FF180F0008380F00082C
:10021000202A04DB203A21FA02F00021704721FA5B
:1002200002F3D040C2F120029140084319467047C2
:1002300000B5034603E04FF47A7000F006F8181E8C
:10024000A3F101018BB2F6D100BD00EBC001C900E2
:100250004FF0E02251611146096941F0040111613A
:100260001146096941F00101116100BF4FF0E02121
:10027000096901F480310029F8D04FF0E0210969C3
:1002800021F001014FF0E0221161704710B50448E0
:10029000406840F400300249486000F003F810BDA7
:1002A00000000240704700004348806940F00400AD
:1002B000414988610846806940F01000886108461D
:1002C000806940F4805088613C48406840F44010A8
:1002D0003A4948600846406820F440004860384881
:1002E000006840F44010364908600846006840F451
:1002F000000008600846006820F480000860084696
:10030000006840F0405008600846006840F0004037
:1003100008600846006820F08040086008460068D1
:1003200020F0407008600846006820F00060086017
:100330000846006840F0806008602048C06840F4CB
:1003400000501E49C8601F48008820F020001D4949
:1003500008800846008820F01000088008460088C1
:1003600040F0080008800846008820F0020008805D
:100370000846008820F0010008800846008820F424
:10038000006008800846008820F080000880084649
:10039000008840F4007008800846008840F48070AF
:1003A00008800846008840F004000880084600885D
:1003B00040F04000088070470010024000100140EB
:1003C00000080140003001400348C06820F400509C
:1003D0000149C86070470000001001400348C06830
:1003E00040F400500149C86070470000001001400F
:1003F00000BF0949098901F002010029F9D0064925
:10040000888100BF0449098901F001010029F9D060
:1004100001498989C8B27047003001407047000027
:100420000348008820F0010001490880704700005F
:10043000002C01407047000010B53E48806940F034
:1004400004003C4988610846806940F48040886126
:100450003948006840F030003749086008460068B5
:1004600040F0800008600846006820F04000086006
:100470000846006820F4407008600846006820F4D0
:10048000006008600846006840F4806008602B48FF
:10049000008840F40050294908800846008840F050
:1004A000080008800846008840F0040008800846DC
:1004B000008820F4805008800846008820F480607E
:1004C0000880081D008820F44050091D088040F273
:1004D00071201A49091F088003200246184B196829
:1004E0004FF6FF031940174B0B4343EA0221144B0D
:1004F000196000BF25200521002808DA0A07140E1C
:100500000F4A0C3200F00F031B1FD45403E00A07FC
:10051000130E0D4A135400BF252000F01F020121C5
:1005200091404209920002F1E022C2F8001100BF9E
:1005300010BD000000100240040801400C380140CA
:100540000CED00E00000FA0500E400E07047000058
:1005500000BF0549098801F080010029F9D002494E
:10056000091D0880704700000038014010B515488B
:10057000006800F4806078B11248006840F4806040
:10058000104908600A20FFF753FE0F48006800F486
:10059000806008B100F04CF80A48006800F4006080
:1005A00078B10848006840F40060064908600A20F5
:1005B000FFF73EFE0448006800F4006008B100F058
:1005C00038F810BD14040140081C014010B515484E
:1005D000006800F4807078B11248006840F48070C0
:1005E000104908600A20FFF723FE0F48006800F456
:1005F000807008B900F01AF80A48006800F400702A
:1006000078B10848006840F40070064908600A2084
:10061000FFF70EFE0448006800F4007008B900F00F
:1006200006F810BD14040140081C014070477047D3
:100630007047704710B5FFF7C7FE0420FFF7D8FEDC
:10064000FFF7CCFE10BD70B505460C4600F063F810
:1006500000F02EF8FFF7B8FE2020FFF7C9FE28466D
:10066000FFF7C6FE2107080EFFF7C2FE0020FFF7C6
:10067000BFFEFFF7B3FEFFF7DDFF70BD70B50546A7
:100680000C46FFF7A1FE9F20FFF7B2FE0020FFF708
:10069000AFFE28700020FFF7ABFE00022080002094
:1006A000FFF7A6FE218808432080FFF797FE70BD64
:1006B00010B5FFF789FE0620FFF79AFEFFF78EFEC2
:1006C00010BD2DE9F04780460D4616461F46DDE970
:1006D000089A00F020F8FFF777FE0320FFF788FE66
:1006E0004046FFF785FE314665F31F11C8B2FFF79C
:1006F0007FFE3846FFF77CFE002406E00020FFF76F
:1007000077FE09F80400601C84B25445F6DBFFF75D
:1007100065FEBDE8F08710B500BFFFF755FE052068
:10072000FFF766FE0020FFF763FE0446FFF756FE64
:100730000120FFF77DFD04F001000028EDD110BD80
:100740002DE9F04780460D4616461F46DDF82090FD
:1007500029464046FFF777FFFFF7DDFFFFF7A8FFC9
:10076000FFF732FE0220FFF743FE4046FFF740FE50
:10077000314665F31F11C8B2FFF73AFE0020FFF7BC
:1007800037FE002404E0385DFFF732FE601C84B2BF
:100790004C45F8DBFFF722FEFFF74CFFBDE8F08782
:1007A00010B500F001F810BD0CB5002001900090CC
:1007B0003348006840F480303149086000BF304859
:1007C000006800F4003000900198401C01900098EF
:1007D00018B90198B0F5A06FF1D12948006800F46C
:1007E000003010B10120009001E00020009000983E
:1007F000012843D12348006840F0100021490860D7
:100800000846006820F0070008600846006840F0CD
:10081000020008601A484068194948600846406864
:1008200048600846406840F4806048600846406878
:1008300020F47C1048600846406840F4E8104860A6
:100840000846006840F08070086000BF0C480068EF
:1008500000F000700028F9D00948406820F003003B
:10086000074948600846406840F00200486000BF01
:100870000348406800F00C000828F9D10CBD0000C6
:10088000001002400020024010B50548008820B149
:1008900003480088401E02490880FFF7BFFD10BDD5
:1008A0000200002010B51348006840F00100114913
:1008B000086008464068104908400E4948600846EC
:1008C00000680E4908400B4908600846006820F49B
:1008D000802008600846406820F4FE0048604FF41D
:1008E0001F008860FFF75CFF4FF00060044908605C
:1008F00010BD0000001002400000FFF8FFFFF6FEF0
:1009000008ED00E010B50648008820F00100044919
:100910000880FFF785FD03A000F046F810BD000039
:10092000102C014054494D315F55505F4952514898
:10093000616E646C657220212121000010B50448AD
:10094000008A20F0010002490882FFF773FD10BD04
:100950000010004010B51148008800F020000F4939
:10096000088050B1081D00880D490E4A128888542D
:100970000C480088401C0B4908800848008800F09B
:10098000100050B1074801880548FFF7DFFD00203F
:10099000044908800148001D008810BD003801404E
:1009A00008000020000000200FB4054B10B503A97B
:1009B000044A029800F018F810BC5DF814FB00001F
:1009C0003F0E00080400002002E008C8121F08C102
:1009D000002AFAD170477047002001E001C1121FC0
:1009E000002AFBD1704700002DE9FF4F8DB00F4664
:1009F0000546002606E025280BD0DDE90F129047BA
:100A00006D1C761C28780028F5D111B03046BDE861
:100A1000F08F0024A246A1460122E94900E00443E8
:100A200015F8013F203B02FA03F00842F7D128787D
:100A30002A2810D06FF02F022878A0F13001092960
:100A400014D80AEB8A0102EB410144F0020400EBE6
:100A5000010A6D1CF0E701CF5FEA000A03D544F4F8
:100A60000054CAF1000A44F002046D1C28782E28B4
:100A700017D115F8010F44F004042A280ED06FF0A6
:100A80002F022878A0F1300109290AD809EB890141
:100A900002EB410100EB01096D1CF2E757F8049BE2
:100AA0006D1C28786C280FD006DC4C2817D06828DD
:100AB0000DD06A2814D104E0742810D07A280FD100
:100AC0000DE044F400140AE044F4801401E044F41E
:100AD00040146978814202D104F580146D1C6D1CAC
:100AE00028786E281ED00CDC632830D004DC002867
:100AF0008BD0582811D19FE0642867D069280CD189
:100B000064E073282DD004DC6F2872D0702804D1E3
:100B100094E075286ED078286DD0DDE90F129047EB
:100B2000761C4BE1C4F30250022806D0032809D0FA
:100B3000042801CF09D0066040E101CFF117C0E9D8
:100B400000613BE101CF068038E1067036E117F81D
:100B5000040B8DF8000000208DF80100EB46012009
:100B600003E057F804BB4FF0FF3061074FF000017E
:100B700002D40DE008F10101884649450FDA8045AD
:100B8000F8DB1BF808100029F4D108E008F1010196
:100B900088468142FADB1BF808100029F6D1DDE90E
:100BA0000F23AAEB08008146214600F031F93044BA
:100BB00000EB080604E0DDE90F121BF8010B90477B
:100BC000B8F10108F7D221464846F2E00A21C4F301
:100BD00002524FF0000B0891022A04D001CFC11736
:100BE000032A09D00AE0FF1D27F00707F7E80201F2
:100BF00008E02CE01EE01FE000B2C117042A01D17A
:100C000040B2C117021E71F1000206DA0023D0EBD8
:100C1000030063EB01012D2202E0220504D52B2203
:100C20008DF82420012203E0E20701D02022F7E71B
:100C3000904653E00A210BE0102109E010214FF00B
:100C4000000B44F004044FF00809089103E0082168
:100C50004FF0000B0891C4F30252022A04D001CFD6
:100C60000021032A06D006E0FF1D27F00707F7E85A
:100C7000020103E080B2042A00D1C0B24FF00008A4
:100C800022072BD52A78702A07D0DDF820C08CF0F7
:100C9000100C5CEA0B0C05D00EE040228DF82420ED
:100CA000012208E050EA010306D030238DF82430F9
:100CB0008DF8252002229046089B83F0080353EA12
:100CC0000B030BD150EA010201D1620706D5302295
:100CD0008DF824204FF00108A9F101092A78582A3B
:100CE00004D038A20B9208AA0A920BE03AA2F9E7C4
:100CF0005B46089AFFF73AFA0B9B9B5C0A9A521ED6
:100D00000A92137050EA0102F2D10A98ADEB00008A
:100D100000F1200B600702D524F4803401E04FF08D
:100D20000109D94502DDA9EB0B0000E0002000EB32
:100D30000B0141440890AAEB010AE00306D4DDE967
:100D40000F232146504600F063F806444FF0000997
:100D500008E009A911F80900DDE90F12904709F12F
:100D60000109761CC145F4DBE0030CD5DDE90F2356
:100D70002146504600F04CF8064404E0DDE90F122D
:100D800030209047761C0899481E08900029F5DC11
:100D900008E00A980A990078491C0A91DDE90F12C7
:100DA0009047761CBBF10001ABF1010BF1DC214651
:100DB0005046DDE90F2300F019F806446D1C21E6CA
:100DC0000928010030313233343536373839616221
:100DD00063646566000000003031323334353637E5
:100DE0003839414243444546000000002DE9F041B6
:100DF000044600251E461746880404D405E03946FB
:100E00002020B0476D1C641EF9D52846BDE8F0814E
:100E10002DE9F041044600251E469046C80301D541
:100E2000302700E02027880404D505E041463846F5
:100E3000B0476D1C641EF9D52846BDE8F08170B539
:100E400004460D46E0B2FFF783FB204670BD00006C
:100E5000C8B0FFF7F1FA18A0FFF7A6FDFFF724FAD4
:100E600000204790469046A947A8FFF707FCBDF829
:100E700018219DF81C1116A0FFF796FD1EA30FCB9D
:100E8000459342AB07C30D2042AB00220F210090D7
:100E90002F20FFF755FC0D2002A900231A46CDE9AB
:100EA00000100F212F20FFF70CFC02A916A0FFF75E
:100EB0007BFD00BFFEE7000053544D3332205350FA
:100EC00049204578616D706C653A200A0000000089
:100ED0006D616E755F69643A203078253032582C28
:100EE0002070726F647563745F69643A203078258E
:100EF0003034580A0000000048656C6C6F20576F52
:100F0000726C642021000000726561645F6461742A
:100F100061733A2025730A00380F00080000002092
:100F200008000000C8090008400F00080800002061
:100F300080040000D8090008000000000000000044
:0400000508000131BD
:00000001FF
