:020000040800F2
:1000000008050020490100085101000853010008BB
:1000100055010008570100085901000800000000C0
:100020000000000000000000000000005B0100086C
:100030005D010008000000005F01000825060008BF
:100040006301000863010008630100086301000800
:1000500063010008630100086301000863010008F0
:1000600063010008630100086301000863010008E0
:10007000630100086301000863010008ED01000846
:1000800063010008630100086301000863010008C0
:10009000630100086301000863010008D50400083B
:1000A00063010008A106000863010008630100085D
:1000B0006301000863010008630100086301000890
:1000C0006301000863010008630100086301000880
:1000D00063010008F10600086301000863010008DD
:1000E000750400086301000863010008630100084B
:1000F0006301000863010008630100086301000850
:10010000630100086301000863010008630100083F
:100110006301000863010008D906000863010008B4
:10012000630100086301000863010008630100081F
:10013000DFF810D000F01AF80048004769080008FE
:10014000AFF30080080500200648804706480047B6
:10015000FEE7FEE7FEE7FEE7FEE7FEE7FEE7FEE777
:10016000FEE7FEE74106000831010008064C074D96
:1001700006E0E06840F0010394E807009847103477
:10018000AC42F6D3FFF7D8FFB8080008D80800083B
:1001900000B5034603E04FF47A7000F006F8181E2D
:1001A000A3F101018BB2F6D100BD00EBC001C90083
:1001B0004FF0E02251611146096941F004011161DB
:1001C0001146096941F00101116100BF4FF0E021C2
:1001D000096901F480310029F8D04FF0E021096964
:1001E00021F001014FF0E0221161704710B5044881
:1001F000406840F400300249486000F06BF810BDE0
:100200000000024010B52D48406940F001002B4924
:1002100048612B48806D20F0100029498865084608
:10022000806D20F4406088650846806D20F4407041
:1002300088650846806D40F0800088650846806DBE
:1002400020F0400088650846806D40F00200886517
:100250000846806D40F0200088651A48008840F00C
:1002600040001849088003200246174B19684FF6D2
:10027000FF031940154B0B4343EA0221124B19604F
:1002800000BF0F200221002808DA0A07140E0E4AC8
:100290000C3200F00F031B1FD45403E00A07130EA7
:1002A0000B4A135400BF0F200121814042099200E4
:1002B00002F1E022C2F8001100BF10BD00100240A0
:1002C00000000240143801400CED00E00000FA0587
:1002D00000E400E010B5024902A000F033FA10BDBE
:1002E0008800002052585F444D413A2573000000B9
:1002F00070B506460C4615460948806D20F0010091
:10030000074988656420FFF743FF05484666046691
:10031000C565806D40F001000149886570BD000031
:1003200000000240704700000348008820F00100F0
:100330000149088070470000002C01407047000010
:1003400010B53E48806940F004003C498861084689
:10035000806940F4804088613948006840F030008E
:10036000374908600846006840F080000860084689
:10037000006820F0400008600846006820F44070E3
:1003800008600846006820F40060086008460068BD
:1003900040F4806008602B48008840F400502949F0
:1003A00008800846008840F0080008800846008859
:1003B00040F0040008800846008820F4805008803F
:1003C0000846008820F480600880081D008820F41A
:1003D0004050091D088040F271201A49091F088009
:1003E00003200246184B19684FF6FF031940174BBC
:1003F0000B4343EA0221144B196000BF252005215D
:10040000002808DA0A07140E0F4A0C3200F00F0316
:100410001B1FD45403E00A07130E0D4A135400BFE8
:10042000252000F01F02012191404209920002F1B3
:10043000E022C2F8001100BF10BD00000010024011
:10044000040801400C3801400CED00E00000FA0502
:1004500000E400E07047000000BF0549098801F092
:1004600080010029F9D00249091D08807047000069
:100470000038014010B51548006800F4806078B17C
:100480001248006840F48060104908600A20FFF7B5
:100490007FFE0F48006800F4806008B100F04CF85F
:1004A0000A48006800F4006078B10848006840F429
:1004B0000060064908600A20FFF76AFE04480068E9
:1004C00000F4006008B100F038F810BD14040140D9
:1004D000081C014010B51548006800F4807078B120
:1004E0001248006840F48070104908600A20FFF745
:1004F0004FFE0F48006800F4807008B900F01AF849
:100500000A48006800F4007078B10848006840F4B8
:100510000070064908600A20FFF73AFE04480068A8
:1005200000F4007008B900F006F810BD1404014092
:10053000081C0140704770477047704710B500F0C5
:1005400001F810BD0CB50020019000903348006800
:1005500040F480303149086000BF3048006800F442
:10056000003000900198401C0190009818B9019843
:10057000B0F5A06FF1D12948006800F4003010B147
:100580000120009001E0002000900098012843D154
:100590002348006840F010002149086008460068C0
:1005A00020F0070008600846006840F0020008607C
:1005B0001A4840681949486008464068486008463B
:1005C000406840F4806048600846406820F47C1031
:1005D00048600846406840F4E810486008460068F3
:1005E00040F08070086000BF0C48006800F00070A8
:1005F0000028F9D00948406820F003000749486006
:100600000846406840F00200486000BF0348406868
:1006100000F00C000828F9D10CBD000000100240C9
:100620000020024010B50548008820B1034800882A
:10063000401E02490880FFF775FE10BD0200002031
:1006400010B51348006840F00100114908600846E1
:100650004068104908400E494860084600680E4945
:1006600008400B4908600846006820F480200860B4
:100670000846406820F4FE0048604FF41F00886080
:10068000FFF75CFF4FF000600449086010BD0000F8
:10069000001002400000FFF8FFFFF6FE08ED00E04A
:1006A00010B50648008820F0010004490880FFF7D3
:1006B0003BFE03A000F046F810BD0000102C0140E6
:1006C00054494D315F55505F49525148616E646CD9
:1006D000657220212121000010B50448008A20F015
:1006E000010002490882FFF729FE10BD00100040FA
:1006F00010B51148008800F020000F49088050B163
:10070000081D00880D490E4A128888540C4800883C
:10071000401C0B4908800848008800F0100050B1C8
:10072000074801880548FFF795FE00200449088026
:100730000148001D008810BD00380140080000205D
:10074000000000200FB4054B10B503A9044A02981D
:1007500000F017F810BC5DF814FB00005908000801
:100760000400002002E008C8121F08C1002AFAD1C4
:1007700070477047002001E001C1121F002AFBD121
:1007800070472DE9F84F994692468846054600275E
:1007900006E025280AD051464A4690476D1C7F1C2A
:1007A00028780028F5D13846BDE8F88F002315F8E1
:1007B000011F18462E2915D115F8011F04232A29D7
:1007C0000DD06FF02F022978A1F13004092C09D83F
:1007D00000EB800002EB400008446D1CF3E758F882
:1007E000040B6D1C2A78002ADDD0632A07D0732AF7
:1007F0000FD0104651464A4690477F1C2AE018F811
:10080000042B8DF8002000218DF801106E46012187
:1008100003E058F8046B4FF0FF315A074FF0000423
:1008200001D409E0641C84420BDA8C42FADB325DAD
:10083000002AF7D105E0641C8C42FCDB305D002807
:10084000F9D1274404E016F8010B51464A46904777
:10085000641EF8D26D1CA3E770B504460D46E0B2E5
:10086000FFF7FAFD204670BDFFF76AFD05A0FFF710
:1008700069FFFFF7C7FC0A220D490E48FFF738FD54
:1008800000BFFEE753544D333220444D41205553B1
:10089000415254315F52582D3E444D412D3E5241FC
:1008A0004D204578616D706C653A200A00000000AB
:1008B0000438014088000020D8080008000000200B
:1008C0000800000064070008E00800080800002095
:1008D0000005000074070008000000000000000090
:0400000508000131BD
:00000001FF
