:020000040800F2
:100000009004002049010008510100085301000834
:1000100055010008570100085901000800000000C0
:100020000000000000000000000000005B0100086C
:100030005D010008000000005F010008490A000897
:100040006301000863010008630100086301000800
:1000500063010008630100086301000863010008F0
:1000600063010008630100086301000863010008E0
:1000700063010008630100086301000863010008D0
:1000800063010008630100086301000863010008C0
:100090006301000863010008630100083D060008D1
:1000A00063010008630100086301000863010008A0
:1000B0006301000863010008630100086301000890
:1000C0006301000863010008630100086301000880
:1000D00063010008DD0A00086301000863010008ED
:1000E000DD050008630100086301000863010008E2
:1000F0006301000863010008630100086301000850
:10010000630100086301000863010008630100083F
:100110006301000863010008C50A000863010008C4
:10012000630100086301000863010008630100081F
:10013000DFF810D000F030F800480047D50C000878
:10014000AFF300809004002006488047064800472F
:10015000FEE7FEE7FEE7FEE7FEE7FEE7FEE7FEE777
:10016000FEE7FEE7650A00083101000830B50B46DE
:10017000014600202022012409E021FA02F59D42D7
:1001800005D303FA02F5491B04FA02F52844151EAB
:10019000A2F10102F1DC30BD064C074D06E0E0683B
:1001A00040F0010394E8070098471034AC42F6D3BE
:1001B000FFF7C2FF380D0008580D000800B50346D0
:1001C00005E04FF47A7000F005F8581E83B2002B5A
:1001D000F7D100BD00EBC001C9004FF0E022516132
:1001E0001146096941F0040111611146096941F0A4
:1001F0000101116100BF4FF0E021096901F4803174
:1002000031B94FF0E021096901F001010029F2D173
:100210004FF0E021096921F001014FF0E022116166
:1002200070477047642800DD6420014908807047EA
:100230003C0400402848C06940F002002649C861DB
:100240000846806940F0080088612448006840F052
:100250000300224908600846006840F00800086072
:100260000846006820F0040008601D48008820F05F
:1002700060001B4908800846008820F010000880B4
:1002800040F2CF201649283108806320091D0880DC
:1002900013481C30008820F0030011491C310880ED
:1002A0000846008840F0400008800846008840F07A
:1002B000200008800846008820F010000880081DF3
:1002C000008820F40070091D08800846008840F46A
:1002D000807008807047000000100240000C014050
:1002E000000400400348008840F0010001490880F4
:1002F0007047000000040040642800DD64200249CB
:100300000880091F08807047380C00403048C069D9
:1003100040F008002E49C8610846806940F004009A
:1003200088612C48006840F033002A49086008467C
:10033000006840F0880008600846006820F040002F
:1003400008602548008820F060002349088008469E
:10035000008820F01000088040F2CF201E4928318C
:1003600008806320091D08801B481830008840F26F
:10037000033188431849183108800846008844F240
:10038000400108431449183108800846008842F2A9
:10039000200108431049183108800846008841F2BE
:1003A000100188430C49183108800B482030008820
:1003B00020F020000849203108800846008840F0DD
:1003C000020008800846008840F01100088070474D
:1003D0000010024000080140000C00400348008863
:1003E00040F001000149088070470000000C004007
:1003F00030B502462148C06940F010001F49C8616D
:1004000041F61F401E49088502EB82000121C1EB25
:1004100040001B4988850846808940F0010088819A
:1004200003200346174C21684FF6FF042140164C69
:100430000C4344EA0321134C216000BF3620052100
:10044000002808DA0B071D0E0E4B0C3300F00F04CA
:10045000241F1D5503E00B071C0E0C4B1C5400BF42
:10046000362000F01F030121994043099B0003F14E
:10047000E023C3F8001100BF30BD000000100240AF
:10048000001000400CED00E00000FA0500E400E080
:100490000348008840F001000149088070470000CF
:1004A000001000407047000010B53E48806940F0E1
:1004B00004003C4988610846806940F480408861B6
:1004C0003948006840F03000374908600846006845
:1004D00040F0800008600846006820F04000086096
:1004E0000846006820F4407008600846006820F460
:1004F000006008600846006840F4806008602B488F
:10050000008840F40050294908800846008840F0DF
:10051000080008800846008840F00400088008466B
:10052000008820F4805008800846008820F480600D
:100530000880081D008820F44050091D088040F202
:1005400071201A49091F088003200246184B1968B8
:100550004FF6FF031940174B0B4343EA0221144B9C
:10056000196000BF25200A21002808DA0A07140EA6
:100570000F4A0C3200F00F031B1FD45403E00A078C
:10058000130E0D4A135400BF252000F01F02012155
:1005900091404209920002F1E022C2F8001100BF2E
:1005A00010BD000000100240040801400C3801405A
:1005B0000CED00E00000FA0500E400E070470000E8
:1005C00000BF0549098801F080010029F9D00249DE
:1005D000091D0880704700000038014010B515481B
:1005E000006800F4806078B11248006840F48060D0
:1005F000104908600A20FFF7E1FD0F48006800F489
:10060000806008B100F060F90A48006800F40060FA
:1006100078B10848006840F40060064908600A2084
:10062000FFF7CCFD0448006800F4006008B100F05A
:100630004CF910BD14040140081C014010B51548C8
:10064000006800F4807078B11248006840F480704F
:10065000104908600A20FFF7B1FD0F48006800F458
:10066000807008B900F0ECF80A48006800F40070E7
:1006700078B10848006840F40070064908600A2014
:10068000FFF79CFD0448006800F4007008B900F012
:10069000F9F810BD14040140081C014010B562486F
:1006A000806940F08000604988610846806940F0B8
:1006B000010088615D48006820F003005B49086024
:1006C0000846006840F0080008600846006820F00E
:1006D0000400086055480830006840F480705349B1
:1006E000083108605148006820F030004F49086028
:1006F0000846006840F0800008600846006820F066
:100700004000086049480830006840F400704749DC
:10071000083108604548006820F44070434908608B
:100720000846006840F4006008600846006820F44D
:10073000806008603D480830006820F480603B49D4
:10074000083108603948006820F440503749086093
:100750000846006840F4004008600846006820F43D
:100760008040086031480830006820F400602F495C
:10077000083108602E48006920F00F012C48016103
:10078000006940F005012A480161006920F0F0018C
:1007900027480161006940F0500125480161006966
:1007A00020F4706122480161006940F4A061204892
:1007B0000161006920F470411D480161006940F445
:1007C000A0411B4801611B48006840F44070194972
:1007D0000860081F006840F44060091F0860154861
:1007E0000C38006840F4706012490C39086003202E
:1007F0000246114B19684FF6FF0319400F4B0B438C
:1008000043EA02210C4B196000BF172000F088F862
:10081000282000F085F80221172000F08DF8022131
:10082000282000F089F810BD00100240041C01408F
:10083000000001400C0401400CED00E00000FA054E
:1008400010B50B480078642811DA094800780A309E
:10085000074908700846017806A000F069F90448C5
:100860000078FFF7DFFC02480078FFF745FD10BD78
:1008700004000020675F70776D5F647574793A25B6
:100880006400000010B50B480078002811DD09480D
:1008900000780A38074908700846017806A000F079
:1008A00047F904480078FFF7BDFC02480078FFF7DD
:1008B00023FD10BD04000020675F70776D5F6475D5
:1008C00074793A25640000007047704712488069C7
:1008D00040F00400104988611048006820F0CC0006
:1008E0000E4908600846006840F033000860081DA3
:1008F000006820F00C00091D08600846006840F000
:100900000300086005480C30006840F203110843FA
:1009100002490C3108607047001002400008014095
:1009200000F01F02012191404209920002F1E022F1
:10093000C2F800117047000010B5002807DA0A0756
:10094000140E054A00F00F031B1FD45403E00A07DE
:10095000130E024A135410BD18ED00E000E400E04D
:1009600010B500F001F810BD0CB50020019000900A
:100970003348006840F480303149086000BF304897
:10098000006800F4003000900198401C019000982D
:1009900018B90198B0F5A06FF1D12948006800F4AA
:1009A000003010B10120009001E00020009000987C
:1009B000012843D12348006840F010002149086015
:1009C0000846006820F0070008600846006840F00C
:1009D000020008601A4840681949486008464068A3
:1009E00048600846406840F48060486008464068B7
:1009F00020F47C1048600846406840F4E8104860E5
:100A00000846006840F08070086000BF0C4800682D
:100A100000F000700028F9D00948406820F0030079
:100A2000074948600846406840F00200486000BF3F
:100A30000348406800F00C000828F9D10CBD000004
:100A4000001002400020024010B50548008820B187
:100A500003480088401E02490880FFF7E2FB10BDF2
:100A60000200002010B51348006840F00100114951
:100A7000086008464068104908400E49486008462A
:100A800000680E4908400B4908600846006820F4D9
:100A9000802008600846406820F4FE0048604FF45B
:100AA0001F008860FFF75CFF4FF00060044908609A
:100AB00010BD0000001002400000FFF8FFFFF6FE2E
:100AC00008ED00E010B50448008A20F0010002495A
:100AD0000882FFF7E7FC10BD0010004010B5114878
:100AE000008800F020000F49088050B1081D0088E0
:100AF0000D490E4A128888540C480088401C0B4946
:100B000008800848008800F0100050B107480188AC
:100B10000548FFF753FD0020044908800148001DE7
:100B2000008810BD003801400C00002000000020AB
:100B30000FB4054B10B503A9044A029800F018F849
:100B400010BC5DF814FB0000C50C00080800002074
:100B500002E008C8121F08C1002AFAD17047704786
:100B6000002001E001C1121F002AFBD170470000E4
:100B70002DE9FF4F89B09B460446002506E0252855
:100B80000BD05A460B999047641C6D1C20780028A6
:100B9000F5D10DB02846BDE8F08F0027B8460122F8
:100BA000474900E0074314F8013F203B02FA03F0F5
:100BB0000842F7D120782E2819D114F8010F47F0F8
:100BC00004072A280ED06FF02F022078A0F1300100
:100BD00009290CD808EB880102EB410100EB010860
:100BE000641CF2E70A98641C50F8048B0A90207881
:100BF0000028CED0642808D0692806D075281ED0D9
:100C00005A460B9990476D1C58E00A994FF00A0913
:100C100001C90A91002802DA40422D2102E039057B
:100C200004D52B218DF82010012103E0F90704D011
:100C30002021F7E78A4608AE0DE00021FAE70A997D
:100C40004FF00A0901C90A91F7E74946FFF78EFA02
:100C5000303106F8011D0028F7D1ADEB060000F198
:100C60002009780701D44FF00108C84502DDA8EB40
:100C7000090000E000208046002706E008A85A4648
:100C8000C05D0B9990476D1C7F1C5745F6DB04E057
:100C900030205A460B9990476D1CB8F10001A8F11D
:100CA0000108F5DC05E016F8010B5A460B99904750
:100CB0006D1CB9F10001A9F10109F4DC641C65E7C0
:100CC0000928010070B504460D46E0B2FFF778FC34
:100CD000204670BDFFF7E2FCFFF7E6FB0BA0FFF735
:100CE00027FFFFF7F3FD6420FFF782FBFFF70EFB02
:100CF000FFF774FBFFF7CCFBFFF79CFAFFF7F2FA64
:100D00000C480078FFF78EFA00BFFEE753544D33CE
:100D1000322047656E6572616C59696D6572205449
:100D2000494D33204C4344204578616D706C653AE1
:100D3000200A000004000020580D000800000020D8
:100D40000C000000500B0008640D00080C0000208F
:100D500084040000600B0008000000000000000098
:040D6000000000008F
:0400000508000131BD
:00000001FF
