:020000040800F2
:100000009004002049010008510100085301000834
:1000100055010008570100085901000800000000C0
:100020000000000000000000000000005B0100086C
:100030005D010008000000005F0100088D07000856
:100040006301000863010008630100086301000800
:1000500063010008630100086301000863010008F0
:1000600063010008630100086301000863010008E0
:1000700063010008630100086301000863010008D0
:1000800063010008630100086301000863010008C0
:10009000630100086301000863010008E905000826
:1000A00063010008630100086301000863010008A0
:1000B0006301000863010008630100086301000890
:1000C0006301000863010008630100086301000880
:1000D00063010008210800086301000863010008AB
:1000E0008905000863010008630100086301000836
:1000F0006301000863010008630100086301000850
:10010000630100086301000863010008630100083F
:100110006301000863010008090800086301000882
:10012000630100086301000863010008630100081F
:10013000DFF810D000F030F800480047190A000836
:10014000AFF300809004002006488047064800472F
:10015000FEE7FEE7FEE7FEE7FEE7FEE7FEE7FEE777
:10016000FEE7FEE7A90700083101000830B50B469D
:10017000014600202022012409E021FA02F59D42D7
:1001800005D303FA02F5491B04FA02F52844151EAB
:10019000A2F10102F1DC30BD064C074D06E0E0683B
:1001A00040F0010394E8070098471034AC42F6D3BE
:1001B000FFF7C2FF740A0008940A000800B503465E
:1001C00005E04FF47A7000F005F8581E83B2002B5A
:1001D000F7D100BD00EBC001C9004FF0E022516132
:1001E0001146096941F0040111611146096941F0A4
:1001F0000101116100BF4FF0E021096901F4803174
:1002000031B94FF0E021096901F001010029F2D173
:100210004FF0E021096921F001014FF0E022116166
:1002200070477047642800DD6420014908807047EA
:10023000340C0040642800DD6420014908807047C8
:10024000380C00403048C06940F008002E49C861B1
:100250000846806940F0040088612C48006840F03E
:1002600033002A4908600846006840F088000860AA
:100270000846006820F0400008602548008820F00B
:100280006000234908800846008820F0100008809C
:1002900040F2CF201E49283108806320091D0880C4
:1002A0001B481830008840F2033188431849183140
:1002B00008800846008844F2400108431449183178
:1002C00008800846008842F220010843104918318E
:1002D00008800846008841F2100188430C49183113
:1002E00008800B482030008820F020000849203189
:1002F00008800846008840F0020008800846008810
:1003000040F01100088070470010024000080140D2
:10031000000C00400348008840F0010001490880BB
:1003200070470000000C004030B502462148C0690B
:1003300040F010001F49C86141F61F401E49088562
:1003400002EB82000121C1EB40001B498885084671
:10035000808940F00100888103200346174C216802
:100360004FF6FF042140164C0C4344EA0321134C82
:10037000216000BF36200521002808DA0B071D0E7A
:100380000E4B0C3300F00F04241F1D5503E00B0728
:100390001C0E0C4B1C5400BF362000F01F03012123
:1003A000994043099B0003F1E023C3F8001100BF0B
:1003B00030BD000000100240001000400CED00E0D5
:1003C0000000FA0500E400E00348008840F0010066
:1003D00001490880704700000010004010B5174820
:1003E000007820B9164800780A301549087013487B
:1003F0000078012804D1124800780A3810490870A2
:100400000F4801780FA000F035FA0D480078FFF78B
:1004100011FF0B480078FFF705FF0948007818B175
:1004200007480078642807D10448007808B90120FB
:1004300000E000200149087010BD00000500002008
:1004400004000020675F70776D5F647574793A25EA
:100450006400000010B53E48806940F004003C494B
:1004600088610846806940F48040886139480068A6
:1004700040F03000374908600846006840F08000CE
:1004800008600846006820F04000086008460068E0
:1004900020F4407008600846006820F4006008609E
:1004A0000846006840F4806008602B48008840F4EB
:1004B0000050294908800846008840F0080008805C
:1004C0000846008840F0040008800846008820F4B0
:1004D000805008800846008820F480600880081D4D
:1004E000008820F44050091D088040F271201A490C
:1004F000091F088003200246184B19684FF6FF03B6
:100500001940174B0B4343EA0221144B196000BFFB
:1005100025200A21002808DA0A07140E0F4A0C3297
:1005200000F00F031B1FD45403E00A07130E0D4AFB
:10053000135400BF252000F01F0201219140420901
:10054000920002F1E022C2F8001100BF10BD0000CD
:1005500000100240040801400C3801400CED00E09E
:100560000000FA0500E400E07047000000BF054904
:10057000098801F080010029F9D00249091D08808D
:10058000704700000038014010B51548006800F4BD
:10059000806078B11248006840F4806010490860BB
:1005A0000A20FFF70BFE0F48006800F4806008B1D6
:1005B00000F04CF80A48006800F4006078B1084880
:1005C000006840F40060064908600A20FFF7F6FD65
:1005D0000448006800F4006008B100F038F810BD6D
:1005E00014040140081C014010B51548006800F4CF
:1005F000807078B11248006840F48070104908603B
:100600000A20FFF7DBFD0F48006800F4807008B98E
:1006100000F01AF80A48006800F4007078B1084841
:10062000006840F40070064908600A20FFF7C6FD24
:100630000448006800F4007008B900F006F810BD26
:1006400014040140081C0140704770477047704710
:100650001248806940F00400104988611048006821
:1006600020F0CC000E4908600846006840F03300D6
:100670000860081D006820F00C00091D086008468D
:10068000006840F00300086005480C30006840F244
:100690000311084302490C31086070470010024002
:1006A0000008014010B500F001F810BD0CB50020A5
:1006B000019000903348006840F480303149086070
:1006C00000BF3048006800F4003000900198401CE2
:1006D0000190009818B90198B0F5A06FF1D12948A0
:1006E000006800F4003010B10120009001E000200B
:1006F00000900098012843D12348006840F0100082
:10070000214908600846006820F007000860084694
:10071000006840F0020008601A48406819494860C3
:100720000846406848600846406840F48060486079
:100730000846406820F47C1048600846406840F451
:10074000E81048600846006840F08070086000BF0C
:100750000C48006800F000700028F9D00948406893
:1007600020F00300074948600846406840F0020056
:10077000486000BF0348406800F00C000828F9D129
:100780000CBD0000001002400020024010B50548DA
:10079000008820B103480088401E02490880FFF706
:1007A00040FD10BD0200002010B51348006840F065
:1007B00001001149086008464068104908400E4988
:1007C0004860084600680E4908400B490860084622
:1007D000006820F4802008600846406820F4FE008D
:1007E00048604FF41F008860FFF75CFF4FF0006027
:1007F0000449086010BD0000001002400000FFF82E
:10080000FFFFF6FE08ED00E010B50448008A20F076
:10081000010002490882FFF7E1FD10BD0010004011
:1008200010B51148008800F020000F49088050B131
:10083000081D00880D490E4A128888540C4800880B
:10084000401C0B4908800848008800F0100050B197
:10085000074801880548FFF787FE00200449088003
:100860000148001D008810BD003801400C00002028
:10087000000000200FB4054B10B503A9044A0298EC
:1008800000F018F810BC5DF814FB0000090A00081D
:100890000800002002E008C8121F08C1002AFAD18F
:1008A00070477047002001E001C1121F002AFBD1F0
:1008B000704700002DE9FF4F89B09B460446002594
:1008C00006E025280BD05A460B999047641C6D1CF6
:1008D00020780028F5D10DB02846BDE8F08F00271C
:1008E000B8460122474900E0074314F8013F203B86
:1008F00002FA03F00842F7D120782E2819D114F813
:10090000010F47F004072A280ED06FF02F0220783D
:10091000A0F1300109290CD808EB880102EB410154
:1009200000EB0108641CF2E70A98641C50F8048B81
:100930000A9020780028CED0642808D0692806D0F4
:1009400075281ED05A460B9990476D1C58E00A999D
:100950004FF00A0901C90A91002802DA40422D210C
:1009600002E0390504D52B218DF82010012103E088
:10097000F90704D02021F7E78A4608AE0DE00021F0
:10098000FAE70A994FF00A0901C90A91F7E74946BF
:10099000FFF7ECFB303106F8011D0028F7D1ADEB75
:1009A000060000F12009780701D44FF00108C8457E
:1009B00002DDA8EB090000E000208046002706E0E9
:1009C00008A85A46C05D0B9990476D1C7F1C57457F
:1009D000F6DB04E030205A460B9990476D1CB8F1C5
:1009E0000001A8F10108F5DC05E016F8010B5A46F4
:1009F0000B9990476D1CB9F10001A9F10109F4DCD4
:100A0000641C65E70928010070B504460D46E0B294
:100A1000FFF7ACFD204670BDFFF71CFD0BA0FFF7F4
:100A200029FFFFF715FE6420FFF77EFCFFF7CCFCE3
:100A3000FFF708FCFFF76EFC0D480078FFF7FAFBA4
:100A40000B480078FFF7EEFB00BFFEE753544D3331
:100A5000322047656E6572616C59696D657220540C
:100A6000494D35204578616D706C653A200A00006B
:100A700004000020940A0008000000200C00000080
:100A800094080008A00A00080C000020840400005C
:100A9000A4080008000000000000000000000000A2
:0400000508000131BD
:00000001FF
